:020000040800F2
:10000000000002203D490008394600083F4600082C
:10001000454600084B460008514600080000000015
:10002000000000000000000000000000574600082B
:10003000654600080000000073460008814600087D
:100040008D4900088D4900088D4900088D49000838
:100050008D4900088D4900088D4900088D49000828
:100060008D4900088D4900088D4900088D49000818
:100070008D4900088D4900088D4900088D49000808
:100080008D4900088D4900088D49000800000000D6
:100090000000000000000000000000008D49000882
:1000A0008D4900088D4900088D4900088D490008D8
:1000B0008D460008A14600088D4900088D490008BA
:1000C0008D4900088D4900088D4900088D490008B8
:1000D0008D490008B54600088D4900080000000061
:1000E000C94600088D4900088D490008000000003D
:1000F0000000000000000000000000008D49000822
:10010000000000008D4900088D4900088D49000855
:1001100000000000000000000000000000000000DF
:100120008D4900088D490008F94600088D490008EE
:100130008D490008000000000000000000000000E1
:100140000000000000000000000000000D47000853
:100150008D4900088D490008214700088D49000895
:100160008D4900088D4900080000000000000000D3
:10017000000000000000000000000000000000007F
:10018000000000008D490008000000000000000091
:080190008D4900088D490008AB
:1001A00010B5054C237833B9044B13B10448AFF3B1
:1001B00000800123237010BD040200200000000015
:1001C000FC0D010808B5034B1BB103490348AFF30D
:1001D000008008BD0000000008020020FC0D01089E
:1001E000034613F8012B002AFBD1181A0138704777
:1001F00001F0FF01102A2BDB10F0070F08D010F8D8
:10020000013B013A8B422DD010F0070F42B3F6D1DB
:10021000F0B441EA012141EA014122F007047FF0F4
:1002200000070023F0E80256083C85EA010586EA4B
:10023000010685FA47F5A3FA87F586FA47F6A5FA87
:1002400087F68EB9EED1F0BC01F0FF0102F0070293
:1002500032B110F8013B013A83EA010313B1F8D13E
:100260000020704701387047002D06BF354603381F
:10027000073815F0010F07D1013015F4807F02BF58
:10028000013015F4C03F0130F0BC0138704700BFA9
:1002900081F0004102E000BF83F0004330B54FEA37
:1002A00041044FEA430594EA050F08BF90EA020FA4
:1002B0001FBF54EA000C55EA020C7FEA645C7FEA37
:1002C000655C00F0E2804FEA5454D4EB5555B8BF5A
:1002D0006D420CDD2C4480EA020281EA030382EACB
:1002E000000083EA010180EA020281EA0303362D5D
:1002F00088BF30BD11F0004F4FEA01314FF4801C30
:100300004CEA113102D0404261EB410113F0004F41
:100310004FEA03334CEA133302D0524263EB4303F8
:1003200094EA050F00F0A780A4F10104D5F1200E96
:100330000DDB02FA0EFC22FA05F2801841F10001F1
:1003400003FA0EF2801843FA05F359410EE0A5F1C5
:1003500020050EF1200E012A03FA0EFC28BF4CF0F6
:10036000020C43FA05F3C01851EBE37101F00045AC
:1003700007D54FF0000EDCF1000C7EEB00006EEBB9
:100380000101B1F5801F1BD3B1F5001F0CD3490843
:100390005FEA30004FEA3C0C04F101044FEA44529A
:1003A00012F5800F80F09A80BCF1004F08BF5FEA21
:1003B000500C50F1000041EB045141EA050130BD01
:1003C0005FEA4C0C404141EB0101013C28BFB1F513
:1003D000801FE9D291F0000F04BF01460020B1FA5E
:1003E00081F308BF2033A3F10B03B3F120020CDA31
:1003F0000C3208DD02F1140CC2F10C0201FA0CF00F
:1004000021FA02F10CE002F11402D8BFC2F1200C73
:1004100001FA02F120FA0CFCDCBF41EA0C01904029
:10042000E41AA2BF01EB0451294330BD6FEA040472
:100430001F3C1CDA0C340EDC04F11404C4F120025D
:1004400020FA04F001FA02F340EA030021FA04F36F
:1004500045EA030130BDC4F10C04C4F1200220FAC6
:1004600002F001FA04F340EA0300294630BD21FA04
:1004700004F0294630BD94F0000F83F4801306BFCA
:1004800081F480110134013D4EE77FEA645C18BFBE
:100490007FEA655C29D094EA050F08BF90EA020F55
:1004A00005D054EA000C04BF1946104630BD91EA4D
:1004B000030F1EBF0021002030BD5FEA545C05D150
:1004C0004000494128BF41F0004130BD14F580048F
:1004D0003CBF01F5801130BD01F0004545F0FE4103
:1004E00041F470014FF0000030BD7FEA645C1ABF38
:1004F000194610467FEA655C1CBF0B46024650EA6F
:10050000013406BF52EA033591EA030F41F400219A
:1005100030BD00BF90F0000F04BF0021704730B520
:100520004FF4806404F132044FF000054FF00001F5
:1005300050E700BF90F0000F04BF0021704730B5B6
:100540004FF4806404F1320410F0004548BF40428B
:100550004FF000013EE700BF42004FEAE2014FEAE0
:1005600031014FEA02701FBF12F07F4393F07F4FBB
:1005700081F06051704732F07F4208BF704793F0BE
:100580007F4F04BF41F40021704730B54FF46074D1
:1005900001F0004521F000411CE700BF50EA0102D4
:1005A00008BF704730B54FF000050AE050EA01027D
:1005B00008BF704730B511F0004502D5404261EBED
:1005C00041014FF4806404F132045FEA915C3FF42E
:1005D000D8AE4FF003025FEADC0C18BF03325FEACB
:1005E000DC0C18BF033202EBDC02C2F1200300FA7C
:1005F00003FC20FA02F001FA03FE40EA0E0021FAA1
:1006000002F11444BDE600BF70B54FF0FF0C4CF48E
:10061000E06C1CEA11541DBF1CEA135594EA0C0F40
:1006200095EA0C0F00F0DEF82C4481EA030621EA7B
:100630004C5123EA4C5350EA013518BF52EA0335B6
:1006400041F4801143F4801338D0A0FB02CE4FF068
:100650000005E1FB02E506F00042E0FB03E54FF098
:100660000006E1FB03569CF0000F18BF4EF0010E90
:10067000A4F1FF04B6F5007F64F5407404D25FEA8C
:100680004E0E6D4146EB060642EAC62141EA55513F
:100690004FEAC52040EA5E504FEACE2EB4F1FD0C81
:1006A00088BFBCF5E06F1ED8BEF1004F08BF5FEAFF
:1006B000500E50F1000041EB045170BD06F00046B1
:1006C00046EA010140EA020081EA0301B4EB5C045E
:1006D000C2BFD4EB0C0541EA045170BD41F4801156
:1006E0004FF0000E013C00F3AB8014F1360FDEBF7B
:1006F000002001F0004170BDC4F10004203C35DA57
:100700000C341BDC04F11404C4F1200500FA05F3D9
:1007100020FA04F001FA05F240EA020001F000427A
:1007200021F0004110EBD37021FA04F642EB0601F0
:100730005EEA430E08BF20EAD37070BDC4F10C041A
:10074000C4F1200500FA04F320FA05F001FA04F2DE
:1007500040EA020001F0004110EBD37041F10001CA
:100760005EEA430E08BF20EAD37070BDC4F12005D5
:1007700000FA05F24EEA020E20FA04F301FA05F23D
:1007800043EA020321FA04F001F0004121FA04F2E5
:1007900020EA020000EBD3705EEA430E08BF20EAB5
:1007A000D37070BD94F0000F0FD101F000464000EF
:1007B00041EB010111F4801F08BF013CF7D041EA71
:1007C000060195F0000F18BF704703F00046520075
:1007D00043EB030313F4801F08BF013DF7D043EA46
:1007E0000603704794EA0C0F0CEA135518BF95EAFC
:1007F0000C0F0CD050EA410618BF52EA4306D1D183
:1008000081EA030101F000414FF0000070BD50EAA1
:10081000410606BF1046194652EA430619D094EA2B
:100820000C0F02D150EA013613D195EA0C0F05D115
:1008300052EA03361CBF104619460AD181EA030169
:1008400001F0004141F0FE4141F470014FF0000021
:1008500070BD41F0FE4141F4780170BD70B54FF0BC
:10086000FF0C4CF4E06C1CEA11541DBF1CEA13553C
:1008700094EA0C0F95EA0C0F00F0A7F8A4EB05041E
:1008800081EA030E52EA03354FEA013100F0888015
:100890004FEA03334FF0805545EA131343EA1263DE
:1008A0004FEA022245EA111545EA10654FEA002693
:1008B0000EF000419D4208BF964244F1FD0404F54C
:1008C000407402D25B084FEA3202B61A65EB0305A8
:1008D0005B084FEA32024FF480104FF4002CB6EB65
:1008E000020E75EB030E22BFB61A754640EA0C00E5
:1008F0005B084FEA3202B6EB020E75EB030E22BF25
:10090000B61A754640EA5C005B084FEA3202B6EB65
:10091000020E75EB030E22BFB61A754640EA9C0024
:100920005B084FEA3202B6EB020E75EB030E22BFF4
:10093000B61A754640EADC0055EA060E18D04FEAB2
:10094000051545EA16754FEA06164FEAC30343EA52
:1009500052734FEAC2025FEA1C1CC0D111F4801F1F
:100960000BD141EA00014FF000004FF0004CB6E718
:1009700011F4801F04BF01430020B4F1FD0C88BFB7
:10098000BCF5E06F3FF6AFAEB5EB030C04BFB6EBC2
:10099000020C5FEA500C50F1000041EB045170BDB5
:1009A0000EF0004E4EEA113114EB5C04C2BFD4EBE2
:1009B0000C0541EA045170BD41F480114FF0000E66
:1009C000013C90E645EA060E8DE60CEA135594EAE2
:1009D0000C0F08BF95EA0C0F3FF43BAF94EA0C0FE5
:1009E0000AD150EA01347FF434AF95EA0C0F7FF45A
:1009F00025AF104619462CE795EA0C0F06D152EAAE
:100A000003353FF4FDAE1046194622E750EA410691
:100A100018BF52EA43067FF4C5AE50EA41047FF4A2
:100A20000DAF52EA43057FF4EBAE12E74FF0FF3C07
:100A300006E000BF4FF0010C02E000BF4FF0010CD8
:100A40004DF804CD4FEA410C7FEA6C5C4FEA430C51
:100A500018BF7FEA6C5C1BD001B050EA410C0CBFA0
:100A600052EA430C91EA030F02BF90EA020F002002
:100A7000704710F1000F91EA030F58BF994208BF69
:100A800090422CBFD8176FEAE37040F00100704726
:100A90004FEA410C7FEA6C5C02D150EA013C07D17D
:100AA0004FEA430C7FEA6C5CD6D152EA033CD3D0C8
:100AB0005DF8040B704700BF8446104662468C46C2
:100AC0001946634600E000BF01B5FFF7B7FF0028F5
:100AD00048BF10F1000F01BD4DF808EDFFF7F4FF1E
:100AE0000CBF012000205DF808FB00BF4DF808EDA9
:100AF000FFF7EAFF34BF012000205DF808FB00BFCC
:100B00004DF808EDFFF7E0FF94BF012000205DF8ED
:100B100008FB00BF4DF808EDFFF7CEFF94BF0120A2
:100B200000205DF808FB00BF4DF808EDFFF7C4FF9B
:100B300034BF012000205DF808FB00BF4FEA410CE4
:100B40007FEA6C5C02D150EA013C0AD14FEA430CC7
:100B50007FEA6C5C02D152EA033C02D14FF0000004
:100B600070474FF0010070474FEA410212F5001242
:100B700015D211D56FF47873B3EB625212D94FEAE4
:100B8000C12343F0004343EA505311F0004F23FACE
:100B900002F018BF404270474FF00000704750EA23
:100BA000013005D111F0004008BF6FF000407047E0
:100BB0004FF00000704700BF4FEA4102B2F1E0433E
:100BC00024BFB3F5001CDCF1FE5C0DD901F0004C34
:100BD0004FEAC0024CEA5070B2F1004F40EB830084
:100BE00008BF20F00100704711F0804F21D113F1B0
:100BF0003872BCBF01F00040704741F480114FEAE9
:100C00005252C2F11802C2F1200C10FA0CF320FA71
:100C100002F018BF40F001004FEAC1234FEAD3238E
:100C200003FA0CFC40EA0C0023FA02F34FEA4303F8
:100C3000CCE77FEA625307D150EA01331EBF4FF081
:100C4000FE4040F44000704701F0004040F0FE409C
:100C500040F40000704700BF53B94AB9002908BFEB
:100C600000281CBF4FF0FF314FF0FF3000F074B987
:100C7000ADF1080C6DE904CE00F006F8DDF804E0F3
:100C8000DDE9022304B070472DE9F047089D0446D2
:100C90008E46002B4DD18A42944669D9B2FA82F22F
:100CA00052B101FA02F3C2F1200120FA01F10CFA6B
:100CB00002FC41EA030E94404FEA1C48210CBEFBA3
:100CC000F8F61FFA8CF708FB16E341EA034306FB2C
:100CD00007F199420AD91CEB030306F1FF3080F0BB
:100CE0001F81994240F21C81023E63445B1AA4B208
:100CF000B3FBF8F008FB103344EA034400FB07F7AA
:100D0000A7420AD91CEB040400F1FF3380F00A81EA
:100D1000A74240F207816444023840EA0640E41BDF
:100D200000261DB1D4400023C5E900433146BDE88B
:100D3000F0878B4209D9002D00F0EF800026C5E92D
:100D4000000130463146BDE8F087B3FA83F6002E45
:100D50004AD18B4202D3824200F2F980841A61EBBD
:100D6000030301209E46002DE0D0C5E9004EDDE7DB
:100D700002B9FFDEB2FA82F2002A40F09280A1EBC3
:100D80000C014FEA1C471FFA8CFE0126200CB1FB18
:100D9000F7F307FB131140EA01410EFB03F0884211
:100DA00008D91CEB010103F1FF3802D2884200F29E
:100DB000CB804346091AA4B2B1FBF7F007FB101130
:100DC00044EA01440EFB00FEA64508D91CEB0404CE
:100DD00000F1FF3102D2A64500F2BB800846A4EB29
:100DE0000E0440EA03409CE7C6F12007B34022FA14
:100DF00007FC4CEA030C20FA07F401FA06F31C4343
:100E0000F9404FEA1C4900FA06F3B1FBF9F8200C4F
:100E10001FFA8CFE09FB181140EA014108FB0EF095
:100E2000884202FA06F20BD91CEB010108F1FF3AE5
:100E300080F08880884240F28580A8F102086144F1
:100E4000091AA4B2B1FBF9F009FB101144EA0141FF
:100E500000FB0EFE8E4508D91CEB010100F1FF34AA
:100E60006CD28E456AD90238614440EA0840A0FB42
:100E70000294A1EB0E01A142C846A64656D353D018
:100E80005DB1B3EB080261EB0E0101FA07F722FA3C
:100E900006F3F1401F43C5E9007100263146BDE865
:100EA000F087C2F12003D8400CFA02FC21FA03F3C8
:100EB000914001434FEA1C471FFA8CFEB3FBF7F049
:100EC00007FB10360B0C43EA064300FB0EF69E426E
:100ED00004FA02F408D91CEB030300F1FF382FD207
:100EE0009E422DD9023863449B1B89B2B3FBF7F6AF
:100EF00007FB163341EA034106FB0EF38B4208D988
:100F00001CEB010106F1FF3816D28B4214D9023EC8
:100F10006144C91A46EA004638E72E46284605E7E6
:100F20000646E3E61846F8E64B45A9D2B9EB0208B7
:100F300064EB0C0E0138A3E74646EAE7204694E747
:100F40004046D1E7D0467BE7023B614432E730467A
:100F500009E76444023842E7704700BF80B582B0B9
:100F600000AF0346FB80FB88B3F5805F40F0A180B3
:100F70004FF48051924804F039FC0346002B14BF13
:100F800001230023DAB28F4B1A708E4B1B781A465E
:100F90008D4B1B781343DAB28B4B1A708A4B1B783C
:100FA0005B00DAB2884B1A704FF40051844804F0A9
:100FB0001DFC0346002B14BF01230023DAB2834B30
:100FC0001A70824B1B781A467F4B1B781343DAB298
:100FD0007D4B1A707C4B1B7803F00303DAB27A4B1B
:100FE0001A70794B1B78032B5DD801A252F823F0BD
:100FF00001100008271000084D10000873100008A9
:10100000734B1B68012B04D1724B1B680133714A6F
:1010100013606F4B1B68022B3ED16E4B1B68013B6C
:101020006C4A136038E06A4B1B68032B04D1694B90
:101030001B680133674A1360654B1B68002B2DD179
:10104000644B1B68013B634A136027E0604B1B68DD
:10105000002B04D15F4B1B6801335E4A13605C4B6D
:101060001B68032B1CD15B4B1B68013B594A136067
:1010700016E0574B1B68022B04D1564B1B680133FB
:10108000544A1360524B1B68012B0BD1514B1B6808
:10109000013B504A136005E000BF04E000BF02E0DE
:1010A00000BF00E000BF484B1B781A46484B1A604F
:1010B00015E2FB88B3F5005F40F0B0804FF480513B
:1010C0003F4804F093FB0346002B14BF0123002389
:1010D000DAB23C4B1A703B4B1B781A463E4B1B78DE
:1010E0001343DAB23C4B1A703B4B1B785B00DAB20D
:1010F000394B1A704FF40051314804F077FB034626
:10110000002B14BF01230023DAB2304B1A702F4B8F
:101110001B781A46304B1B781343DAB22E4B1A70E9
:101120002D4B1B7803F00303DAB22B4B1A702A4BBA
:101130001B78032B6CD801A252F823F04D11000844
:101140007311000899110008DD110008204B1B687D
:10115000012B04D11F4B1B6801331E4A13601C4B2B
:101160001B68022B4DD11B4B1B68013B194A1360B6
:1011700047E0174B1B68032B04D1164B1B68013348
:10118000144A1360124B1B68002B3CD1114B1B6897
:10119000013B104A136036E00D4B1B68002B04D155
:1011A0000C4B1B6801330B4A1360094B1B68032B64
:1011B0002BD1084B1B68013B064A136025E000BF9A
:1011C0000010024020020020210200202202002004
:1011D00080160020D016002023020020934B1B68AD
:1011E000022B04D1924B1B680133914A13608F4B41
:1011F0001B68012B0BD18E4B1B68013B8C4A136083
:1012000005E000BF04E000BF02E000BF00E000BF57
:10121000884B1B781A46854B1A6060E1FB88B3F552
:10122000806F40F0A2804FF48061834804F0DEFAC2
:101230000346002B14BF01230023DAB27F4B1A7040
:101240007E4B1B781A467E4B1B781343DAB27C4BDD
:101250001A707B4B1B785B00DAB2794B1A704FF433
:101260000061754804F0C2FA0346002B14BF012345
:101270000023DAB2734B1A70724B1B781A46704B0C
:101280001B781343DAB26E4B1A706D4B1B7803F068
:101290000303DAB26A4B1A70694B1B78032B5ED8D2
:1012A00001A252F823F000BFB9120008DF120008B3
:1012B000051300082B130008634B1B68012B04D196
:1012C000624B1B680133614A13605F4B1B68022B42
:1012D0003ED15E4B1B68013B5C4A136038E05A4BC1
:1012E0001B68032B04D1594B1B680133574A136009
:1012F000554B1B68002B2DD1544B1B68013B534AA7
:10130000136027E0504B1B68002B04D14F4B1B6828
:1013100001334E4A13604C4B1B68032B1CD14B4BC3
:101320001B68013B494A136016E0474B1B68022BC0
:1013300004D1464B1B680133444A1360424B1B687F
:10134000012B0BD1414B1B68013B404A136005E068
:1013500000BF04E000BF02E000BF00E000BF384B68
:101360001B781A46384B1A60B9E0FB88B3F5006F5A
:1013700040F0B5804FF480612F4804F037FA0346FF
:10138000002B14BF01230023DAB22C4B1A702B4B15
:101390001B781A462E4B1B781343DAB22C4B1A706B
:1013A0002B4B1B785B00DAB2294B1A704FF40061AB
:1013B000214804F01BFA0346002B14BF012300232D
:1013C000DAB2204B1A701F4B1B781A46204B1B7841
:1013D0001343DAB21E4B1A701D4B1B7803F0030344
:1013E000DAB21B4B1A701A4B1B78032B72D801A26E
:1013F00052F823F005140008551400087B14000867
:10140000A1140008104B1B68012B04D10F4B1B6863
:1014100001330E4A13600C4B1B68022B53D10B4B4C
:101420001B68013B094A13604DE000BF8016002095
:10143000D0160020230200200010024024020020C9
:101440002502002026020020C41600208816002055
:1014500027020020244B1B68032B04D1234B1B685D
:101460000133224A1360204B1B68002B2DD11F4BE8
:101470001B68013B1D4A136027E01B4B1B68002BB8
:1014800004D11A4B1B680133184A1360164B1B68B2
:10149000032B1CD1154B1B68013B144A136016E04B
:1014A000114B1B68022B04D1104B1B6801330F4AF0
:1014B00013600D4B1B68012B0BD10C4B1B68013BC0
:1014C0000A4A136005E000BF04E000BF02E000BF6D
:1014D00000E000BF064B1B781A46034B1A6000BFA2
:1014E0000837BD4680BD00BFC41600208816002006
:1014F0002702002000000000B0B582B000AF786085
:10150000614B1B680133604A13605F4B1B68642B9F
:1015100040F0AB805D4B1B685B001846FFF70AF894
:1015200055A3D3E90023FFF76FF802460B46144694
:101530001D46554B1B681846FEF7FCFF50A3D3E928
:101540000023FFF761F802460B4620462946FFF7C5
:1015500085F902460B4610461946FFF72DFB034658
:101560004B4A1360494B1A6813461B019B1A9B0098
:101570001846FEF7DFFF04460D46434B1B6818462E
:10158000FEF7D8FF3EA3D3E90023FFF73DF802465C
:101590000B4620462946FFF761F902460B461046E6
:1015A0001946FFF709FB03463A4A13603A4B1B689A
:1015B0005B001846FEF7BEFF2FA3D3E90023FFF719
:1015C00023F802460B4614461D462F4B1B6818464F
:1015D000FEF7B0FF2AA3D3E90023FFF715F8024670
:1015E0000B4620462946FFF739F902460B461046BE
:1015F0001946FFF7E1FA0346284A1360264B1A689A
:1016000013461B019B1A9B001846FEF793FF0446E6
:101610000D461D4B1B681846FEF78CFF18A3D3E937
:101620000023FEF7F1FF02460B4620462946FFF74E
:1016300015F902460B4610461946FFF7BDFA034658
:10164000174A1360164B1B681846FEF785FF0246C3
:101650000B4614480DF0CAFB0C4B00221A600E4BCF
:1016600000221A60084B00221A6000BF0837BD46EE
:10167000B0BD00BFAFF30080182D4454FB210940DA
:101680001B2FDD240681154094160020D016002063
:10169000BC160020B416002088160020A8160020D2
:1016A000CC160020180E0108B0B58AB000AFF86063
:1016B000B9607A606E4B3B62FB6893ED007ABB6861
:1016C000D3ED007AF0EEE77A77EE677A694BC3EDF7
:1016D000007A684B1B681846FEF73EFF5CA3D3E90F
:1016E0000023FEF791FF02460B4610461946FFF70E
:1016F00063FA0346FB61604B1B681846FEF72CFF3C
:1017000004460D465B4B1B681846FEF725FF52A3A7
:10171000D3E90023FEF778FF02460B461046194630
:101720004FA3D3E90023FEF76FFF02460B46204686
:101730002946FEF7B3FD02460B4610461946FFF751
:101740003BFA03467B6297ED097AD7ED077A77EE8D
:10175000277AC7ED067A97ED067AD7ED087AB4EEC8
:10176000E77AF1EE10FA08D5BB697B61434B4FF085
:1017700000021A607B68BA691A6097ED067AD7EDA5
:10178000087AB4EEE77AF1EE10FA59DD3B6A7B6134
:1017900097ED057AD7ED067A77EE677A374BC3ED8A
:1017A000007A344B1B681846FEF7D6FE2AA3D3E90D
:1017B0000023FEF729FF02460B4614461D462F4B19
:1017C0001B681846FEF7C8FE27A3D3E90023FEF7DF
:1017D0001BFF02460B4620462946FEF75FFD0246E8
:1017E0000B4610461946FFF7E7F90346244A1360F3
:1017F000214B1B681846FEF7AFFE04460D46204BF2
:101800001B681846FEF7A8FE15A3D3E90023FEF7D0
:10181000FBFE02460B4620462946FEF73FFD0246E8
:101820000B4610461946FFF7C7F903467B6297ED52
:10183000077AD7ED097A77EE277A7B68C3ED007ACD
:101840000D4A7B6A136000BF2837BD46B0BD00BF9C
:101850001D5A643BDF4FCD3F9A99999999992E4033
:101860009A9999999999B93F46B6F3FDD43836407B
:101870000000C843B816002028020020C816002027
:10188000A016002080B400AF00BFBD465DF8047B09
:10189000704780B400AF00BFBD465DF8047B704761
:1018A000B0B584B000AFF860B9607A603B60FB68A7
:1018B000D3ED007A77EEA77A17EE900AFEF74CFE8A
:1018C00004460D46BB681B681846FEF745FE67A335
:1018D000D3E90023FEF798FE02460B462046294630
:1018E000FEF7DAFC02460B46104619464FF000029E
:1018F0004FF08043FEF7B2FF02460B4610461946F2
:10190000FFF75AF902467B681A60FB68D3ED007A4C
:1019100077EEA77A17EE900AFEF71EFE04460D46F4
:10192000BB681B681846FEF717FE50A3D3E90023D7
:10193000FEF76AFE02460B4620462946FEF7AEFC3D
:1019400002460B46104619464FF000024FF0804306
:10195000FEF784FF02460B4610461946FFF72CF9A6
:1019600002463B681A607B681B681846FEF7F4FD68
:1019700040A3D3E90023FEF771FF02460B46104651
:101980001946FFF719F902467B681A603B681B6825
:101990001846FEF7E1FD37A3D3E90023FEF75EFF0B
:1019A00002460B4610461946FFF706F902463B6809
:1019B0001A607B68D3ED007A9FED297A67EE877A0B
:1019C00017EE900AFEF7C8FD23A3D3E90023FEF724
:1019D00045FF02460B4610461946FFF7EDF8024652
:1019E0007B681A603B68D3ED007A9FED1D7A67EE45
:1019F000877A17EE900AFEF7AFFD17A3D3E900230D
:101A0000FEF72CFF02460B4610461946FFF7D4F8A6
:101A100002463B681A607B68002B18D03B68002B9D
:101A200015D0012202210F4803F0F8FE0022042104
:101A30000C4803F0F3FE00224FF480710A4803F0D3
:101A4000EDFE01224FF40071074803F0E7FE00BFEE
:101A50001037BD46B0BD00BF182D4454FB211940BE
:101A60000000704200040240001002403333333360
:101A70003333D33F9A9999999999A93F80B483B008
:101A800000AF87ED010AD7ED017AF0EEE77AB0EE0C
:101A9000670A0C37BD465DF8047B704780B582B09D
:101AA00000AF87ED010A97ED010A0CF0D9FBF0EECB
:101AB000407AB0EE670A0837BD4680BD80B500AFFA
:101AC00002F066FF00F07AF800F0EAF800F038FB68
:101AD00000F00EFB00F00AF900F03CF900F06EF99E
:101AE00000F0A0F90CF09EF800F034FA00F0D6F9FE
:101AF00000F0D0FA01F04CFD264806F06FFF0021FF
:101B0000254807F027F80821234807F023F800228A
:101B10000221224803F082FE012204211F4803F023
:101B20007DFE00224FF480711D4803F077FE0122F4
:101B30004FF400711A4803F071FE0CF099F801F0AF
:101B40002EFDFFF79FFEFFF7A4FE164B164A17491E
:101B50001748FFF7A5FE174A17491348FFF7A4FDDA
:101B6000642002F087FF134BD3ED007AB0EE670AD2
:101B7000FFF794FFF0EE407AB0EE670AFFF77EFFC2
:101B8000F0EE407A044B1B68FCEEE77A17EE902AE1
:101B9000DA63D2E768030020B003002000040240AB
:101BA0000010024004050020000500200805002068
:101BB00000000020FC040020B416002080B594B082
:101BC00000AF07F120033022002118460CF0BCFBC7
:101BD00007F10C0300221A605A609A60DA601A61F9
:101BE0000023BB602C4B1B6C2B4A43F080531364C7
:101BF000294B1B6C03F08053BB60BB6800237B60E8
:101C0000264B1B68254A43F440431360234B1B6853
:101C100003F440437B607B6801233B624FF48033D5
:101C20007B620223BB634FF48003FB6304233B64AA
:101C3000C0237B640423BB640823FB6407F12003F7
:101C4000184606F00BF80346002B14BF01230023AF
:101C5000DBB2002B01D000F097FB0F23FB600223C7
:101C60003B6100237B614FF4A053BB610023FB6108
:101C700007F10C030321184606F068FA0346002B0F
:101C800014BF01230023DBB2002B01D000F07CFB4A
:101C900000BF5037BD4680BD003802400070004094
:101CA00080B586B000AF3B4600221A605A609A6049
:101CB000DA601A615A6101233B60C823BB600523C7
:101CC0007B600223FB603B46184606F05FFC034640
:101CD000002B14BF01230023DBB2002B01D000F046
:101CE00053FB00BF1837BD4680BD000080B500AF74
:101CF000154B164A1A60144B154A5A60124B0022B3
:101D00009A60114B0022DA600F4B4FF480421A6147
:101D10000D4B00225A610C4B00229A610A4B0022A3
:101D2000DA61094B00221A62074805F0B3F903464D
:101D3000002B14BF01230023DBB2002B01D000F0E5
:101D400023FB00BF80BD00BF2C02002000540040D8
:101D5000A086010080B500AF154B164A1A60144BDF
:101D60004FF400725A60124B00229A60104B00220E
:101D7000DA600F4B00221A610D4B0F4A5A610C4B6F
:101D800000229A610A4B0022DA61094B01221A6291
:101D9000074805F0C3FA0346002B14BF01230023B4
:101DA000DBB2002B01D000F0EFFA00BF80BD00BF16
:101DB00080020020003800400077010080B500AFAD
:101DC000154B164A1A60144B4FF400725A60124BAE
:101DD00000229A60104B0022DA600F4B4FF4007221
:101DE0001A610D4B0E4A5A610B4B00229A610A4B45
:101DF0000022DA61084B00221A62074805F08EFAC9
:101E00000346002B14BF01230023DBB2002B01D0BB
:101E100000F0BAFA00BF80BDC8020020003C0040BC
:101E20000077010080B500AF1A4B1B4A1A60194BAE
:101E30004FF482725A60174B00229A60154B0022B1
:101E4000DA60144B00221A61124B00225A61114BC6
:101E50004FF400729A610F4B0022DA610D4B0022A1
:101E60001A620C4B00225A620A4B00229A62094BFA
:101E70000A22DA62074806F0D9FC0346002B14BF99
:101E800001230023DBB2002B01D000F07DFA00BF5C
:101E900080BD00BF100300200030014080B586B037
:101EA00000AF07F1080300221A605A609A60DA60F6
:101EB0003B4600221A605A60254B4FF080421A6060
:101EC000234B2F225A60224B00229A60204B4FF462
:101ED0007A72DA601E4B00221A611D4B00229A6151
:101EE0001B4806F02CFD0346002B14BF01230023E2
:101EF000DBB2002B01D000F047FA4FF48053BB60F7
:101F000007F108031946124807F09EF80346002B14
:101F100014BF01230023DBB2002B01D000F034FA00
:101F200000233B6000237B603B461946084807F0CE
:101F300047FC0346002B14BF01230023DBB2002B18
:101F400001D000F021FA00BF1837BD4680BD00BFA8
:101F50006803002080B58EB000AF07F1280300228F
:101F60001A605A609A60DA6007F1200300221A6052
:101F70005A603B1D00221A605A609A60DA601A614A
:101F80005A619A61414B424A1A60404B0B225A6097
:101F90003E4B00229A603D4B4FF4C872DA603B4BD7
:101FA00000221A61394B00229A61384806F0C7FCBA
:101FB0000346002B14BF01230023DBB2002B01D00A
:101FC00000F0E2F94FF48053BB6207F12803194691
:101FD0002E4807F039F80346002B14BF01230023D5
:101FE000DBB2002B01D000F0CFF9284806F058FDF5
:101FF0000346002B14BF01230023DBB2002B01D0CA
:1020000000F0C2F900233B6200237B6207F120034A
:1020100019461E4807F0D4FB0346002B14BF0123CA
:102020000023DBB2002B01D000F0AEF960237B600F
:102030000023BB600023FB6000237B613B1D00226B
:102040001946124806F03EFF0346002B14BF012339
:102050000023DBB2002B01D000F096F93B1D0822D3
:1020600019460A4806F02EFF0346002B14BF012331
:102070000023DBB2002B01D000F086F9034802F008
:10208000ABF900BF3837BD4680BD00BFB0030020AC
:102090000004004080B500AF134B144A1A60124B85
:1020A0004FF461425A60104B00229A600E4B00229E
:1020B000DA600D4B00221A610B4B0C225A610A4B5D
:1020C00000229A61084B0022DA61074807F0FAFB08
:1020D0000346002B14BF01230023DBB2002B01D0E9
:1020E00000F052F900BF80BDF8030020001001404D
:1020F00080B582B000AF00237B60104B1B6B0F4A92
:1021000043F4800313630D4B1B6B03F480037B606C
:102110007B68002200213A2002F0ABFD3A2002F059
:10212000C4FD00220021462002F0A3FD462002F05B
:10213000BCFD00BF0837BD4680BD00BF003802406F
:1021400080B58CB000AF07F11C0300221A605A6002
:102150009A60DA601A610023BB61854B1B6B844A6D
:1021600043F010031363824B1B6B03F01003BB613E
:10217000BB6900237B617E4B1B6B7D4A43F00403EC
:1021800013637B4B1B6B03F004037B617B690023B0
:102190003B61774B1B6B764A43F080031363744BB0
:1021A0001B6B03F080033B613B690023FB60704BBA
:1021B0001B6B6F4A43F0010313636D4B1B6B03F002
:1021C0000103FB60FB680023BB60694B1B6B684A23
:1021D00043F002031363664B1B6B03F00203BB6007
:1021E000BB6800237B60624B1B6B614A43F00803B2
:1021F00013635F4B1B6B03F008037B607B6800225B
:102200004FF442715B4803F009FB012201215A4857
:1022100003F004FB00220621584803F0FFFA0022D5
:102220004FF21001564803F0F9FA0423FB61002332
:102230003B6200237B6207F11C0319464D4803F003
:1022400051F94FF44273FB6101233B6200237B622F
:102250000023BB6207F11C031946464803F042F90C
:102260003223FB614FF490133B6200237B6207F142
:102270001C0319463F4803F035F90123FB61012394
:102280003B6200237B620023BB6207F11C031946FB
:10229000394803F027F90123FB614FF490133B62A7
:1022A00000237B6207F11C031946364803F01AF934
:1022B0000623FB6101233B6200237B620023BB6298
:1022C00007F11C0319462D4803F00CF94FF4705325
:1022D000FB614FF444133B6200237B6207F11C0354
:1022E0001946244803F0FEF84FF40043FB614FF415
:1022F00088133B6200237B6207F11C0319461F48C9
:1023000003F0F0F84FF48073FB614FF488133B62E5
:1023100000237B6207F11C031946194803F0E2F819
:102320004FF21003FB6101233B6200237B62002319
:10233000BB6207F11C031946114803F0D3F82023B0
:10234000FB6100233B6200237B6207F11C031946FB
:102350000B4803F0C7F800220021282002F089FC76
:10236000282002F0A2FC00BF3037BD4680BD00BF70
:102370000038024000100240000802400004024001
:10238000000C02400000024080B400AF72B600BFF3
:10239000FEE780B483B000AF78607B6800221A60EB
:1023A0007B6800225A607B6818460C37BD465DF892
:1023B000047B704780B483B000AF7860044A7B68C8
:1023C0001A607B6818460C37BD465DF8047B704781
:1023D0003410010880B582B000AF78607B68184681
:1023E000FFF7E8FF064A7B681A607B6804331846EB
:1023F000FFF7CFFF7B6818460837BD4680BD00BF9A
:102400001C10010880B485B000AF786039600023EB
:10241000FB607B685968FB683A681344CAB21A705B
:102420007B685B68190AFB6801333A681344CAB2D7
:102430001A707B685B68190CFB6802333A681344B6
:10244000CAB21A707B685B68190EFB6803333A687E
:102450001344CAB21A70FB680433FB607B68996846
:10246000FB683A681344CAB21A707B689B68190A01
:10247000FB6801333A681344CAB21A707B689B68E0
:10248000190CFB6802333A681344CAB21A707B68AD
:102490009B68190EFB6803333A681344CAB21A707A
:1024A000FB680433FB60FB6818461437BD465DF8D3
:1024B000047B704780B485B000AF7860396000233A
:1024C000FB60FB683A6813441B781A467B685A60C5
:1024D0007B685A68FB68013339680B441B781B0220
:1024E0001A437B685A607B685A68FB680233396814
:1024F0000B441B781B041A437B685A607B685A683C
:10250000FB68033339680B441B781B061A437B684E
:102510005A60FB680433FB60FB683A6813441B781D
:102520001A467B689A607B689A68FB680133396851
:102530000B441B781B021A437B689A607B689A687D
:10254000FB68023339680B441B781B041A437B6811
:102550009A607B689A68FB68033339680B441B7880
:102560001B061A437B689A60FB680433FB60FB68B8
:1025700018461437BD465DF8047B704780B483B0BD
:1025800000AF7860034B18460C37BD465DF8047BFE
:10259000704700BF200E010880B483B000AF7860A0
:1025A000034B18460C37BD465DF8047B704700BFEF
:1025B000300E010880B582B000AF78607B681846A5
:1025C000FFF7F8FE0B4A7B681A607B6800229A804E
:1025D0007B68094A9A607B68074ADA607B68064A2A
:1025E0001A617B6800225A617B6818460837BD462D
:1025F00080BD00BF04100108540E010880B588B0EA
:1026000000AF786039600023FB617B689988FB69C3
:102610003A681344CAB21A707B689B881B0A99B245
:10262000FB6901333A681344CAB21A70FB6902337A
:10263000FB617B689B681846FDF7D2FDB861FB69BA
:102640003A681344B969184600F0B0FFFB690433D7
:10265000FB61FB693A68D0187B689B68BA691946C8
:102660000BF064FEFA69BB691344FB617B68DB68AD
:102670001846FDF7B5FD7861FB693A68134479693E
:10268000184600F093FFFB690433FB61FB693A686D
:10269000D0187B68DB687A6919460BF047FEFA6947
:1026A0007B691344FB617B681B691846FDF798FD45
:1026B0003861FB693A6813443969184600F076FFBF
:1026C000FB690433FB61FB693A68D0187B681B69BE
:1026D0003A6919460BF02AFEFA693B691344FB611B
:1026E0007B685B69FB60F968FB693A681344CAB2AE
:1026F0001A70FB68190AFB6901333A681344CAB2BD
:102700001A70FB68190CFB6902333A681344CAB2A9
:102710001A70FB68190EFB6903333A681344CAB296
:102720001A70FB690433FB61FB6918462037BD460C
:1027300080BD80B58AB000AF786039600023BB618E
:10274000BB693A6813441B789AB27B689A807B68AD
:102750009B881AB2BB69013339680B441B781B0292
:102760001BB213431BB29AB27B689A80BB690233D7
:10277000BB61BB693A681A4407F114031146184655
:1027800000F032FFBB690433BB61BB697B62BA698D
:102790007B6913447A6A9A420CD23A687B6A1A447B
:1027A0007B6A013B39680B4412781A707B6A0133EB
:1027B0007B62ECE7BA697B691344013B3A681344D6
:1027C00000221A70BB69013B3A681A447B689A6020
:1027D000BA697B691344BB61BB693A681A4407F163
:1027E00010031146184600F0FFFEBB690433BB61BD
:1027F000BB693B62BA693B6913443A6A9A420CD29C
:102800003A683B6A1A443B6A013B39680B441278C8
:102810001A703B6A01333B62ECE7BA693B691344C7
:10282000013B3A68134400221A70BB69013B3A68C5
:102830001A447B68DA60BA693B691344BB61BB69BF
:102840003A681A4407F10C031146184600F0CCFE12
:10285000BB690433BB61BB69FB61BA69FB681344A4
:10286000FA699A420CD23A68FB691A44FB69013B47
:1028700039680B4412781A70FB690133FB61ECE78D
:10288000BA69FB681344013B3A68134400221A708A
:10289000BB69013B3A681A447B681A61BA69FB68F4
:1028A0001344BB610023BB60BB68BA6939680A4442
:1028B00012781343BB60BA68BB69013339680B44B3
:1028C0001B781B021343BB60BA68BB6902333968CB
:1028D0000B441B781B041343BB60BA68BB6903330A
:1028E00039680B441B781B061343BB60BA687B68CE
:1028F0005A61BB690433BB61BB6918462837BD46C2
:1029000080BD000080B483B000AF7860034B1846F0
:102910000C37BD465DF8047B704700BF580E0108B8
:1029200080B483B000AF7860034B18460C37BD46C7
:102930005DF8047B704700BF740E010880B582B05B
:1029400000AF78607B681846FFF734FD064A7B6865
:102950001A607B6800221A717B68044A9A607B685F
:1029600018460837BD4680BDEC0F0108540E01081B
:1029700080B584B000AF786039600023FB60FB68ED
:102980003A6813447A6812791A70FB680133FB6065
:102990007B689B681846FDF723FCB860FB683A68C3
:1029A0001344B968184600F001FEFB680433FB606D
:1029B000FB683A68D0187B689B68BA6819460BF0C8
:1029C000B5FCFA68BB681344FB60FB681846103717
:1029D000BD4680BD80B586B000AF78603960002309
:1029E0003B613B693A6813441A787B681A713B690A
:1029F00001333B613B693A681A4407F10C03114605
:102A0000184600F0F1FD3B6904333B613B697B6193
:102A10003A69FB6813447A699A420CD23A687B6936
:102A20001A447B69013B39680B4412781A707B6940
:102A300001337B61ECE73A69FB681344013B3A6878
:102A4000134400221A703B69013B3A681A447B68C0
:102A50009A603A69FB6813443B613B691846183732
:102A6000BD4680BD80B483B000AF7860034B18468C
:102A70000C37BD465DF8047B704700BF980E010817
:102A800080B483B000AF7860034B18460C37BD4666
:102A90005DF8047B704700BFAC0E010880B582B0C2
:102AA00000AF78607B681846FFF784FC114A7B68AA
:102AB0001A607B6800225A607B6800229A607B68FB
:102AC0000022DA607B6800221A617B684FF0000206
:102AD0005A617B6800229A617B680022DA617B6818
:102AE00000221A627B6800225A627B681846083707
:102AF000BD4680BDD40F010880B58AB000AF7860B4
:102B0000396000237B627B6859687B6A3A681344AA
:102B1000CAB21A707B685B68190A7B6A01333A682B
:102B20001344CAB21A707B685B68190C7B6A023363
:102B30003A681344CAB21A707B685B68190E7B6AE4
:102B400003333A681344CAB21A707B6A04337B6257
:102B500000233B627B685B683A6A9A422BD27B68AF
:102B6000DA683B6A9B0013441B683B6139697B6AE6
:102B70003A681344CAB21A703B69190A7B6A013376
:102B80003A681344CAB21A703B69190C7B6A023363
:102B90003A681344CAB21A703B69190E7B6A033350
:102BA0003A681344CAB21A707B6A04337B623B6A88
:102BB00001333B62CEE77B6819697B6A3A6813444C
:102BC000CAB21A707B681B69190A7B6A01333A68BA
:102BD0001344CAB21A707B681B69190C7B6A0233F2
:102BE0003A681344CAB21A707B681B69190E7B6A73
:102BF00003333A681344CAB21A707B6A04337B62A7
:102C00000023FB617B681B69FA699A422BD27B68BF
:102C10009A69FB699B0013441B68FB60F9687B6A37
:102C20003A681344CAB21A70FB68190A7B6A013306
:102C30003A681344CAB21A70FB68190C7B6A0233F3
:102C40003A681344CAB21A70FB68190E7B6A0333E0
:102C50003A681344CAB21A707B6A04337B62FB6918
:102C60000133FB61CEE77B68D9697B6A3A6813441C
:102C7000CAB21A707B68DB69190A7B6A01333A6849
:102C80001344CAB21A707B68DB69190C7B6A023381
:102C90003A681344CAB21A707B68DB69190E7B6A02
:102CA00003333A681344CAB21A707B6A04337B62F6
:102CB0000023BB617B68DB69BA699A4228D27B68D2
:102CC0005A6ABB699B0013441B681846FDF788FAD3
:102CD00078617B6A3A6813447969184600F066FCAB
:102CE0007B6A04337B627B6A3A68D0187B685A6AD5
:102CF000BB699B0013441B687A6919460BF016FBED
:102D00007A6A7B6913447B62BB690133BB61D1E79B
:102D10007B6A18462837BD4680BD80B58EB000AFAF
:102D20007860396000237B637B6B3A6813441B78BF
:102D30003B627B6B01333A6813441B781B023A6A8F
:102D400013433B627B6B02333A6813441B781B04CA
:102D50003A6A13433B627B6B03333A6813441B7834
:102D60001B063A6A13433B627B6B04337B637B68CD
:102D70005B683A6A9A420AD97B68DA683B6A9B00C8
:102D8000194610460CF04AF802467B68DA607B6808
:102D90003A6A5A6000233B637B685B683A6B9A42ED
:102DA00036D200237B617B697A6B39680A441278DA
:102DB00013437B617A697B6B013339680B441B7861
:102DC0001B0213437B617A697B6B023339680B44C6
:102DD0001B781B0413437B617A697B6B033339686F
:102DE0000B441B781B0613437B617A697B689A60EE
:102DF0007B6B04337B637B68DA683B6B9B0013441B
:102E00007A68083212681A603B6B01333B63C3E790
:102E10007B6B3A6813441B78FB617B6B01333A6828
:102E200013441B781B02FA691343FB617B6B02336B
:102E30003A6813441B781B04FA691343FB617B6BEC
:102E400003333A6813441B781B06FA691343FB618A
:102E50007B6B04337B637B681B69FA699A420AD9EE
:102E60007B689A69FB699B00194610460BF0D6FFF8
:102E700002467B689A617B68FA691A610023FB62EB
:102E80007B681B69FA6A9A4236D200233B613B6930
:102E90007A6B39680A44127813433B613A697B6B59
:102EA000013339680B441B781B0213433B613A69B9
:102EB0007B6B023339680B441B781B0413433B6163
:102EC0003A697B6B033339680B441B781B06134349
:102ED0003B613A697B685A617B6B04337B637B6837
:102EE0009A69FB6A9B0013447A68143212681A606C
:102EF000FB6A0133FB62C3E77B6B3A6813441B78C0
:102F0000BB617B6B01333A6813441B781B02BA69BF
:102F10001343BB617B6B02333A6813441B781B0479
:102F2000BA691343BB617B6B03333A6813441B7864
:102F30001B06BA691343BB617B6B04337B637B68FD
:102F4000DB69BA699A420AD97B685A6ABB699B00F5
:102F5000194610460BF062FF02467B685A627B6896
:102F6000BA69DA610023BB627B68DB69BA6A9A429C
:102F70003FD27B6B3A681A4407F10C03114618469E
:102F800000F032FB7B6B04337B637B6B7B627A6B81
:102F9000FB6813447A6A9A420CD23A687B6A1A44F4
:102FA0007B6A013B39680B4412781A707B6A0133E3
:102FB0007B62ECE77A6BFB681344013B3A6813448D
:102FC00000221A707B6B013B3A681A447B681A62D4
:102FD0007A6BFB6813447B637B685A6ABB6A9B000D
:102FE00013447A68203212681A60BB6A0133BB62EC
:102FF000BAE77B6B18463837BD4680BD80B483B0D6
:1030000000AF7860034B18460C37BD465DF8047B73
:10301000704700BF700F010880B483B000AF7860C4
:10302000034B18460C37BD465DF8047B704700BF64
:10303000D00E010880B485B000AFF860B9607A6046
:103040003B60FB68BA681A60FB687A685A60FB6884
:103050003A681A61FB6818461437BD465DF8047B70
:10306000704780B483B000AF78607B681B691846F6
:103070000C37BD465DF8047B704780B483B000AF69
:1030800078607B681B689B6B1B685B68C3F580631B
:10309000C3F3090318460C37BD465DF8047B70473F
:1030A00080B483B000AF78607B680A4A1A607B689E
:1030B0000022C3F804247B680022C3F808287B6838
:1030C0000022C3F80C287B6818460C37BD465DF813
:1030D000047B7047F803002080B582B000AF7860B1
:1030E0007B6818687B6804334FF48062194606F0E9
:1030F000B5FC00BF0837BD4680BD90B585B000AFB8
:1031000078604FF0FF33FB607B68D3F80444786845
:10311000FFF7B3FF03469C4214BF01230023DBB239
:10312000002B12D07B68D3F80434591C7A68C2F89B
:1031300004147A6813441B79FB607B68D3F8043469
:10314000C3F309027B68C3F80424FB6818461437EC
:10315000BD4690BD80B584B000AF78607B681B68C9
:1031600093F83D30DBB2202B08D1284B1B7883F03D
:103170000103DBB2002B01D0012300E00023002B70
:103180003FD0224B01221A707B68D3F808287B6855
:10319000D3F80C389A4231D07B68D3F80C287B687E
:1031A000D3F808389A420AD27B68D3F808389AB222
:1031B0007B68D3F80C389BB2D31A9BB206E07B68CD
:1031C000D3F80C389BB2C3F580639BB2FB817B685C
:1031D00018687B68D3F80C3803F581637A68134468
:1031E000FA89194606F0BCFB7B68D3F80C28FB89EA
:1031F0001344C3F309027B68C3F80C28034B002275
:103200001A7000BF1037BD4680BD00BF0C050020FE
:1032100080B586B000AFF860B9607A607B689BB219
:103220007B827B8AB3F5806F03D807F112031B887A
:1032300001E04FF480637B827B8A1A46FB68D3F8F7
:103240000838C3F58063934228BF13467B61FB684F
:10325000D3F8083803F58163FA6813447A69B968CA
:1032600018460BF063F8FB68D3F808387A8A1344E1
:10327000C3F30902FB68C3F808287B8A1A467B69F6
:1032800093420CD0FB6803F581607B69BA68D11862
:103290007B8A1A467B69D31A1A460BF047F8F868FE
:1032A000FFF758FF00BF1837BD4680BD80B582B01C
:1032B00000AF786001F0D2FB034618460837BD46E0
:1032C00080BD000080B582B000AF78607B68184692
:1032D000FFF770F8054A7B681A607B68044A5A60F9
:1032E0007B6818460837BD4680BD00BFA80F01089F
:1032F000540E010880B584B000AF786039600023B7
:10330000FB607B685B681846FCF76AFFB860FB6887
:103310003A681344B968184600F048F9FB6804336A
:10332000FB60FB683A68D0187B685B68BA6819462E
:103330000AF0FCFFFA68BB681344FB60FB681846A0
:103340001037BD4680BD80B586B000AF786039606B
:1033500000233B613B693A681A4407F10C031146AC
:10336000184600F041F93B6904333B613B697B61DE
:103370003A69FB6813447A699A420CD23A687B69CD
:103380001A447B69013B39680B4412781A707B69D7
:1033900001337B61ECE73A69FB681344013B3A680F
:1033A000134400221A703B69013B3A681A447B6857
:1033B0005A603A69FB6813443B613B691846183709
:1033C000BD4680BD80B483B000AF7860034B184623
:1033D0000C37BD465DF8047B704700BFF40E010852
:1033E00080B483B000AF7860034B18460C37BD46FD
:1033F0005DF8047B704700BF040F010880B483B000
:1034000000AF7860044A7B681A607B6818460C3706
:10341000BD465DF8047B7047C00F010880B582B0DF
:1034200000AF78607B681846FFF7E8FF454A7B6885
:103430001A607B6804331846FFF732FE7B6800226F
:10344000C3F814287B680022C3F818287B68002280
:10345000C3F81C287B680022C3F820287B6803F689
:1034600024034FF48062002118460AF06DFF7B6848
:1034700003F624434FF48062002118460AF064FFEB
:103480007B6803F5805324336422002118460AF038
:103490005BFF7B6803F58053883364220021184664
:1034A0000AF052FF7B6803F580531A460023C2F8E6
:1034B000EC307B6803F580531A460023C2F8F030E5
:1034C0007B6803F580531A460023C2F8F4307B680A
:1034D00003F580531A460023C2F8F8307B6803F5E1
:1034E00080531A460023C2F8FC307B6803F58053F2
:1034F000002283F800217B6803F580531A460023DD
:10350000C2F804317B6803F580531A460023C2F8E1
:1035100008317B6803F580531A460023C2F80C314A
:103520007B6803F58053002283F810217B6803F544
:10353000885314331846FFF7B1FA7B6818460837EA
:10354000BD4680BD940F010880B582B000AF7860A1
:10355000054800F06EF803461846FFF7FBFD00BF74
:103560000837BD4680BD00BF1005002080B582B081
:1035700000AF7860054800F05CF803461846FFF796
:10358000ABFD00BF0837BD4680BD00BF1005002061
:1035900080B400AF00BFBD465DF8047B704780B4C7
:1035A00000AF00BFBD465DF8047B704780B485B0B6
:1035B00000AF786039600023FB60FB68032B0DD8F7
:1035C000FB68DB003A6822FA03F17A68FB6813446F
:1035D000CAB21A70FB680133FB60EEE700BF143714
:1035E000BD465DF8047B704780B485B000AF78605D
:1035F00039607B6800221A600023FB60FB68032BA4
:1036000011D87B681B683968FA680A441278114639
:10361000FA68D20001FA02F21A437B681A60FB686A
:103620000133FB60EAE700BF1437BD465DF8047B59
:10363000704780B483B000AF78607B68043318466D
:103640000C37BD465DF8047B7047000080B582B042
:1036500000AF786039607B68012B10D13B684FF672
:10366000FF7293420BD10848FFF7D8FE0748FFF7D7
:1036700029FE0023054A06490648FFF7DBFC00BF88
:103680000837BD4680BD00BF100500204C16002045
:10369000280F01085416002080B588B000AFF860EC
:1036A000B9607A60BB68632B0BDDFB6803F5805360
:1036B00093F8003183F00103DBB2002B01D000232B
:1036C00079E07B681B681B68FA6802F624420732BF
:1036D0001146786898477861FB68FF2283F8242CAC
:1036E000FB68FE2283F8252C7B69DAB2FB6883F83D
:1036F000262C7B699BB21B0A9BB2DAB2FB6883F86B
:10370000272CFB6893F8262CFB6893F8273C13447E
:10371000DBB2DB43DAB2FB6883F8282CBB68DAB291
:10372000FB6883F8292CBB681BB21B121BB2DAB2F0
:10373000FB6883F82A2C0023FB610523BB617B69AE
:103740000633BA699A420DDCFA68BB69134403F682
:1037500024431B781A46FB691344FB61BB690133A0
:10376000BB61ECE77B6907337B61FB695A42DBB2E3
:10377000D2B258BF5342DAB27B69591C7961D24345
:10378000D1B2FA6813440A4683F8242C7B69B3F556
:10379000806F0ADCFB68181DFB6803F624437A6916
:1037A0001946FFF735FD7B6905E00549F86800F02B
:1037B00089FA4FF0FF3318462037BD4680BD00BF61
:1037C000300F010880B584B000AF78607B680433A7
:1037D0001846FFF76BFDF8607B6803F58053D3F85C
:1037E0000831FA68D31A42F6F822934205D97B6869
:1037F00003F58053002283F800217B6803F5805392
:10380000D3F8EC30002B0ED07B6803F58053D3F84F
:103810000C31FA689A4206D97B6803F580531A4640
:103820000023C2F8EC307B68D3F82038002B14D08A
:103830007B6804331846FFF739FD0246FB68D21A4D
:103840007B68D3F820389A428CBF01230023DBB277
:10385000002B02D06FF0010321E27B68043318468D
:10386000FFF74BFCB860BB68002BC0F2FA817B68A5
:1038700003F58053D3F8FC20BB6813447A6802F543
:103880008052C2F8FC307B6803F58053D3F8EC30EB
:10389000072B2BD17B6803F58053D3F8F8305A1CE3
:1038A000796801F58051C1F8F820BA68D1B27A6818
:1038B00013440A4683F824287B6803F58053D3F821
:1038C000F030013B7A6802F58052C2F8F0307B6834
:1038D00003F58053D3F8F030002BA4D17B6803F5B7
:1038E00080531A460823C2F8EC309CE77B6803F546
:1038F0008053D3F8EC30002B30D1BB68FF2B12D1B2
:103900007B6803F58053D3F8EC3001337A6802F515
:103910008052C2F8EC30FB6814337A6802F58052AA
:10392000C2F80C317FE77B6804331846FFF7BEFC12
:103930000246FB68D31A41F2883293428CBF0123BE
:103940000023DBB2002B3FF46EAF7B6803F580539E
:10395000002283F800216FF00103A0E17B6803F5EA
:103960008053D3F8EC30012B21D1BB68FE2B0BD157
:103970007B6803F58053D3F8EC3001337A6802F5A5
:103980008052C2F8EC304EE77B6803F580531A464C
:103990000023C2F8EC307B6803F5805393F80031C4
:1039A000002B7FF440AF786800F09AF93BE77B6822
:1039B00003F58053D3F8EC30022B20D17B6803F55C
:1039C00080531A46BB68C2F8F0307B6803F5805319
:1039D0001A460023C2F8F8307B6803F58053D3F809
:1039E000EC3001337A6802F58052C2F8EC307B6823
:1039F00003F580531A46BB68C2F8FC3013E77B68B6
:103A000003F58053D3F8EC30032B18D17B6803F512
:103A10008053D3F8F020BB681B0213447A6802F588
:103A20008052C2F8F0307B6803F58053D3F8EC3055
:103A300001337A6802F58052C2F8EC30F3E67B6815
:103A400003F58053D3F8EC30042B1FD17B6803F5CA
:103A50008053D3F8FC305A42DBB2D2B258BF534243
:103A6000FF2B0BD17B6803F58053D3F8EC30013387
:103A70007A6802F58052C2F8EC30D4E67B6803F530
:103A800080531A460023C2F8EC30CCE67B6803F57D
:103A90008053D3F8EC30052B19D17B6803F58053A4
:103AA0001A46BB68C2F8F4307B6803F58053D3F83C
:103AB000EC3001337A6802F58052C2F8EC307B6852
:103AC00003F580531A46BB68C2F8FC30ABE67B684E
:103AD00003F58053D3F8EC30062B23D17B6803F534
:103AE0008053D3F8F420BB681B0213447A6802F5B4
:103AF0008052C2F8F4307B6803F580531A460723DE
:103B0000C2F8EC307B6803F58053D3F8F030002B1B
:103B10007FF489AE7B6803F580531A460823C2F808
:103B2000EC3080E67B6803F58053D3F8EC30082B4B
:103B30007FF479AE7B6803F580531A460023C2F800
:103B4000EC307B6803F58053D3F8FC305A42DBB28B
:103B5000D2B258BF5342FF2B7FF465AE7B6803F5AA
:103B60008053D3F8F430002B16D1786800F0B8F801
:103B7000786800F0D3F87B6803F580531A46FB6839
:103B8000C2F804317B6803F580531A46FB68C2F81B
:103B900008314FF0FF3382E07B6803F58053D3F8A0
:103BA000F4300A2B07D17B6803F6240319467868A2
:103BB00000F096F937E67B6803F58053D3F8F430CC
:103BC000062B11D17B6803F5885314337A6802F60B
:103BD000240211461846FFF7A0F87B6803F58053CE
:103BE000012283F810211EE67B6803F58053D3F889
:103BF000F4300B2B06D17B6803F58053002283F849
:103C0000002110E67B6803F58053D3F8F430A3F16C
:103C100064027B6802F2224253F82230002B3FF408
:103C200002AE7B6803F58053D3F8F430A3F164024D
:103C30007B6802F2224253F822007B6803F580532E
:103C4000D3F8F430A3F164027B6802F2224253F805
:103C500022301B681B687A6802F6240211469847D6
:103C6000E1E500BF7B6803F5805393F80031002B3A
:103C700014D07B6803F58053D3F80431FA68D31A63
:103C800040F6C412934209D9786800F029F87B689D
:103C900003F580531A46FB68C2F804310023184626
:103CA0001037BD4680BD80B483B000AF78607B68BC
:103CB00003F5805393F8003118460C37BD465DF884
:103CC000047B704780B582B000AF786039603A6895
:103CD0000321786800F052F900BF0837BD4680BD67
:103CE00080B586B000AF786007F10C031846FEF788
:103CF00071FB7B681B681B6807F10C020A2178685E
:103D000098477B6804331846FFF7D0FA02467B6871
:103D1000C3F8142800BF1837BD4680BD90B58BB0DE
:103D200000AF786007F10C031846FEF743FC002350
:103D30007B627B6A182B63DC7A687B6A03F581639C
:103D40009B0013445B68002B56D07A687B6A03F5AE
:103D500081639B0013445B689B689BB23B827A68DB
:103D60007B6A03F581639B0013445B681B687B617E
:103D70007A687B6A03F581639B0013445B6859682A
:103D80007A687B6A03F581639B0013445B685B6818
:103D90001B6808331B68084698470346BB617A686E
:103DA0007B6A03F581639B0013445B6859687A68FA
:103DB0007B6A03F581639B0013445B685B681B6847
:103DC0000C331B68084698470346FB614FF4806339
:103DD0003B627B681B681C687A687B6A03F58163B9
:103DE0009B0013445B681846FFF73BF9014607F157
:103DF0000C031A467868A0477B6A01337B6298E718
:103E000000237B627B6A182B5FDC7B687A6A02F294
:103E1000224253F82230002B53D07B687A6A02F298
:103E2000224253F822305B689BB23B827B687A6AFD
:103E300002F2224253F822309B687B617B687A6AE7
:103E400002F2224253F822107B687A6A02F222427E
:103E500053F822301B6808331B680846984703460E
:103E6000BB617B687A6A02F2224253F822107B68B7
:103E70007A6A02F2224253F822301B680C331B6824
:103E8000084698470346FB614FF480633B627B68BA
:103E90001B681C687B687A6A02F2224253F822107F
:103EA0007B687A6A02F2224253F822301B6804339C
:103EB0001B6808469847014607F10C031A467868C4
:103EC000A0477B6A01337B629CE77B6803F58053E4
:103ED000012283F8002100BF2C37BD4690BD0000B1
:103EE00080B586B000AF7860396007F108031846E6
:103EF000FEF770FA7B6804331846FFF7D7F90246DD
:103F00007B68D3F81438D31A7B6107F1080339684A
:103F10001846FEF7CFFAFA687B691649A1FB03132E
:103F20009B091344FB6039697A69124BA3FB0203B6
:103F30009B094FF47A7000FB03F3D31A0E4A02FB7D
:103F400003F30B443B6107F1080304331946786817
:103F500000F030F87B6804331846FFF7A7F90246F3
:103F60007B6803F58053C3F8082100BF1837BD46AE
:103F700080BD00BFD34D621040420F0080B588B0B5
:103F800000AFF8600B467A60FB7207F11403184625
:103F9000FEF7D4FCFB7A3B767B68FB61FB681B6811
:103FA0001B6807F114020721F868984700BF203703
:103FB000BD4680BD80B584B000AF786039607B6855
:103FC00004331846FFF772F9F8603B681A68FB681B
:103FD0001549A1FB03139B09D31A5A1E7B68C3F82A
:103FE00018283B685968FA680F4BA3FB02039B092A
:103FF0004FF47A7000FB03F3D31A0C4A02FB03F36D
:10400000CA1A0B4B13447A68C2F81C387B6803F653
:1040100018027B6803F61C031946104600F062FC88
:1040200000BF1037BD4680BDD34D621040420F0027
:1040300000CA9A3B80B500AF4FF6FF710120FFF731
:1040400005FB80BD80B582B000AF00237B60104BC4
:104050005B6C0F4A43F4804353640D4B5B6C03F479
:1040600080437B607B6800233B60094B1B6C084AE4
:1040700043F080531364064B1B6C03F080533B608A
:104080003B68072000F0EAFD00BF0837BD4680BD51
:104090000038024080B58AB000AF786007F11403A1
:1040A00000221A605A609A60DA601A617B681B68A5
:1040B000194A93422CD100233B61184B1B6B174AC2
:1040C00043F002031363154B1B6B03F002033B61C8
:1040D0003B694FF410737B611223BB610123FB61C9
:1040E00000233B6204237B6207F1140319460C484A
:1040F00001F0F8F90023FB60084B1B6C074A43F4FE
:1041000000131364054B1B6C03F40013FB60FB6886
:1041100000BF2837BD4680BD005400400038024033
:104120000004024080B58EB000AF786007F1240330
:1041300000221A605A609A60DA601A617B681B6814
:10414000594A93425BD100233B62584B1B6C574A40
:1041500043F480431364554B1B6C03F480433B6270
:104160003B6A0023FB61514B1B6B504A43F0040335
:1041700013634E4B1B6B03F00403FB61FB690023CD
:10418000BB614A4B1B6B494A43F002031363474B25
:104190001B6B03F00203BB61BB6904237B62022338
:1041A000BB620023FB6200233B6306237B6307F1B2
:1041B000240319463E4801F095F908237B62022347
:1041C000BB620023FB6200233B6305237B6307F193
:1041D00024031946364801F085F94FF4A0537B6259
:1041E0000223BB620023FB6200233B6305237B6346
:1041F00007F1240319462F4801F074F94FE07B685A
:104200001B682D4A93424AD100237B61274B1B6CCC
:10421000264A43F400431364244B1B6C03F400430D
:104220007B617B6900233B61204B1B6B1F4A43F082
:10423000010313631D4B1B6B03F001033B613B69DF
:104240000023FB60194B1B6B184A43F004031363F4
:10425000164B1B6B03F00403FB60FB6810237B62AF
:104260000223BB620023FB6200233B6306237B63C4
:1042700007F124031946114801F034F94FF4A4530F
:104280007B620223BB620023FB6200233B630623A5
:104290007B6307F124031946054801F023F900BFA9
:1042A0003837BD4680BD00BF0038004000380240AE
:1042B0000008024000040240003C004000000240B0
:1042C00080B58AB000AF786007F1140300221A604D
:1042D0005A609A60DA601A617B681B68194A9342D7
:1042E0002BD100233B61184B5B6C174A43F480537E
:1042F0005364154B5B6C03F480533B613B690023B3
:10430000FB60114B1B6B104A43F0010313630E4B10
:104310001B6B03F00103FB60FB68E0237B6102235E
:10432000BB610023FB6103233B6205237B6207F132
:1043300014031946054801F0D5F800BF2837BD46DB
:1043400080BD00BF00300140003802400000024044
:1043500080B584B000AF78607B681B68B3F1804F94
:1043600016D10023FB601A4B1B6C194A43F0010362
:104370001364174B1B6C03F00103FB60FB68022204
:1043800000211C2000F075FC1C2000F08EFC1AE0BF
:104390007B681B680F4A934215D10023BB600C4B0E
:1043A0001B6C0B4A43F002031364094B1B6C03F0B4
:1043B0000203BB60BB68032200211D2000F059FCF2
:1043C0001D2000F072FC00BF1037BD4680BD00BF4D
:1043D000003802400004004080B58AB000AF786029
:1043E00007F1140300221A605A609A60DA601A61B9
:1043F0007B681B68214A93423BD100233B61204BE1
:104400001B6B1F4A43F0020313631D4B1B6B03F02E
:1044100002033B613B690023FB60194B1B6B184A8D
:1044200043F004031363164B1B6B03F00403FB60A0
:10443000FB6801237B610223BB610023FB61002336
:104440003B6202237B6207F1140319460D4801F019
:1044500049F840237B610223BB610023FB610023F9
:104460003B6202237B6207F114031946064801F000
:1044700039F800BF2837BD4680BD00BF00040040AA
:1044800000380240000402400008024080B58AB0B3
:1044900000AF786007F1140300221A605A609A6036
:1044A000DA601A617B681B685B4A934240F0AF8018
:1044B00000233B61594B5B6C584A43F01003536433
:1044C000564B5B6C03F010033B613B690023FB60C0
:1044D000524B1B6B514A43F0010313634F4B1B6B51
:1044E00003F00103FB60FB680023BB604B4B1B6BBD
:1044F0004A4A43F002031363484B1B6B03F0020369
:10450000BB60BB684FF400437B610223BB610023A7
:10451000FB6103233B6207237B6207F11403194607
:104520003F4800F0DFFF80237B610223BB61002353
:10453000FB6103233B6207237B6207F114031946E7
:10454000384800F0CFFF384B384A1A60364B4FF0EE
:1045500000625A60344B00229A60334B0022DA60CA
:10456000314B4FF480621A612F4B00225A612E4B5F
:1045700000229A612C4B0022DA612B4B00221A6236
:10458000294B00225A62284800F0AAFB0346002B60
:1045900001D0FDF7F9FE7B68234A9A63224A7B68C3
:1045A0009363234B234A1A60214B4FF000625A60F9
:1045B0001F4B40229A601E4B0022DA601C4B4FF4C6
:1045C00080621A611A4B00225A61194B00229A61CB
:1045D000174B0022DA61164B00221A62144B00229C
:1045E0005A62134800F07CFB0346002B01D0FDF714
:1045F000CBFE7B680E4A5A630D4A7B6893630022A8
:104600000021252000F035FB252000F04EFB00BFE7
:104610002837BD4680BD00BF001001400038024071
:1046200000000240000402403C04002040640240BC
:104630009C040020B864024080B400AFFEE780B460
:1046400000AFFEE780B400AFFEE780B400AFFEE746
:1046500080B400AFFEE780B400AF00BFBD465DF898
:10466000047B704780B400AF00BFBD465DF8047B9B
:10467000704780B400AF00BFBD465DF8047B704753
:1046800080B500AF00F0D6F900BF80BD80B500AFA7
:10469000024804F00FFB00BF80BD00BF680300208C
:1046A00080B500AF024804F005FB00BF80BD00BF2D
:1046B000B003002080B500AF024805F0FFF900BF4D
:1046C00080BD00BFF803002080B500AF4FF48060CC
:1046D00001F0BEF84FF4006001F0BAF84FF48050DA
:1046E00001F0B6F84FF4005001F0B2F84FF400407A
:1046F00001F0AEF800BF80BD80B500AF024800F009
:1047000087FC00BF80BD00BF3C04002080B500AF27
:10471000024801F01FFB00BF80BD00BFB01A00209F
:1047200080B500AF024800F073FC00BF80BD00BF41
:104730009C04002080B400AF01231846BD465DF8FC
:10474000047B704780B582B000AF7860396009F0B3
:10475000B3FD034616221A604FF0FF3318460837A0
:10476000BD4680BD80B582B000AF78604FF0FF31AC
:104770007868FFF7E7FFFEE780B586B000AFF86026
:10478000B9607A6000237B610AE0AFF300800146E4
:10479000BB685A1CBA60CAB21A707B6901337B616C
:1047A0007A697B689A42F0DB7B6818461837BD4609
:1047B00080BD80B586B000AFF860B9607A60002334
:1047C0007B6109E0BB685A1CBA601B781846AFF3DE
:1047D00000807B6901337B617A697B689A42F1DBF7
:1047E0007B6818461837BD4680BD80B483B000AFE3
:1047F00078604FF0FF3318460C37BD465DF8047BF8
:10480000704780B483B000AF786039603B684FF484
:1048100000525A60002318460C37BD465DF8047BF1
:10482000704780B483B000AF7860012318460C371E
:10483000BD465DF8047B704780B485B000AFF8607A
:10484000B9607A60002318461437BD465DF8047BD2
:104850007047000080B586B000AF7860144A154BF1
:10486000D31A7B617B693B61134B1B68002B02D120
:10487000114B124A1A60104B1A687B6813443A694C
:104880009A4207D209F018FD03460C221A604FF035
:10489000FF3309E0084B1B68FB60074B1A687B6815
:1048A0001344054A1360FB6818461837BD4680BD9F
:1048B000000002200004000068160020B81D00203F
:1048C00080B400AF064BD3F88830054A43F4700338
:1048D000C2F8883000BFBD465DF8047B704700BF5A
:1048E00000ED00E080B485B000AF786039603B68CF
:1048F0001B685A0A0F49A1FB0212D2090E4901FB9B
:1049000002F29B1AFB603B681B685B0A094AA2FB28
:104910000323DB09BB607B681A68BB681A447B68A9
:104920001A603B68FA681A6000BF1437BD465DF82C
:10493000047B7047834B040000CA9A3BDFF834D0F5
:104940000D480E490E4A002302E0D458C4500433E7
:10495000C4188C42F9D30B4A0B4C002301E01360BE
:104960000432A242FBD3FFF7ABFF09F0ABFCFDF72B
:10497000A5F870470000022000000020040200207B
:104980005014010804020020B41D0020FEE70000BE
:1049900080B500AF0E4B1B680D4A43F400731360E3
:1049A0000B4B1B680A4A43F480631360084B1B6877
:1049B000074A43F480731360032000F04FF900208E
:1049C00000F008F8FFF73EFB0023184680BD00BF4B
:1049D000003C024080B582B000AF7860124B1A688C
:1049E000124B1B7819464FF47A73B3FBF1F3B2FB09
:1049F000F3F3184600F067F90346002B01D00123BA
:104A00000EE07B680F2B0AD8002279684FF0FF3048
:104A100000F02FF9064A7B681360002300E00123B1
:104A200018460837BD4680BD040000200C00002059
:104A30000800002080B400AF064B1B781A46064BD6
:104A40001B681344044A136000BFBD465DF8047B35
:104A5000704700BF0C000020D416002080B400AFC7
:104A6000034B1B681846BD465DF8047B704700BFCA
:104A7000D416002080B584B000AF7860FFF7EEFF59
:104A8000B8607B68FB60FB68B3F1FF3F05D00A4B61
:104A90001B781A46FB681344FB6000BFFFF7DEFF7C
:104AA0000246BB68D31AFA689A42F7D800BF00BF23
:104AB0001037BD4680BD00BF0C00002080B485B01B
:104AC00000AF78607B6803F00703FB600C4BDB688A
:104AD000BB60BA684FF6FF031340BB60FB681A0265
:104AE000BB68134343F0BF6343F40033BB60044A25
:104AF000BB68D36000BF1437BD465DF8047B7047C8
:104B000000ED00E080B400AF044BDB681B0A03F04B
:104B100007031846BD465DF8047B704700ED00E0D2
:104B200080B483B000AF0346FB7197F90730002BC8
:104B30000BDBFB7903F01F02074997F907305B098C
:104B4000012000FA02F241F8232000BF0C37BD46D5
:104B50005DF8047B704700BF00E100E080B483B0E3
:104B600000AF03463960FB7197F90730002B0ADB71
:104B70003B68DAB20C4997F907301201D2B20B4404
:104B800083F800230AE03B68DAB20849FB7903F0B6
:104B90000F03043B1201D2B20B441A7600BF0C374C
:104BA000BD465DF8047B704700E100E000ED00E0E9
:104BB00080B489B000AFF860B9607A60FB6803F038
:104BC0000703FB61FB69C3F10703042B28BF042320
:104BD000BB61FB690433062B02D9FB69033B00E090
:104BE00000237B614FF0FF32BB6902FA03F3DA4323
:104BF000BB681A407B699A404FF0FF317B6901FA2C
:104C000003F3D9437B680B40134318462437BD4652
:104C10005DF8047B7047000080B582B000AF78601B
:104C20007B68013BB3F1807F01D301230FE00A4A87
:104C30007B68013B53600F214FF0FF30FFF78EFF81
:104C4000054B00229A60044B07221A600023184685
:104C50000837BD4680BD00BF10E000E080B582B0DF
:104C600000AF78607868FFF729FF00BF0837BD46BE
:104C700080BD80B586B000AF0346B9607A60FB7333
:104C800000237B61FFF73EFF78617A68B968786935
:104C9000FFF78EFF024697F90F3011461846FFF7CF
:104CA0005DFF00BF1837BD4680BD80B582B000AF44
:104CB0000346FB7197F907301846FFF731FF00BF35
:104CC0000837BD4680BD80B582B000AF7860786897
:104CD000FFF7A2FF034618460837BD4680BD000017
:104CE00080B586B000AF786000237B61FFF7B6FE29
:104CF00038617B68002B01D1012399E07B68022297
:104D000083F835207B68002283F834207B681B6899
:104D10001A687B681B6822F001021A600FE0FFF737
:104D20009DFE02463B69D31A052B08D97B682022D9
:104D30005A657B68032283F83520032378E07B687B
:104D40001B681B6803F00103002BE8D17B681B681C
:104D50001B687B617A69384B13407B617B685A68BA
:104D60007B689B681A437B68DB681A437B681B6916
:104D70001A437B685B691A437B689B691A437B68AB
:104D8000DB691A437B681B6A13437A6913437B61AF
:104D90007B685B6A042B07D17B68DA6A7B681B6BD4
:104DA00013437A6913437B617B681B687A691A60D5
:104DB0007B681B685B697B617B6923F007037B6110
:104DC0007B685B6A7A6913437B617B685B6A042B4F
:104DD00017D17B689B6A7A6913437B617B68DB6AC6
:104DE000002B0ED0786800F001FB0346002B08D0A2
:104DF0007B6840225A657B68012283F835200123B5
:104E000016E07B681B687A695A61786800F0B8FA26
:104E10000346FB607B68DB6D3F229A40FB689A602B
:104E20007B6800225A657B68012283F835200023C5
:104E300018461837BD4680BD3F8010F080B586B05B
:104E400000AFF860B9607A603B600023FB75FB68D7
:104E50009B6D3B61FB6893F83430012B01D1022339
:104E600040E0FB68012283F83420FB6893F835307A
:104E7000DBB2012B2FD1FB68022283F83520FB68BF
:104E800000225A653B687A68B968F86800F04AFA07
:104E9000FB68DB6D3F229A403B699A60FB681B68A8
:104EA0001A68FB681B6842F016021A60FB681B6CEC
:104EB000002B07D0FB681B681A68FB681B6842F070
:104EC00008021A60FB681B681A68FB681B6842F0DE
:104ED00001021A6005E0FB68002283F834200223F7
:104EE000FB75FB7D18461837BD4680BD80B584B084
:104EF00000AF78607B689B6DFB60FFF7AFFDB8602B
:104F00007B6893F83530DBB2022B08D07B688022B7
:104F10005A657B68002283F83420012352E07B68C5
:104F20001B681A687B681B6822F016021A607B688F
:104F30001B685A697B681B6822F080025A617B6893
:104F40001B6C002B03D17B689B6C002B07D07B680C
:104F50001B681A687B681B6822F008021A607B686D
:104F60001B681A687B681B6822F001021A6013E054
:104F7000FFF774FD0246BB68D31A052B0CD97B687A
:104F800020225A657B68032283F835207B68002243
:104F900083F83420032315E07B681B681B6803F04B
:104FA0000103002BE4D17B68DB6D3F229A40FB6854
:104FB0009A607B68012283F835207B68002283F8A1
:104FC0003420002318461037BD4680BD80B483B01E
:104FD00000AF78607B6893F83530DBB2022B04D0E9
:104FE0007B6880225A6501230CE07B68052283F8E8
:104FF00035207B681B681A687B681B6822F00102F9
:105000001A60002318460C37BD465DF8047B7047D4
:1050100080B586B000AF78600023BB608E4B1B6804
:105020008E4AA2FB03239B0A7B617B689B6D3B61DD
:105030003B691B68FB607B68DB6D08229A40FB685C
:105040001340002B1AD07B681B681B6803F0040315
:10505000002B13D07B681B681A687B681B6822F0E2
:1050600004021A607B68DB6D08229A403B699A60F3
:105070007B685B6D43F001027B685A657B68DB6D82
:1050800001229A40FB681340002B12D07B681B68FA
:105090005B6903F08003002B0BD07B68DB6D012282
:1050A0009A403B699A607B685B6D43F002027B68C3
:1050B0005A657B68DB6D04229A40FB681340002B25
:1050C00012D07B681B681B6803F00203002B0BD017
:1050D0007B68DB6D04229A403B699A607B685B6D5C
:1050E00043F004027B685A657B68DB6D10229A40AE
:1050F000FB681340002B43D07B681B681B6803F0E0
:105100000803002B3CD07B68DB6D10229A403B6982
:105110009A607B681B681B6803F48023002B18D0FF
:105120007B681B681B6803F40023002B08D17B6895
:105130001B6C002B24D07B681B6C786898471FE0A1
:105140007B689B6C002B1BD07B689B6C78689847B6
:1051500016E07B681B681B6803F48073002B07D183
:105160007B681B681A687B681B6822F008021A605B
:105170007B681B6C002B03D07B681B6C786898479E
:105180007B68DB6D20229A40FB681340002B00F007
:105190008F807B681B681B6803F01003002B00F0F6
:1051A00087807B68DB6D20229A403B699A607B6830
:1051B00093F83530DBB2052B36D17B681B681A6853
:1051C0007B681B6822F016021A607B681B685A69AC
:1051D0007B681B6822F080025A617B681B6C002B85
:1051E00003D17B689B6C002B07D07B681B681A6817
:1051F0007B681B6822F008021A607B68DB6D3F2227
:105200009A403B699A607B68012283F835207B686D
:10521000002283F834207B681B6D002B7ED07B68D6
:105220001B6D7868984779E07B681B681B6803F4FE
:105230008023002B1DD07B681B681B6803F40023B0
:10524000002B0DD17B685B6C002B31D07B685B6CD5
:10525000786898472CE000BF04000020B5814E1B01
:105260007B68DB6B002B23D07B68DB6B786898470F
:105270001EE07B681B681B6803F48073002B0FD152
:105280007B681B681A687B681B6822F010021A6032
:105290007B68012283F835207B68002283F8342064
:1052A0007B68DB6B002B03D07B68DB6B78689847EF
:1052B0007B685B6D002B32D07B685B6D03F0010374
:1052C000002B22D07B68052283F835207B681B6881
:1052D0001A687B681B6822F001021A60BB68013300
:1052E000BB607A699A4207D37B681B681B6803F02E
:1052F0000103002BF2D100E000BF7B68012283F89C
:1053000035207B68002283F834207B68DB6C002B1F
:1053100005D07B68DB6C7868984700E000BF1837E1
:10532000BD4680BD80B485B000AFF860B9607A60DA
:105330003B60FB681B681A68FB681B6822F48022CC
:105340001A60FB681B683A685A60FB689B68402BD0
:1053500008D1FB681B687A689A60FB681B68BA68AA
:10536000DA6007E0FB681B68BA689A60FB681B6834
:105370007A68DA6000BF1437BD465DF8047B704779
:1053800080B485B000AF78607B681B68DBB2103BEF
:10539000144AA2FB03231B09FB60134AFB68134456
:1053A0001B781A467B68DA65FB68032B09D97B6892
:1053B0001B6823F47F7323F003031A1D7B689A652F
:1053C00007E07B681B6823F47F7323F003037A688C
:1053D00093657B689B6D18461437BD465DF8047B6A
:1053E000704700BFABAAAAAA5C10010880B485B0C0
:1053F00000AF78600023FB737B689B6ABB607B68AF
:105400009B69002B1FD1BB68032B56D801A252F811
:1054100023F000BF25540008375400082554000825
:10542000BB5400087B68DB6A03F08073002B46D016
:105430000123FB7343E07B68DB6AB3F1C07F40D19B
:105440000123FB733DE07B689B69B3F5005F21D1CD
:10545000BB68032B37D801A252F823F06D54000823
:10546000735400086D540008855400080123FB7331
:1054700030E07B68DB6A03F08073002B25D00123CA
:10548000FB7322E07B68DB6AB3F1C07F1FD101238D
:10549000FB731CE0BB68022B03D9BB68032B03D052
:1054A00018E00123FB7315E07B68DB6A03F080736F
:1054B000002B0ED00123FB730BE000BF0AE000BFFE
:1054C00008E000BF06E000BF04E000BF02E000BF4C
:1054D00000E000BFFB7B18461437BD465DF8047B37
:1054E000704700BF80B489B000AF78603960002396
:1054F0007B6100233B610023BB610023FB6159E119
:105500000122FB6902FA03F37B613B681B687A693D
:1055100013403B613A697B699A4240F048813B689D
:105520005B6803F00303012B05D03B685B6803F065
:105530000303022B30D17B689B68BB61FB695B0076
:10554000032202FA03F3DB43BA691340BB613B68F1
:10555000DA68FB695B0002FA03F3BA691343BB61C3
:105560007B68BA699A607B685B68BB610122FB69F2
:1055700002FA03F3DB43BA691340BB613B685B6823
:105580001B0903F00102FB6902FA03F3BA69134332
:10559000BB617B68BA695A603B685B6803F00303D0
:1055A000032B17D07B68DB68BB61FB695B000322C0
:1055B00002FA03F3DB43BA691340BB613B689A68A4
:1055C000FB695B0002FA03F3BA691343BB617B68B2
:1055D000BA69DA603B685B6803F00303022B23D1EE
:1055E000FB69DA087B68083253F82230BB61FB693B
:1055F00003F007039B000F2202FA03F3DB43BA69AF
:105600001340BB613B681A69FB6903F007039B0009
:1056100002FA03F3BA691343BB61FB69DA087B68DA
:105620000832B96943F822107B681B68BB61FB69CB
:105630005B00032202FA03F3DB43BA691340BB6148
:105640003B685B6803F00302FB695B0002FA03F34B
:10565000BA691343BB617B68BA691A603B685B68CF
:1056600003F44033002B00F0A2800023FB60574B73
:105670005B6C564A43F480435364544B5B6C03F4B5
:105680008043FB60FB68524AFB699B08023352F877
:105690002330BB61FB6903F003039B000F2202FA76
:1056A00003F3DB43BA691340BB617B68494A934209
:1056B00019D07B68484A934213D07B68474A93428B
:1056C0000DD07B68464A934207D07B68454A934297
:1056D00001D1042308E0072306E0032304E00223AA
:1056E00002E0012300E00023FA6902F003029200C5
:1056F0009340BA691343BB613549FB699B08023388
:10570000BA6941F82320384B9B68BB613B69DB4396
:10571000BA691340BB613B685B6803F48013002BDC
:1057200003D0BA693B691343BB612F4ABB699360DD
:105730002D4BDB68BB613B69DB43BA691340BB613E
:105740003B685B6803F40013002B03D0BA693B6924
:105750001343BB61244ABB69D360234B5B68BB61C5
:105760003B69DB43BA691340BB613B685B6803F488
:105770000033002B03D0BA693B691343BB611A4A5B
:10578000BB695360184B1B68BB613B69DB43BA695B
:105790001340BB613B685B6803F48033002B03D08C
:1057A000BA693B691343BB610F4ABB691360FB696C
:1057B0000133FB61FB690F2B7FF6A2AE00BF00BF78
:1057C0002437BD465DF8047B704700BF00380240B7
:1057D000003801400000024000040240000802407E
:1057E000000C024000100240003C014080B485B033
:1057F00000AF78600B467B807B681A697B8813401A
:10580000002B02D00123FB7301E00023FB73FB7B21
:1058100018461437BD465DF8047B704780B483B0EA
:1058200000AF78600B467B8013467B707B78002B43
:1058300003D07A887B689A6103E07B881A047B68CE
:105840009A6100BF0C37BD465DF8047B70470000CD
:1058500080B582B000AF0346FB80084B5A69FB88D5
:105860001340002B06D0054AFB885361FB8818467D
:10587000FBF774FB00BF0837BD4680BD003C01400C
:10588000F0B58FB00AAF78607B68002B01D101239F
:1058900054E07B681B68FB607B6893F8F932DBB2ED
:1058A000002B06D17B68002283F8F822786808F084
:1058B00017FA7B68032283F8F922FB68DB6B03F499
:1058C0008073002B02D17B6800221A617B681B6801
:1058D000184605F045FA7B681B683B607E686D469C
:1058E00006F110040FCC0FC50FCC0FC594E80300D0
:1058F00085E80300331D0ECB386805F0BFF97B68DF
:105900001B680121184605F03CFA7B681B683B6068
:105910007E686D4606F110040FCC0FC50FCC0FC585
:1059200094E8030085E80300331D0ECB386805F0CA
:10593000C5FB7B68012283F8F9220023184614373F
:10594000BD46F0BD90B589B004AF786008461146F9
:105950001A460346FB700B46BB7013467B707B6890
:1059600093F8F832012B01D1022376E07B68012203
:1059700083F8F822FB787A682C2101FB03F31344A7
:105980003D3300221A70FB787A682C2101FB03F367
:10599000134438337A781A70FB787A682C2101FB2B
:1059A00003F3134440333A8D1A80FB787A682C2134
:1059B00001FB03F313443933FA781A70FB787A68E1
:1059C0002C2101FB03F313443F3397F824201A7072
:1059D000FB78BA7802F07F02D0B27A682C2101FB02
:1059E00003F313443A3302461A7097F90230002B3E
:1059F00009DAFB787A682C2101FB03F313443B336B
:105A000001221A7008E0FB787A682C2101FB03F36D
:105A100013443B3300221A70FB787A682C2101FB77
:105A200003F313443C3397F820201A707B681868FE
:105A30007C78BA78F9783B8D029397F824300193FB
:105A400097F820300093234605F0BEFC0346FB7315
:105A50007B68002283F8F822FB7B18461437BD468A
:105A600090BD80B584B000AF78600B46FB7000231A
:105A7000FB737B6893F8F832012B01D102230FE00E
:105A80007B68012283F8F8227B681B68FA7811464C
:105A9000184605F00EFF7B68002283F8F822FB7B96
:105AA00018461037BD4680BD80B582B000AF786023
:105AB000084611461A460346FB700B46BB70134658
:105AC0007B70FB787A682C2101FB03F313443B3392
:105AD000BA781A70FB787A682C2101FB03F313441F
