:020000040800F2
:10000000000002201D580008195500081F5500085F
:10001000255500082B550008315500080000000048
:10002000000000000000000000000000375500083C
:1000300045550008000000005355000861550008B0
:100040006D5800086D5800086D5800086D5800087C
:100050006D5800086D5800086D5800086D5800086C
:100060006D5800086D5800086D5800086D5800085C
:100070006D5800086D5800086D5800086D5800084C
:100080006D5800086D5800086D5800080000000009
:100090000000000000000000000000006D58000893
:1000A0006D5800086D5800086D5800086D5800081C
:1000B0006D550008815500086D5800086D580008FE
:1000C0006D5800086D5800086D5800086D580008FC
:1000D0006D580008955500086D5800080000000094
:1000E000A95500086D5800086D5800080000000070
:1000F0000000000000000000000000006D58000833
:10010000000000006D5800086D5800086D58000888
:1001100000000000000000000000000000000000DF
:100120006D5800086D580008D95500086D58000832
:100130006D580008000000000000000000000000F2
:10014000000000000000000000000000ED55000865
:100150006D5800086D580008015600086D580008D9
:100160006D5800086D5800080000000000000000F5
:10017000000000000000000000000000000000007F
:10018000000000006D5800080000000000000000A2
:080190006D5800086D580008CD
:1001A00010B5054C237833B9044B13B10448AFF3B1
:1001B00000800123237010BD180200200000000001
:1001C000D81C010808B5034B1BB103490348AFF322
:1001D000008008BD000000001C020020D81C01089F
:1001E000034613F8012B002AFBD1181A0138704777
:1001F00001F0FF01102A2BDB10F0070F08D010F8D8
:10020000013B013A8B422DD010F0070F42B3F6D1DB
:10021000F0B441EA012141EA014122F007047FF0F4
:1002200000070023F0E80256083C85EA010586EA4B
:10023000010685FA47F5A3FA87F586FA47F6A5FA87
:1002400087F68EB9EED1F0BC01F0FF0102F0070293
:1002500032B110F8013B013A83EA010313B1F8D13E
:100260000020704701387047002D06BF354603381F
:10027000073815F0010F07D1013015F4807F02BF58
:10028000013015F4C03F0130F0BC0138704700BFA9
:1002900081F0004102E000BF83F0004330B54FEA37
:1002A00041044FEA430594EA050F08BF90EA020FA4
:1002B0001FBF54EA000C55EA020C7FEA645C7FEA37
:1002C000655C00F0E2804FEA5454D4EB5555B8BF5A
:1002D0006D420CDD2C4480EA020281EA030382EACB
:1002E000000083EA010180EA020281EA0303362D5D
:1002F00088BF30BD11F0004F4FEA01314FF4801C30
:100300004CEA113102D0404261EB410113F0004F41
:100310004FEA03334CEA133302D0524263EB4303F8
:1003200094EA050F00F0A780A4F10104D5F1200E96
:100330000DDB02FA0EFC22FA05F2801841F10001F1
:1003400003FA0EF2801843FA05F359410EE0A5F1C5
:1003500020050EF1200E012A03FA0EFC28BF4CF0F6
:10036000020C43FA05F3C01851EBE37101F00045AC
:1003700007D54FF0000EDCF1000C7EEB00006EEBB9
:100380000101B1F5801F1BD3B1F5001F0CD3490843
:100390005FEA30004FEA3C0C04F101044FEA44529A
:1003A00012F5800F80F09A80BCF1004F08BF5FEA21
:1003B000500C50F1000041EB045141EA050130BD01
:1003C0005FEA4C0C404141EB0101013C28BFB1F513
:1003D000801FE9D291F0000F04BF01460020B1FA5E
:1003E00081F308BF2033A3F10B03B3F120020CDA31
:1003F0000C3208DD02F1140CC2F10C0201FA0CF00F
:1004000021FA02F10CE002F11402D8BFC2F1200C73
:1004100001FA02F120FA0CFCDCBF41EA0C01904029
:10042000E41AA2BF01EB0451294330BD6FEA040472
:100430001F3C1CDA0C340EDC04F11404C4F120025D
:1004400020FA04F001FA02F340EA030021FA04F36F
:1004500045EA030130BDC4F10C04C4F1200220FAC6
:1004600002F001FA04F340EA0300294630BD21FA04
:1004700004F0294630BD94F0000F83F4801306BFCA
:1004800081F480110134013D4EE77FEA645C18BFBE
:100490007FEA655C29D094EA050F08BF90EA020F55
:1004A00005D054EA000C04BF1946104630BD91EA4D
:1004B000030F1EBF0021002030BD5FEA545C05D150
:1004C0004000494128BF41F0004130BD14F580048F
:1004D0003CBF01F5801130BD01F0004545F0FE4103
:1004E00041F470014FF0000030BD7FEA645C1ABF38
:1004F000194610467FEA655C1CBF0B46024650EA6F
:10050000013406BF52EA033591EA030F41F400219A
:1005100030BD00BF90F0000F04BF0021704730B520
:100520004FF4806404F132044FF000054FF00001F5
:1005300050E700BF90F0000F04BF0021704730B5B6
:100540004FF4806404F1320410F0004548BF40428B
:100550004FF000013EE700BF42004FEAE2014FEAE0
:1005600031014FEA02701FBF12F07F4393F07F4FBB
:1005700081F06051704732F07F4208BF704793F0BE
:100580007F4F04BF41F40021704730B54FF46074D1
:1005900001F0004521F000411CE700BF50EA0102D4
:1005A00008BF704730B54FF000050AE050EA01027D
:1005B00008BF704730B511F0004502D5404261EBED
:1005C00041014FF4806404F132045FEA915C3FF42E
:1005D000D8AE4FF003025FEADC0C18BF03325FEACB
:1005E000DC0C18BF033202EBDC02C2F1200300FA7C
:1005F00003FC20FA02F001FA03FE40EA0E0021FAA1
:1006000002F11444BDE600BF70B54FF0FF0C4CF48E
:10061000E06C1CEA11541DBF1CEA135594EA0C0F40
:1006200095EA0C0F00F0DEF82C4481EA030621EA7B
:100630004C5123EA4C5350EA013518BF52EA0335B6
:1006400041F4801143F4801338D0A0FB02CE4FF068
:100650000005E1FB02E506F00042E0FB03E54FF098
:100660000006E1FB03569CF0000F18BF4EF0010E90
:10067000A4F1FF04B6F5007F64F5407404D25FEA8C
:100680004E0E6D4146EB060642EAC62141EA55513F
:100690004FEAC52040EA5E504FEACE2EB4F1FD0C81
:1006A00088BFBCF5E06F1ED8BEF1004F08BF5FEAFF
:1006B000500E50F1000041EB045170BD06F00046B1
:1006C00046EA010140EA020081EA0301B4EB5C045E
:1006D000C2BFD4EB0C0541EA045170BD41F4801156
:1006E0004FF0000E013C00F3AB8014F1360FDEBF7B
:1006F000002001F0004170BDC4F10004203C35DA57
:100700000C341BDC04F11404C4F1200500FA05F3D9
:1007100020FA04F001FA05F240EA020001F000427A
:1007200021F0004110EBD37021FA04F642EB0601F0
:100730005EEA430E08BF20EAD37070BDC4F10C041A
:10074000C4F1200500FA04F320FA05F001FA04F2DE
:1007500040EA020001F0004110EBD37041F10001CA
:100760005EEA430E08BF20EAD37070BDC4F12005D5
:1007700000FA05F24EEA020E20FA04F301FA05F23D
:1007800043EA020321FA04F001F0004121FA04F2E5
:1007900020EA020000EBD3705EEA430E08BF20EAB5
:1007A000D37070BD94F0000F0FD101F000464000EF
:1007B00041EB010111F4801F08BF013CF7D041EA71
:1007C000060195F0000F18BF704703F00046520075
:1007D00043EB030313F4801F08BF013DF7D043EA46
:1007E0000603704794EA0C0F0CEA135518BF95EAFC
:1007F0000C0F0CD050EA410618BF52EA4306D1D183
:1008000081EA030101F000414FF0000070BD50EAA1
:10081000410606BF1046194652EA430619D094EA2B
:100820000C0F02D150EA013613D195EA0C0F05D115
:1008300052EA03361CBF104619460AD181EA030169
:1008400001F0004141F0FE4141F470014FF0000021
:1008500070BD41F0FE4141F4780170BD70B54FF0BC
:10086000FF0C4CF4E06C1CEA11541DBF1CEA13553C
:1008700094EA0C0F95EA0C0F00F0A7F8A4EB05041E
:1008800081EA030E52EA03354FEA013100F0888015
:100890004FEA03334FF0805545EA131343EA1263DE
:1008A0004FEA022245EA111545EA10654FEA002693
:1008B0000EF000419D4208BF964244F1FD0404F54C
:1008C000407402D25B084FEA3202B61A65EB0305A8
:1008D0005B084FEA32024FF480104FF4002CB6EB65
:1008E000020E75EB030E22BFB61A754640EA0C00E5
:1008F0005B084FEA3202B6EB020E75EB030E22BF25
:10090000B61A754640EA5C005B084FEA3202B6EB65
:10091000020E75EB030E22BFB61A754640EA9C0024
:100920005B084FEA3202B6EB020E75EB030E22BFF4
:10093000B61A754640EADC0055EA060E18D04FEAB2
:10094000051545EA16754FEA06164FEAC30343EA52
:1009500052734FEAC2025FEA1C1CC0D111F4801F1F
:100960000BD141EA00014FF000004FF0004CB6E718
:1009700011F4801F04BF01430020B4F1FD0C88BFB7
:10098000BCF5E06F3FF6AFAEB5EB030C04BFB6EBC2
:10099000020C5FEA500C50F1000041EB045170BDB5
:1009A0000EF0004E4EEA113114EB5C04C2BFD4EBE2
:1009B0000C0541EA045170BD41F480114FF0000E66
:1009C000013C90E645EA060E8DE60CEA135594EAE2
:1009D0000C0F08BF95EA0C0F3FF43BAF94EA0C0FE5
:1009E0000AD150EA01347FF434AF95EA0C0F7FF45A
:1009F00025AF104619462CE795EA0C0F06D152EAAE
:100A000003353FF4FDAE1046194622E750EA410691
:100A100018BF52EA43067FF4C5AE50EA41047FF4A2
:100A20000DAF52EA43057FF4EBAE12E74FF0FF3C07
:100A300006E000BF4FF0010C02E000BF4FF0010CD8
:100A40004DF804CD4FEA410C7FEA6C5C4FEA430C51
:100A500018BF7FEA6C5C1BD001B050EA410C0CBFA0
:100A600052EA430C91EA030F02BF90EA020F002002
:100A7000704710F1000F91EA030F58BF994208BF69
:100A800090422CBFD8176FEAE37040F00100704726
:100A90004FEA410C7FEA6C5C02D150EA013C07D17D
:100AA0004FEA430C7FEA6C5CD6D152EA033CD3D0C8
:100AB0005DF8040B704700BF8446104662468C46C2
:100AC0001946634600E000BF01B5FFF7B7FF0028F5
:100AD00048BF10F1000F01BD4DF808EDFFF7F4FF1E
:100AE0000CBF012000205DF808FB00BF4DF808EDA9
:100AF000FFF7EAFF34BF012000205DF808FB00BFCC
:100B00004DF808EDFFF7E0FF94BF012000205DF8ED
:100B100008FB00BF4DF808EDFFF7CEFF94BF0120A2
:100B200000205DF808FB00BF4DF808EDFFF7C4FF9B
:100B300034BF012000205DF808FB00BF4FEA410CE4
:100B40007FEA6C5C02D150EA013C0AD14FEA430CC7
:100B50007FEA6C5C02D152EA033C02D14FF0000004
:100B600070474FF0010070474FEA410212F5001242
:100B700015D211D56FF47873B3EB625212D94FEAE4
:100B8000C12343F0004343EA505311F0004F23FACE
:100B900002F018BF404270474FF00000704750EA23
:100BA000013005D111F0004008BF6FF000407047E0
:100BB0004FF00000704700BF4FEA4102B2F1E0433E
:100BC00024BFB3F5001CDCF1FE5C0DD901F0004C34
:100BD0004FEAC0024CEA5070B2F1004F40EB830084
:100BE00008BF20F00100704711F0804F21D113F1B0
:100BF0003872BCBF01F00040704741F480114FEAE9
:100C00005252C2F11802C2F1200C10FA0CF320FA71
:100C100002F018BF40F001004FEAC1234FEAD3238E
:100C200003FA0CFC40EA0C0023FA02F34FEA4303F8
:100C3000CCE77FEA625307D150EA01331EBF4FF081
:100C4000FE4040F44000704701F0004040F0FE409C
:100C500040F40000704700BF53B94AB9002908BFEB
:100C600000281CBF4FF0FF314FF0FF3000F074B987
:100C7000ADF1080C6DE904CE00F006F8DDF804E0F3
:100C8000DDE9022304B070472DE9F047089D0446D2
:100C90008E46002B4DD18A42944669D9B2FA82F22F
:100CA00052B101FA02F3C2F1200120FA01F10CFA6B
:100CB00002FC41EA030E94404FEA1C48210CBEFBA3
:100CC000F8F61FFA8CF708FB16E341EA034306FB2C
:100CD00007F199420AD91CEB030306F1FF3080F0BB
:100CE0001F81994240F21C81023E63445B1AA4B208
:100CF000B3FBF8F008FB103344EA034400FB07F7AA
:100D0000A7420AD91CEB040400F1FF3380F00A81EA
:100D1000A74240F207816444023840EA0640E41BDF
:100D200000261DB1D4400023C5E900433146BDE88B
:100D3000F0878B4209D9002D00F0EF800026C5E92D
:100D4000000130463146BDE8F087B3FA83F6002E45
:100D50004AD18B4202D3824200F2F980841A61EBBD
:100D6000030301209E46002DE0D0C5E9004EDDE7DB
:100D700002B9FFDEB2FA82F2002A40F09280A1EBC3
:100D80000C014FEA1C471FFA8CFE0126200CB1FB18
:100D9000F7F307FB131140EA01410EFB03F0884211
:100DA00008D91CEB010103F1FF3802D2884200F29E
:100DB000CB804346091AA4B2B1FBF7F007FB101130
:100DC00044EA01440EFB00FEA64508D91CEB0404CE
:100DD00000F1FF3102D2A64500F2BB800846A4EB29
:100DE0000E0440EA03409CE7C6F12007B34022FA14
:100DF00007FC4CEA030C20FA07F401FA06F31C4343
:100E0000F9404FEA1C4900FA06F3B1FBF9F8200C4F
:100E10001FFA8CFE09FB181140EA014108FB0EF095
:100E2000884202FA06F20BD91CEB010108F1FF3AE5
:100E300080F08880884240F28580A8F102086144F1
:100E4000091AA4B2B1FBF9F009FB101144EA0141FF
:100E500000FB0EFE8E4508D91CEB010100F1FF34AA
:100E60006CD28E456AD90238614440EA0840A0FB42
:100E70000294A1EB0E01A142C846A64656D353D018
:100E80005DB1B3EB080261EB0E0101FA07F722FA3C
:100E900006F3F1401F43C5E9007100263146BDE865
:100EA000F087C2F12003D8400CFA02FC21FA03F3C8
:100EB000914001434FEA1C471FFA8CFEB3FBF7F049
:100EC00007FB10360B0C43EA064300FB0EF69E426E
:100ED00004FA02F408D91CEB030300F1FF382FD207
:100EE0009E422DD9023863449B1B89B2B3FBF7F6AF
:100EF00007FB163341EA034106FB0EF38B4208D988
:100F00001CEB010106F1FF3816D28B4214D9023EC8
:100F10006144C91A46EA004638E72E46284605E7E6
:100F20000646E3E61846F8E64B45A9D2B9EB0208B7
:100F300064EB0C0E0138A3E74646EAE7204694E747
:100F40004046D1E7D0467BE7023B614432E730467A
:100F500009E76444023842E7704700BF80B582B0B9
:100F600000AF0346FB80FB88B3F5805F40F0A180B3
:100F70004FF48051924805F0A9FB0346002B14BFA3
:100F800001230023DAB28F4B1A708E4B1B781A465E
:100F90008D4B1B781343DAB28B4B1A708A4B1B783C
:100FA0005B00DAB2884B1A704FF40051844805F0A8
:100FB0008DFB0346002B14BF01230023DAB2834BC1
:100FC0001A70824B1B781A467F4B1B781343DAB298
:100FD0007D4B1A707C4B1B7803F00303DAB27A4B1B
:100FE0001A70794B1B78032B5DD801A252F823F0BD
:100FF00001100008271000084D10000873100008A9
:10100000734B1B68012B04D1724B1B680133714A6F
:1010100013606F4B1B68022B3ED16E4B1B68013B6C
:101020006C4A136038E06A4B1B68032B04D1694B90
:101030001B680133674A1360654B1B68002B2DD179
:10104000644B1B68013B634A136027E0604B1B68DD
:10105000002B04D15F4B1B6801335E4A13605C4B6D
:101060001B68032B1CD15B4B1B68013B594A136067
:1010700016E0574B1B68022B04D1564B1B680133FB
:10108000544A1360524B1B68012B0BD1514B1B6808
:10109000013B504A136005E000BF04E000BF02E0DE
:1010A00000BF00E000BF484B1B781A46484B1A604F
:1010B00015E2FB88B3F5005F40F0B0804FF480513B
:1010C0003F4805F003FB0346002B14BF0123002318
:1010D000DAB23C4B1A703B4B1B781A463E4B1B78DE
:1010E0001343DAB23C4B1A703B4B1B785B00DAB20D
:1010F000394B1A704FF40051314805F0E7FA0346B6
:10110000002B14BF01230023DAB2304B1A702F4B8F
:101110001B781A46304B1B781343DAB22E4B1A70E9
:101120002D4B1B7803F00303DAB22B4B1A702A4BBA
:101130001B78032B6CD801A252F823F04D11000844
:101140007311000899110008DD110008204B1B687D
:10115000012B04D11F4B1B6801331E4A13601C4B2B
:101160001B68022B4DD11B4B1B68013B194A1360B6
:1011700047E0174B1B68032B04D1164B1B68013348
:10118000144A1360124B1B68002B3CD1114B1B6897
:10119000013B104A136036E00D4B1B68002B04D155
:1011A0000C4B1B6801330B4A1360094B1B68032B64
:1011B0002BD1084B1B68013B064A136025E000BF9A
:1011C00000100240340200203502002036020020C8
:1011D000081700204017002037020020934B1B689F
:1011E000022B04D1924B1B680133914A13608F4B41
:1011F0001B68012B0BD18E4B1B68013B8C4A136083
:1012000005E000BF04E000BF02E000BF00E000BF57
:10121000884B1B781A46854B1A6060E1FB88B3F552
:10122000806F40F0A2804FF48061834805F04EFA51
:101230000346002B14BF01230023DAB27F4B1A7040
:101240007E4B1B781A467E4B1B781343DAB27C4BDD
:101250001A707B4B1B785B00DAB2794B1A704FF433
:101260000061754805F032FA0346002B14BF0123D4
:101270000023DAB2734B1A70724B1B781A46704B0C
:101280001B781343DAB26E4B1A706D4B1B7803F068
:101290000303DAB26A4B1A70694B1B78032B5ED8D2
:1012A00001A252F823F000BFB9120008DF120008B3
:1012B000051300082B130008634B1B68012B04D196
:1012C000624B1B680133614A13605F4B1B68022B42
:1012D0003ED15E4B1B68013B5C4A136038E05A4BC1
:1012E0001B68032B04D1594B1B680133574A136009
:1012F000554B1B68002B2DD1544B1B68013B534AA7
:10130000136027E0504B1B68002B04D14F4B1B6828
:1013100001334E4A13604C4B1B68032B1CD14B4BC3
:101320001B68013B494A136016E0474B1B68022BC0
:1013300004D1464B1B680133444A1360424B1B687F
:10134000012B0BD1414B1B68013B404A136005E068
:1013500000BF04E000BF02E000BF00E000BF384B68
:101360001B781A46384B1A60B9E0FB88B3F5006F5A
:1013700040F0B5804FF480612F4805F0A7F903468F
:10138000002B14BF01230023DAB22C4B1A702B4B15
:101390001B781A462E4B1B781343DAB22C4B1A706B
:1013A0002B4B1B785B00DAB2294B1A704FF40061AB
:1013B000214805F08BF90346002B14BF01230023BD
:1013C000DAB2204B1A701F4B1B781A46204B1B7841
:1013D0001343DAB21E4B1A701D4B1B7803F0030344
:1013E000DAB21B4B1A701A4B1B78032B72D801A26E
:1013F00052F823F005140008551400087B14000867
:10140000A1140008104B1B68012B04D10F4B1B6863
:1014100001330E4A13600C4B1B68022B53D10B4B4C
:101420001B68013B094A13604DE000BF081700200C
:101430004017002037020020001002403802002030
:10144000390200203A020020241700200C17002047
:101450003B020020244B1B68032B04D1234B1B6849
:101460000133224A1360204B1B68002B2DD11F4BE8
:101470001B68013B1D4A136027E01B4B1B68002BB8
:1014800004D11A4B1B680133184A1360164B1B68B2
:10149000032B1CD1154B1B68013B144A136016E04B
:1014A000114B1B68022B04D1104B1B6801330F4AF0
:1014B00013600D4B1B68012B0BD10C4B1B68013BC0
:1014C0000A4A136005E000BF04E000BF02E000BF6D
:1014D00000E000BF064B1B781A46034B1A6000BFA2
:1014E0000837BD4680BD00BF241700200C17002020
:1014F0003B02002000000000B0B582B000AF786071
:10150000314B1B680133304A13602F4B1B68322B61
:1015100050D12E4B1A6813461B019B1A9B0018468C
:10152000FFF708F804460D46274B1B681846FFF7DF
:1015300001F823A3D3E90023FFF766F802460B4620
:1015400020462946FFF78AF902460B4610461946FF
:10155000FFF732FB03461E4A13601E4B1A68134600
:101560001B019B1A9B001846FEF7E4FF04460D463C
:10157000154B1B681846FEF7DDFF11A3D3E90023C6
:10158000FFF742F802460B4620462946FFF766F968
:1015900002460B4610461946FFF70EFB03460C4A5F
:1015A00053600A4B00221A600A4B00221A60064B55
:1015B00000221A6000BF0837BD46B0BDAFF30080FF
:1015C0001B2FDD2406811540141700204017002032
:1015D000281700200C170020B0B590B000AF78623B
:1015E000396287ED070AC7ED060A87ED051A87ED10
:1015F000022B87ED003B3A61634BBB637B6AFA6960
:101600001A607B6ABA695A607B6A7A699A603C6838
:101610007B6823F0004522462B46D7E90201FEF7FE
:101620003BFE02460B4610461946FFF7C5FA024636
:101630003B6A1A607B6A93ED007A3B6AD3ED007ACD
:1016400067EE277AC7ED0D7A504B1B681846FEF7F8
:1016500083FF04460D467B6A93ED017A3B6AD3ED26
:10166000007A67EE277A17EE900AFEF775FF44A31B
:10167000D3E90023FEF7C8FF02460B462046294661
:10168000FEF70CFE02460B4610461946FFF794FA89
:101690000346FB6397ED0F7AD7ED0D7A77EE277A45
:1016A000C7ED0C7A97ED0C7AD7ED0E7AB4EEE77AA7
:1016B000F1EE10FA0BD53B6BFB623B6A4FF0000278
:1016C0009A603B693A6B1A607B6A3A6BDA6097ED15
:1016D0000C7AD7ED0E7AB4EEE77AF1EE10FA47DD28
:1016E000BB6BFB6297ED0B7AD7ED0C7A77EE677ADE
:1016F0003B6AC3ED027A7B6A93ED017A3B6AD3EDD4
:10170000007A27EE277A3B6AD3ED026A7B6AD3ED33
:10171000027A66EEA77A77EE277A3B6AC3ED017A02
:101720001A4B1B681846FEF717FF04460D463B6A26
:101730005B681846FEF710FF11A3D3E90023FEF7FC
:1017400063FF02460B4620462946FEF7A7FD0246E8
:101750000B4610461946FFF72FFA0346FB6397ED39
:101760000D7AD7ED0F7A77EE277A3B69C3ED007AD1
:10177000064AFB6B136000BF4037BD46B0BD00BFDB
:101780009A9999999999A93F0000C8433C02002071
:1017900080B400AF00BFBD465DF8047B704780B4E5
:1017A00000AF00BFBD465DF8047B7047000000003D
:1017B000B0B584B000AF87ED020B87ED001BD7E911
:1017C000020102460B46FEF769FD02460B4614462F
:1017D0001D46A5A3D3E90023D7E90001FEF714FFB6
:1017E00002460B4620462946FEF756FD02460B46AA
:1017F000104619464FF000024FF08043FFF72EF8D5
:1018000002460B4610461946FFF7D6F903469C4A96
:101810001360D7E9020102460B46FEF73FFD024680
:101820000B4614461D4690A3D3E90023D7E90001D7
:10183000FEF7EAFE02460B4620462946FEF72EFD3D
:1018400002460B46104619464FF000024FF0804307
:10185000FFF704F802460B4610461946FFF7ACF9AD
:101860000346874A5360864B1B681846FEF774FE92
:101870007FA3D3E90023FEF7F1FF02460B46104693
:101880001946FFF799F903467E4A13607C4B5B6863
:101890001846FEF761FE76A3D3E90023FEF7DEFFCC
:1018A00002460B4610461946FFF786F90346754A6D
:1018B0005360744BD3ED007A9FED737A67EE877AAD
:1018C000B0EE007AC7EE876A16EE900AFEF744FE85
:1018D00069A3D3E90023FEF797FE02460B461046A4
:1018E0001946FFF769F90346664A1360654BD3ED65
:1018F000017A9FED657A67EE877AB0EE007AC7EEDF
:10190000876A16EE900AFEF727FE5BA3D3E9002351
:10191000FEF77AFE02460B4610461946FFF74CF9D1
:101920000346584A5360564BD3ED007AF5EEC07A21
:10193000F1EE10FA1DDD524BD3ED017AF5EEC07ACF
:10194000F1EE10FA15DD01220221504804F0D6FE16
:10195000002204214D4804F0D1FE00224FF4807192
:101960004B4804F0CBFE01224FF40071484804F0CC
:10197000C5FE434BD3ED007AF5EEC07AF1EE10FAD6
:101980001DD53F4BD3ED017AF5EEC07AF1EE10FA9A
:1019900015D500224FF480713D4804F0AFFE0122BE
:1019A0004FF400713A4804F0A9FE012202213748A1
:1019B00004F0A4FE00220421344804F09FFE304BC2
:1019C000D3ED007AF5EEC07AF1EE10FA1DDD2C4B66
:1019D000D3ED017AF5EEC07AF1EE10FA15D50122B9
:1019E0004FF480712A4804F089FE00224FF4007100
:1019F000274804F083FE01220221244804F07EFEE1
:101A000000220421214804F079FE1D4BD3ED007A19
:101A1000F5EEC07AF1EE10FA00D41EE0184BD3EDCB
:101A2000017AF5EEC07AF1EE10FA00DC15E0002242
:101A30004FF48071164804F061FE01224FF40071EA
:101A4000134804F05BFE00220221104804F056FE09
:101A5000012204210D4804F051FE00BF1037BD469D
:101A6000B0BD00BFAFF30080333333333333D33FE4
:101A70009A9999999999A93F182D4454FB210940A5
:101A800038170020100000200000704200040240BF
:101A90000010024080B500AF03F0EAFE00F046F807
:101AA00000F0B6F800F004FB00F0DAFA00F0D6F827
:101AB00000F008F900F03AF900F06CF90DF03CF88C
:101AC00000F000FA00F0A2F900F09CFA02F00CFB22
:101AD000124807F00DFF0021114807F0C5FF08214B
:101AE0000F4807F0C1FF002202210E4804F006FE55
:101AF000012204210B4804F001FE00224FF4807102
:101B0000094804F0FBFD01224FF40071064804F07F
:101B1000F5FD0DF037F802F0FFFAFAE77C0300203C
:101B2000C4030020000402400010024080B594B0BD
:101B300000AF07F120033022002118460DF08EFB84
:101B400007F10C0300221A605A609A60DA601A6189
:101B50000023BB602C4B1B6C2B4A43F08053136457
:101B6000294B1B6C03F08053BB60BB6800237B6078
:101B7000264B1B68254A43F440431360234B1B68E4
:101B800003F440437B607B6801233B624FF4803366
:101B90007B620223BB634FF48003FB6304233B643B
:101BA000C0237B640423BB640823FB6407F1200388
:101BB000184606F0DDFF0346002B14BF0123002367
:101BC000DBB2002B01D000F097FB0F23FB60022358
:101BD0003B6100237B614FF4A053BB610023FB6199
:101BE00007F10C030321184607F03AFA0346002BCD
:101BF00014BF01230023DBB2002B01D000F07CFBDB
:101C000000BF5037BD4680BD003802400070004024
:101C100080B586B000AF3B4600221A605A609A60D9
:101C2000DA601A615A6101233B60C823BB60052357
:101C30007B600223FB603B46184607F031FC0346FD
:101C4000002B14BF01230023DBB2002B01D000F0D6
:101C500053FB00BF1837BD4680BD000080B500AF04
:101C6000154B164A1A60144B154A5A60124B002243
:101C70009A60114B0022DA600F4B4FF480421A61D8
:101C80000D4B00225A610C4B00229A610A4B002234
:101C9000DA61094B00221A62074806F085F903460B
:101CA000002B14BF01230023DBB2002B01D000F076
:101CB00023FB00BF80BD00BF400200200054004055
:101CC000A086010080B500AF154B164A1A60144B70
:101CD0004FF400725A60124B00229A60104B00229F
:101CE000DA600F4B00221A610D4B0F4A5A610C4B00
:101CF00000229A610A4B0022DA61094B01221A6222
:101D0000074806F095FA0346002B14BF0123002371
:101D1000DBB2002B01D000F0EFFA00BF80BD00BFA6
:101D200094020020003800400077010080B500AF29
:101D3000154B164A1A60144B4FF400725A60124B3E
:101D400000229A60104B0022DA600F4B4FF40072B1
:101D50001A610D4B0E4A5A610B4B00229A610A4BD5
:101D60000022DA61084B00221A62074806F060FA86
:101D70000346002B14BF01230023DBB2002B01D04C
:101D800000F0BAFA00BF80BDDC020020003C004039
:101D90000077010080B500AF1A4B1B4A1A60194B3F
:101DA0004FF482725A60174B00229A60154B002242
:101DB000DA60144B00221A61124B00225A61114B57
:101DC0004FF400729A610F4B0022DA610D4B002232
:101DD0001A620C4B00225A620A4B00229A62094B8B
:101DE0000A22DA62074807F0ABFC0346002B14BF57
:101DF00001230023DBB2002B01D000F07DFA00BFED
:101E000080BD00BF240300200030014080B586B0B3
:101E100000AF07F1080300221A605A609A60DA6086
:101E20003B4600221A605A60254B4FF080421A60F0
:101E3000234B2F225A60224B00229A60204B4FF4F2
:101E40007A72DA601E4B00221A611D4B00229A61E1
:101E50001B4807F0FEFC0346002B14BF01230023A0
:101E6000DBB2002B01D000F047FA4FF48053BB6087
:101E700007F108031946124808F070F80346002BD2
:101E800014BF01230023DBB2002B01D000F034FA91
:101E900000233B6000237B603B461946084808F05E
:101EA00019FC0346002B14BF01230023DBB2002BD7
:101EB00001D000F021FA00BF1837BD4680BD00BF39
:101EC0007C03002080B58EB000AF07F1280300220C
:101ED0001A605A609A60DA6007F1200300221A60E3
:101EE0005A603B1D00221A605A609A60DA601A61DB
:101EF0005A619A61414B424A1A60404B0B225A6028
:101F00003E4B00229A603D4B4FF4C872DA603B4B67
:101F100000221A61394B00229A61384807F099FC77
:101F20000346002B14BF01230023DBB2002B01D09A
:101F300000F0E2F94FF48053BB6207F12803194621
:101F40002E4808F00BF80346002B14BF0123002392
:101F5000DBB2002B01D000F0CFF9284807F02AFDB2
:101F60000346002B14BF01230023DBB2002B01D05A
:101F700000F0C2F900233B6200237B6207F12003DB
:101F800019461E4808F0A6FB0346002B14BF012388
:101F90000023DBB2002B01D000F0AEF960237B60A0
:101FA0000023BB600023FB6000237B613B1D0022FC
:101FB0001946124807F010FF0346002B14BF0123F7
:101FC0000023DBB2002B01D000F096F93B1D082264
:101FD00019460A4807F000FF0346002B14BF0123EF
:101FE0000023DBB2002B01D000F086F9034803F098
:101FF00063F900BF3837BD4680BD00BFC403002071
:102000000004004080B500AF134B144A1A60124B15
:102010004FF461425A60104B00229A600E4B00222E
:10202000DA600D4B00221A610B4B0C225A610A4BED
:1020300000229A61084B0022DA61074808F0CCFBC5
:102040000346002B14BF01230023DBB2002B01D079
:1020500000F052F900BF80BD0C04002000100140C8
:1020600080B582B000AF00237B60104B1B6B0F4A22
:1020700043F4800313630D4B1B6B03F480037B60FD
:102080007B68002200213A2003F063FD3A2003F030
:102090007CFD00220021462003F05BFD462003F07A
:1020A00074FD00BF0837BD4680BD00BF0038024048
:1020B00080B58CB000AF07F11C0300221A605A6093
:1020C0009A60DA601A610023BB61854B1B6B844AFE
:1020D00043F010031363824B1B6B03F01003BB61CF
:1020E000BB6900237B617E4B1B6B7D4A43F004037D
:1020F00013637B4B1B6B03F004037B617B69002341
:102100003B61774B1B6B764A43F080031363744B40
:102110001B6B03F080033B613B690023FB60704B4A
:102120001B6B6F4A43F0010313636D4B1B6B03F092
:102130000103FB60FB680023BB60694B1B6B684AB3
:1021400043F002031363664B1B6B03F00203BB6097
:10215000BB6800237B60624B1B6B614A43F0080342
:1021600013635F4B1B6B03F008037B607B680022EB
:102170004FF442715B4804F0C1FA012201215A4830
:1021800004F0BCFA00220621584804F0B7FA0022F5
:102190004FF21001564804F0B1FA0423FB6100230A
:1021A0003B6200237B6207F11C0319464D4804F093
:1021B00009F94FF44273FB6101233B6200237B6208
:1021C0000023BB6207F11C031946464804F0FAF8E5
:1021D0003223FB614FF490133B6200237B6207F1D3
:1021E0001C0319463F4804F0EDF80123FB6101236D
:1021F0003B6200237B620023BB6207F11C0319468C
:10220000394804F0DFF80123FB614FF490133B627F
:1022100000237B6207F11C031946364804F0D2F80C
:102220000623FB6101233B6200237B620023BB6228
:1022300007F11C0319462D4804F0C4F84FF47053FD
:10224000FB614FF444133B6200237B6207F11C03E4
:102250001946244804F0B6F84FF40043FB614FF4EC
:1022600088133B6200237B6207F11C0319461F4859
:1022700004F0A8F84FF48073FB614FF488133B62BD
:1022800000237B6207F11C031946194804F09AF8F1
:102290004FF21003FB6101233B6200237B620023AA
:1022A000BB6207F11C031946114804F08BF8202388
:1022B000FB6100233B6200237B6207F11C0319468C
:1022C0000B4804F07FF800220021282003F041FC95
:1022D000282003F05AFC00BF3037BD4680BD00BF48
:1022E0000038024000100240000802400004024092
:1022F000000C02400000024080B400AF72B600BF84
:10230000FEE780B483B000AF87ED010AD7ED017A14
:10231000F0EEE77AB0EE670A0C37BD465DF8047B55
:10232000704780B582B000AF87ED010A97ED010AD2
:102330000CF020FFF0EE407AB0EE670A0837BD4699
:1023400080BD80B483B000AF78607B6800221A60E3
:102350007B6800225A607B6818460C37BD465DF8E2
:10236000047B704780B483B000AF7860044A7B6818
:102370001A607B6818460C37BD465DF8047B7047D1
:10238000E01F010880B582B000AF78607B68184616
:10239000FFF7E8FF064A7B681A607B68043318463B
:1023A000FFF7CFFF7B6818460837BD4680BD00BFEA
:1023B000C81F010880B485B000AF78603960002381
:1023C000FB607B685968FB683A681344CAB21A70AC
:1023D0007B685B68190AFB6801333A681344CAB228
:1023E0001A707B685B68190CFB6802333A68134407
:1023F000CAB21A707B685B68190EFB6803333A68CF
:102400001344CAB21A70FB680433FB607B68996896
:10241000FB683A681344CAB21A707B689B68190A51
:10242000FB6801333A681344CAB21A707B689B6830
:10243000190CFB6802333A681344CAB21A707B68FD
:102440009B68190EFB6803333A681344CAB21A70CA
:10245000FB680433FB60FB6818461437BD465DF823
:10246000047B704780B485B000AF7860396000238A
:10247000FB60FB683A6813441B781A467B685A6015
:102480007B685A68FB68013339680B441B781B0270
:102490001A437B685A607B685A68FB680233396864
:1024A0000B441B781B041A437B685A607B685A688C
:1024B000FB68033339680B441B781B061A437B689F
:1024C0005A60FB680433FB60FB683A6813441B786E
:1024D0001A467B689A607B689A68FB6801333968A2
:1024E0000B441B781B021A437B689A607B689A68CE
:1024F000FB68023339680B441B781B041A437B6862
:102500009A607B689A68FB68033339680B441B78D0
:102510001B061A437B689A60FB680433FB60FB6808
:1025200018461437BD465DF8047B704780B483B00D
:1025300000AF7860034B18460C37BD465DF8047B4E
:10254000704700BFF01C010880B483B000AF786012
:10255000034B18460C37BD465DF8047B704700BF3F
:10256000001D010880B582B000AF78607B68184616
:10257000FFF7F8FE0B4A7B681A607B6800229A809E
:102580007B68094A9A607B68074ADA607B68064A7A
:102590001A617B6800225A617B6818460837BD467D
:1025A00080BD00BFB01F0108241D010880B588B0A0
:1025B00000AF786039600023FB617B689988FB6914
:1025C0003A681344CAB21A707B689B881B0A99B296
:1025D000FB6901333A681344CAB21A70FB690233CB
:1025E000FB617B689B681846FDF7FAFDB861FB69E3
:1025F0003A681344B969184601F048FEFB69043390
:10260000FB61FB693A68D0187B689B68BA69194618
:102610000CF016FEFA69BB691344FB617B68DB684A
:102620001846FDF7DDFD7861FB693A681344796966
:10263000184601F02BFEFB690433FB61FB693A6825
:10264000D0187B68DB687A6919460CF0F9FDFA69E5
:102650007B691344FB617B681B691846FDF7C0FD6D
:102660003861FB693A6813443969184601F00EFE77
:10267000FB690433FB61FB693A68D0187B681B690E
:102680003A6919460CF0DCFDFA693B691344FB61B9
:102690007B685B69FB60F968FB693A681344CAB2FE
:1026A0001A70FB68190AFB6901333A681344CAB20D
:1026B0001A70FB68190CFB6902333A681344CAB2FA
:1026C0001A70FB68190EFB6903333A681344CAB2E7
:1026D0001A70FB690433FB61FB6918462037BD465D
:1026E00080BD80B58AB000AF786039600023BB61DF
:1026F000BB693A6813441B789AB27B689A807B68FE
:102700009B881AB2BB69013339680B441B781B02E2
:102710001BB213431BB29AB27B689A80BB69023327
:10272000BB61BB693A681A4407F1140311461846A5
:1027300001F0CAFDBB690433BB61BB697B62BA6946
:102740007B6913447A6A9A420CD23A687B6A1A44CB
:102750007B6A013B39680B4412781A707B6A01333B
:102760007B62ECE7BA697B691344013B3A68134426
:1027700000221A70BB69013B3A681A447B689A6070
:10278000BA697B691344BB61BB693A681A4407F1B3
:1027900010031146184601F097FDBB690433BB6175
:1027A000BB693B62BA693B6913443A6A9A420CD2EC
:1027B0003A683B6A1A443B6A013B39680B44127819
:1027C0001A703B6A01333B62ECE7BA693B69134418
:1027D000013B3A68134400221A70BB69013B3A6816
:1027E0001A447B68DA60BA693B691344BB61BB6910
:1027F0003A681A4407F10C031146184601F064FDCB
:10280000BB690433BB61BB69FB61BA69FB681344F4
:10281000FA699A420CD23A68FB691A44FB69013B97
:1028200039680B4412781A70FB690133FB61ECE7DD
:10283000BA69FB681344013B3A68134400221A70DA
:10284000BB69013B3A681A447B681A61BA69FB6844
:102850001344BB610023BB60BB68BA6939680A4492
:1028600012781343BB60BA68BB69013339680B4403
:102870001B781B021343BB60BA68BB69023339681B
:102880000B441B781B041343BB60BA68BB6903335A
:1028900039680B441B781B061343BB60BA687B681E
:1028A0005A61BB690433BB61BB6918462837BD4612
:1028B00080BD000080B483B000AF7860034B184641
:1028C0000C37BD465DF8047B704700BF281D01082A
:1028D00080B483B000AF7860034B18460C37BD4618
:1028E0005DF8047B704700BF441D010880B582B0CD
:1028F00000AF78607B681846FFF734FD064A7B68B6
:102900001A607B6800221A717B68044A9A607B68AF
:1029100018460837BD4680BD981F0108241D0108D0
:1029200080B584B000AF786039600023FB60FB683D
:102930003A6813447A6812791A70FB680133FB60B5
:102940007B689B681846FDF74BFCB860FB683A68EB
:102950001344B968184601F099FCFB680433FB6026
:10296000FB683A68D0187B689B68BA6819460CF017
:1029700067FCFA68BB681344FB60FB6818461037B5
:10298000BD4680BD80B586B000AF78603960002359
:102990003B613B693A6813441A787B681A713B695A
:1029A00001333B613B693A681A4407F10C03114655
:1029B000184601F089FC3B6904333B613B697B614C
:1029C0003A69FB6813447A699A420CD23A687B6987
:1029D0001A447B69013B39680B4412781A707B6991
:1029E00001337B61ECE73A69FB681344013B3A68C9
:1029F000134400221A703B69013B3A681A447B6811
:102A00009A603A69FB6813443B613B691846183782
:102A1000BD4680BD80B483B000AF7860034B1846DC
:102A20000C37BD465DF8047B704700BF681D010888
:102A300080B483B000AF7860034B18460C37BD46B6
:102A40005DF8047B704700BF7C1D010880B582B033
:102A500000AF78607B681846FFF784FC114A7B68FA
:102A60001A607B6800225A607B6800229A607B684B
:102A70000022DA607B6800221A617B684FF0000256
:102A80005A617B6800229A617B680022DA617B6868
:102A900000221A627B6800225A627B681846083757
:102AA000BD4680BD801F010880B58AB000AF786048
:102AB000396000237B627B6859687B6A3A681344FB
:102AC000CAB21A707B685B68190A7B6A01333A687C
:102AD0001344CAB21A707B685B68190C7B6A0233B4
:102AE0003A681344CAB21A707B685B68190E7B6A35
:102AF00003333A681344CAB21A707B6A04337B62A8
:102B000000233B627B685B683A6A9A422BD27B68FF
:102B1000DA683B6A9B0013441B683B6139697B6A36
:102B20003A681344CAB21A703B69190A7B6A0133C6
:102B30003A681344CAB21A703B69190C7B6A0233B3
:102B40003A681344CAB21A703B69190E7B6A0333A0
:102B50003A681344CAB21A707B6A04337B623B6AD8
:102B600001333B62CEE77B6819697B6A3A6813449C
:102B7000CAB21A707B681B69190A7B6A01333A680A
:102B80001344CAB21A707B681B69190C7B6A023342
:102B90003A681344CAB21A707B681B69190E7B6AC3
:102BA00003333A681344CAB21A707B6A04337B62F7
:102BB0000023FB617B681B69FA699A422BD27B6810
:102BC0009A69FB699B0013441B68FB60F9687B6A88
:102BD0003A681344CAB21A70FB68190A7B6A013357
:102BE0003A681344CAB21A70FB68190C7B6A023344
:102BF0003A681344CAB21A70FB68190E7B6A033331
:102C00003A681344CAB21A707B6A04337B62FB6968
:102C10000133FB61CEE77B68D9697B6A3A6813446C
:102C2000CAB21A707B68DB69190A7B6A01333A6899
:102C30001344CAB21A707B68DB69190C7B6A0233D1
:102C40003A681344CAB21A707B68DB69190E7B6A52
:102C500003333A681344CAB21A707B6A04337B6246
:102C60000023BB617B68DB69BA699A4228D27B6822
:102C70005A6ABB699B0013441B681846FDF7B0FAFB
:102C800078617B6A3A6813447969184601F0FEFA64
:102C90007B6A04337B627B6A3A68D0187B685A6A25
:102CA000BB699B0013441B687A6919460CF0C8FA8B
:102CB0007A6A7B6913447B62BB690133BB61D1E7EC
:102CC0007B6A18462837BD4680BD80B58EB000AF00
:102CD0007860396000237B637B6B3A6813441B7810
:102CE0003B627B6B01333A6813441B781B023A6AE0
:102CF00013433B627B6B02333A6813441B781B041B
:102D00003A6A13433B627B6B03333A6813441B7884
:102D10001B063A6A13433B627B6B04337B637B681D
:102D20005B683A6A9A420AD97B68DA683B6A9B0018
:102D3000194610460CF0E4FF02467B68DA607B68B7
:102D40003A6A5A6000233B637B685B683A6B9A423D
:102D500036D200237B617B697A6B39680A4412782A
:102D600013437B617A697B6B013339680B441B78B1
:102D70001B0213437B617A697B6B023339680B4416
:102D80001B781B0413437B617A697B6B03333968BF
:102D90000B441B781B0613437B617A697B689A603E
:102DA0007B6B04337B637B68DA683B6B9B0013446B
:102DB0007A68083212681A603B6B01333B63C3E7E1
:102DC0007B6B3A6813441B78FB617B6B01333A6879
:102DD00013441B781B02FA691343FB617B6B0233BC
:102DE0003A6813441B781B04FA691343FB617B6B3D
:102DF00003333A6813441B781B06FA691343FB61DB
:102E00007B6B04337B637B681B69FA699A420AD93E
:102E10007B689A69FB699B00194610460CF070FFAD
:102E200002467B689A617B68FA691A610023FB623B
:102E30007B681B69FA6A9A4236D200233B613B6980
:102E40007A6B39680A44127813433B613A697B6BA9
:102E5000013339680B441B781B0213433B613A6909
:102E60007B6B023339680B441B781B0413433B61B3
:102E70003A697B6B033339680B441B781B06134399
:102E80003B613A697B685A617B6B04337B637B6887
:102E90009A69FB6A9B0013447A68143212681A60BC
:102EA000FB6A0133FB62C3E77B6B3A6813441B7810
:102EB000BB617B6B01333A6813441B781B02BA6910
:102EC0001343BB617B6B02333A6813441B781B04CA
:102ED000BA691343BB617B6B03333A6813441B78B5
:102EE0001B06BA691343BB617B6B04337B637B684E
:102EF000DB69BA699A420AD97B685A6ABB699B0046
:102F0000194610460CF0FCFE02467B685A627B684C
:102F1000BA69DA610023BB627B68DB69BA6A9A42EC
:102F20003FD27B6B3A681A4407F10C0311461846EE
:102F300001F0CAF97B6B04337B637B6B7B627A6B3A
:102F4000FB6813447A6A9A420CD23A687B6A1A4444
:102F50007B6A013B39680B4412781A707B6A013333
:102F60007B62ECE77A6BFB681344013B3A681344DD
:102F700000221A707B6B013B3A681A447B681A6224
:102F80007A6BFB6813447B637B685A6ABB6A9B005D
:102F900013447A68203212681A60BB6A0133BB623C
:102FA000BAE77B6B18463837BD4680BD80B483B026
:102FB00000AF7860034B18460C37BD465DF8047BC4
:102FC000704700BFBC1E010880B483B000AF7860BA
:102FD000034B18460C37BD465DF8047B704700BFB5
:102FE000A01D010880B485B000AFF860B9607A60B8
:102FF0003B60FB68BA681A60FB687A685A60FB68D5
:103000003A681A61FB6818461437BD465DF8047BC0
:10301000704780B582B000AF786039607B68D8684F
:103020007B68DB681B681B687A6891683A68984718
:10303000034618460837BD4680BD80B483B000AF54
:1030400078607B681B6918460C37BD465DF8047BC9
:10305000704780B483B000AF78607B681B689B6B5F
:103060001B685B68C3F58063C3F3090318460C371C
:10307000BD465DF8047B704780B483B000AF7860D4
:103080007B680A4A1A607B680022C3F804247B68C4
:103090000022C3F808287B680022C3F80C287B684C
:1030A00018460C37BD465DF8047B70470C040020C1
:1030B00080B582B000AF7860786800F004F800BF97
:1030C0000837BD4680BD80B582B000AF78607B68B0
:1030D00018687B6804334FF48062194607F048FC97
:1030E00000BF0837BD4680BD90B585B000AF7860A1
:1030F0004FF0FF33FB607B68D3F804447868FFF738
:10310000A8FF03469C4214BF01230023DBB2002B1F
:1031100012D07B68D3F80434591C7A68C2F80414BE
:103120007A6813441B79FB607B68D3F80434C3F3DB
:1031300009027B68C3F80424FB6818461437BD46AF
:1031400090BD000080B584B000AF78607B681B68DC
:1031500093F83D30DBB2202B08D1284B1B7883F04D
:103160000103DBB2002B01D0012300E00023002B80
:103170003FD0224B01221A707B68D3F808287B6865
:10318000D3F80C389A4231D07B68D3F80C287B688E
:10319000D3F808389A420AD27B68D3F808389AB232
:1031A0007B68D3F80C389BB2D31A9BB206E07B68DD
:1031B000D3F80C389BB2C3F580639BB2FB817B686C
:1031C00018687B68D3F80C3803F581637A68134478
:1031D000FA89194607F04EFB7B68D3F80C28FB8967
:1031E0001344C3F309027B68C3F80C28034B002285
:1031F0001A7000BF1037BD4680BD00BF100500200B
:1032000080B586B000AFF860B9607A607B689BB229
:103210007B827B8AB3F5806F03D807F112031B888A
:1032200001E04FF480637B827B8A1A46FB68D3F807
:103230000838C3F58063934228BF13467B61FB685F
:10324000D3F8083803F58163FA6813447A69B968DA
:1032500018460BF0F5FFFB68D3F808387A8A134458
:10326000C3F30902FB68C3F808287B8A1A467B6906
:1032700093420CD0FB6803F581607B69BA68D11872
:103280007B8A1A467B69D31A1A460BF0D9FFF86875
:10329000FFF758FF00BF1837BD4680BD80B582B02C
:1032A00000AF786002F04AFB034618460837BD4677
:1032B00080BD000080B582B000AF78607B681846A2
:1032C000FFF750F80E4A7B681A6079684FF00002E9
:1032D0004FF00003C1E9022379684FF000024FF07C
:1032E0000003C1E9042379684FF000024FF00003A6
:1032F000C1E906237B6818460837BD4680BD00BF7C
:103300003C1F010880B48BB000AF786039600023A7
:103310007B627B68D3E90223C7E90623D7E906234A
:10332000796A38680144D3B20B70D7E906014FF0CF
:1033300000024FF00003020A42EA01620B0A796AB6
:10334000013138680144D3B20B70D7E906014FF060
:1033500000024FF00003020C42EA01420B0C796AB2
:10336000023138680144D3B20B70D7E906014FF03F
:1033700000024FF00003020E42EA01220B0E796AAE
:10338000033138680144D3B20B70D7E906014FF01E
:1033900000024FF000030A000023796A0431386804
:1033A0000144D3B20B70D7E906014FF000024FF091
:1033B00000030A0A0023796A053138680144D3B250
:1033C0000B70D7E906014FF000024FF000030A0C22
:1033D0000023796A063138680144D3B20B70D7E90B
:1033E00006014FF000024FF000030A0E0023796A35
:1033F000073138680144D3B20B707B6A08337B62B3
:103400007B68D3E90423C7E90423D7E90423796A55
:1034100038680144D3B20B70D7E904014FF00002C1
:103420004FF00003020A42EA01620B0A796A013195
:1034300038680144D3B20B70D7E904014FF00002A1
:103440004FF00003020C42EA01420B0C796A023190
:1034500038680144D3B20B70D7E904014FF0000281
:103460004FF00003020E42EA01220B0E796A03318B
:1034700038680144D3B20B70D7E904014FF0000261
:103480004FF000030A000023796A043138680144D0
:10349000D3B20B70D7E904014FF000024FF00003E4
:1034A0000A0A0023796A053138680144D3B20B70E7
:1034B000D7E904014FF000024FF000030A0C00238B
:1034C000796A063138680144D3B20B70D7E9040138
:1034D0004FF000024FF000030A0E0023796A073113
:1034E00038680144D3B20B707B6A08337B627B6817
:1034F000D3E90623C7E90223D7E90223796A3868AA
:103500000144D3B20B70D7E902014FF000024FF033
:103510000003020A42EA01620B0A796A0131386843
:103520000144D3B20B70D7E902014FF000024FF013
:103530000003020C42EA01420B0C796A023138683E
:103540000144D3B20B70D7E902014FF000024FF0F3
:103550000003020E42EA01220B0E796A0331386839
:103560000144D3B20B70D7E902014FF000024FF0D3
:1035700000030A000023796A043138680144D3B299
:103580000B70D7E902014FF000024FF000030A0A66
:103590000023796A053138680144D3B20B70D7E94A
:1035A00002014FF000024FF000030A0C0023796A79
:1035B000063138680144D3B20B70D7E902014FF0ED
:1035C00000024FF000030A0E0023796A07313868C1
:1035D0000144D3B20B707B6A08337B627B6A184666
:1035E0002C37BD465DF8047B70472DE9B00FEBB07A
:1035F00000AFC7F88401C7F880110023C7F8A431D1
:103600004FF000024FF00003C7E96623D7E96601D7
:10361000D7F8A421D7F8803113441B78DBB20022FD
:103620001C46154640EA040841EA0509C7E96689CF
:10363000D7E96601D7F8A4315A1CD7F88031134472
:103640001B78DBB200229A4693464FF000024FF0FF
:1036500000034FEA0B2343EA1A634FEA0A2240EAC7
:103660000204C7F878410B43C7F87C31D7E95E34D0
:10367000C7E96634D7E96601D7F8A4319A1CD7F8B0
:10368000803113441B78DBB20022C7F87031C7F8D1
:1036900074214FF000024FF00003D7E95C894C46DB
:1036A0002304444643EA14434446220440EA020405
:1036B000C7F868410B43C7F86C31D7E95A34C7E9FA
:1036C0006634D7E96601D7F8A431DA1CD7F880311F
:1036D00013441B78DBB20022C7F86031C7F86421BD
:1036E000D7E9584523461B0AC7F85C3123461B0619
:1036F000C7F85831D7E9564523460343C7F8503138
:103700002B460B43C7F85431D7E95434C7E9663424
:10371000D7E96601D7F8A4311A1DD7F880311344D0
:103720001B78DBB20022C7F84831C7F84C214FF0B4
:1037300000024FF00003D7F848412300002240EA7E
:103740000204C7F840410B43C7F84431D7E950346D
:10375000C7E96634D7E96601D7F8A4315A1DD7F80E
:10376000803113441B78DBB20022C7F83831C7F828
:103770003C214FF000024FF00003D7F838412302FC
:10378000002240EA0204C7F830410B43C7F8343145
:10379000D7E94C34C7E96634D7E96601D7F8A431D4
:1037A0009A1DD7F8803113441B78DBB20022C7F88A
:1037B0002831C7F82C214FF000024FF00003D7F852
:1037C00028412304002240EA0204C7F820410B43A9
:1037D000C7F82431D7E94834C7E96634D7E9660128
:1037E000D7F8A431DA1DD7F8803113441B78DBB247
:1037F0000022C7F81831C7F81C214FF000024FF023
:103800000003D7F818412306002240EA0204C7F853
:1038100010410B43C7F81431D7E94434C7E9663483
:10382000D7E96601D7F88431C3E90201D7F8A4319A
:103830000833C7F8A4314FF000024FF00003C7E986
:103840006423D7E96401D7F8A421D7F88031134461
:103850001B78DBB20022C7F80831C7F80C21D7E982
:10386000424523460343C7F800312B460B43C7F8B4
:103870000431D7E94034C7E96434D7E96401D7F8A3
:10388000A4315A1CD7F8803113441B78DBB20022D4
:10389000C7F8F830C7F8FC204FF000024FF00003E3
:1038A000D7E93E894C462302444643EA1463444622
:1038B000220240EA0204C7F8F0400B43C7F8F43094
:1038C000D7E93C34C7E96434D7E96401D7F8A431B7
:1038D0009A1CD7F8803113441B78DBB20022C7F85A
:1038E000E830C7F8EC204FF000024FF00003D7E9B2
:1038F0003A894C462304444643EA1443444622048E
:1039000040EA0204C7F8E0400B43C7F8E430D7E9C7
:103910003834C7E96434D7E96401D7F8A431DA1C34
:10392000D7F8803113441B78DBB20022C7F8D830B7
:10393000C7F8DC20D7E9364523461B0AC7F8D43040
:1039400023461B06C7F8D030D7E934452346034346
:10395000C7F8C8302B460B43C7F8CC30D7E9323410
:10396000C7E96434D7E96401D7F8A4311A1DD7F840
:10397000803113441B78DBB20022C7F8C030C7F88F
:10398000C4204FF000024FF00003D7F8C0402300DE
:10399000002240EA0204C7F8B8400B43C7F8BC3025
:1039A000D7E92E34C7E96434D7E96401D7F8A431E4
:1039B0005A1DD7F8803113441B78DBB20022C7F8B8
:1039C000B030C7F8B4204FF000024FF00003D7F832
:1039D000B0402302002240EA0204C7F8A8400B438B
:1039E000C7F8AC30D7E92A34C7E96434D7E96401B1
:1039F000D7F8A4319A1DD7F8803113441B78DBB275
:103A00000022C7F8A030C7F8A4204FF000024FF002
:103A10000003D7F8A0402304002240EA0204C7F8BC
:103A200098400B43C7F89C30D7E92634C7E9643483
:103A3000D7E96401D7F8A431DA1DD7F880311344EF
:103A40001B78DBB20022C7F89030C7F894204FF003
:103A500000024FF00003D7F890402306002240EA0E
:103A60000204C7F888400B43C7F88C30D7E92234EA
:103A7000C7E96434D7E96401D7F88431C3E90401A4
:103A8000D7F8A4310833C7F8A4314FF000024FF043
:103A90000003C7E96223D7E96201D7F8A421D7F868
:103AA000803113441B78DBB20022C7F88030C7F89E
:103AB0008420D7E9204523460343BB672B460B43AD
:103AC000FB67D7E91E34C7E96234D7E96201D7F84A
:103AD000A4315A1CD7F8803113441B78DBB2002282
:103AE0003B677A674FF000024FF00003D7E91C896B
:103AF0004C462302444643EA14634446220240EA09
:103B00000204BC660B43FB66D7E91A34C7E962348A
:103B1000D7E96201D7F8A4319A1CD7F88031134451
:103B20001B78DBB200223B667A664FF000024FF052
:103B30000003D7E918894C462304444643EA14435A
:103B40004446220440EA0204BC650B43FB65D7E906
:103B50001634C7E96234D7E96201D7F8A431DA1C18
:103B6000D7F8803113441B78DBB200223B657A65BD
:103B7000D7E9144523461B0AFB6423461B06BB6496
:103B8000D7E91245234603433B642B460B437B6432
:103B9000D7E91034C7E96234D7E96201D7F8A43114
:103BA0001A1DD7F8803113441B78DBB20022BB63A7
:103BB000FA634FF000024FF00003BC6B23000022B9
:103BC00040EA02043C630B437B63D7E90C34C7E94A
:103BD0006234D7E96201D7F8A4315A1DD7F8803191
:103BE00013441B78DBB20022BB62FA624FF0000282
:103BF0004FF00003BC6A2302002240EA02043C6248
:103C00000B437B62D7E90834C7E96234D7E9620124
:103C1000D7F8A4310633D7F8802113441B78DBB2E0
:103C20000022BB61FA614FF000024FF00003BC6953
:103C30002304002240EA02043C610B437B61D7E984
:103C40000434C7E96234D7E96201D7F8A4310733F5
:103C5000D7F8802113441B78DBB20022BB60FA60E6
:103C60004FF000024FF00003BC682306002240EA38
:103C700002043C600B437B60D7E90034C7E962343F
:103C8000D7E96223D7F88411C1E90623D7F8A43114
:103C90000833C7F8A431D7F8A431184607F5D6770A
:103CA000BD46BDE8B00F704780B483B000AF786008
:103CB000034B18460C37BD465DF8047B704700BFC8
:103CC000C41D010880B483B000AF7860034B184670
:103CD0000C37BD465DF8047B704700BFDC1D010852
:103CE00080B582B000AF78607B681846FEF73AFB7B
:103CF000054A7B681A607B68044A5A607B681846EC
:103D00000837BD4680BD00BF241F0108241D0108DF
:103D100080B584B000AF786039600023FB607B68B9
:103D20005B681846FCF75CFAB860FB683A681344B5
:103D3000B968184600F0AAFAFB680433FB60FB6818
:103D40003A68D0187B685B68BA6819460BF078FA55
:103D5000FA68BB681344FB60FB6818461037BD4621
:103D600080BD80B586B000AF7860396000233B61CC
:103D70003B693A681A4407F10C031146184600F0F3
:103D8000A3FA3B6904333B613B697B613A69FB6899
:103D900013447A699A420CD23A687B691A447B6967
:103DA000013B39680B4412781A707B6901337B61DF
:103DB000ECE73A69FB681344013B3A68134400227C
:103DC0001A703B69013B3A681A447B685A603A6949
:103DD000FB6813443B613B6918461837BD4680BDFC
:103DE00080B483B000AF7860034B18460C37BD46F3
:103DF0005DF8047B704700BF001E010880B483B0EB
:103E000000AF7860034B18460C37BD465DF8047B65
:103E1000704700BF101E010880B582B000AF786007
:103E20007B681846FEF79EFA084A7B681A607B6832
:103E300008331846FFF73EFA7B6828331846FFF729
:103E400039FA7B6818460837BD4680BD0C1F01084B
:103E500080B584B000AF786039600023FB607B6878
:103E600003F10800FB683A6813441946FFF74AFA61
:103E70000246FB681344FB607B6803F12800FB6883
:103E80003A6813441946FFF73DFA0246FB681344AB
:103E9000FB60FB6818461037BD4680BD80B584B016
:103EA00000AF786039600023FB607B6803F1080095
:103EB000FB683A6813441946FFF797FB0246FB6814
:103EC0001344FB607B6803F12800FB683A681344E5
:103ED0001946FFF78AFB0246FB681344FB60FB6848
:103EE00018461037BD4680BD80B483B000AF7860FF
:103EF000034B18460C37BD465DF8047B704700BF86
:103F0000341E010880B483B000AF7860034B1846BC
:103F10000C37BD465DF8047B704700BF481E0108A2
:103F200080B483B000AF7860044A7B681A607B6815
:103F300018460C37BD465DF8047B70476C1F0108BE
:103F400080B582B000AF78607B681846FFF7E8FF65
:103F5000454A7B681A607B6804331846FFF78CF883
:103F60007B680022C3F814287B680022C3F8182855
:103F70007B680022C3F81C287B680022C3F8202835
:103F80007B6803F624034FF48062002118460BF08F
:103F900065F97B6803F624434FF4806200211846DC
:103FA0000BF05CF97B6803F5805324336422002115
:103FB00018460BF053F97B6803F58053883364226D
:103FC000002118460BF04AF97B6803F580531A4626
:103FD0000023C2F8EC307B6803F580531A460023B7
:103FE000C2F8F0307B6803F580531A460023C2F80C
:103FF000F4307B6803F580531A460023C2F8F8308A
:104000007B6803F580531A460023C2F8FC307B68B6
:1040100003F58053002283F800217B6803F5805369
:104020001A460023C2F804317B6803F580531A4610
:104030000023C2F808317B6803F580531A46002339
:10404000C2F80C317B6803F58053002283F81021FD
:104050007B6803F5885314331846FEF7F7FC7B683A
:1040600018460837BD4680BDF81E01080000000054
:1040700080B582B000AF78609FED051B9FED060B09
:10408000FDF796FB00BF0837BD4680BDAFF300804B
:1040900000000000000000007B14AE47E17A843F7E
:1040A00080B582B000AF7860054800F067F903463C
:1040B0001846FFF747F800BF0837BD4680BD00BF70
:1040C0003005002080B582B000AF7860054800F070
:1040D00055F903461846FEF7F6FF00BF0837BD4600
:1040E00080BD00BF3005002080B500AF064800F05D
:1040F00051F90649044800F076F90549024800F0F4
:10410000A2F900BF80BD00BF30050020741600205A
:104110008816002000000000B0B500AF4FF4004149
:104120004B4802F004FB4FF48041494802F0FFFA8B
:104130004FF40051464802F0FAFA4FF480514448D7
:1041400002F0F5FAFDF724FBFDF729FB9FED3C1B80
:104150009FED3D0BFDF72CFB3E4B1B681846FCF713
:10416000FBF904460D463C4B1B681846FCF7F4F976
:104170003A4A41EC130B45EC124B9FED391ADFED37
:10418000390A9FED390A39493948FDF725FA314B8B
:104190005B681846FCF7E0F904460D462E4B5B6859
:1041A0001846FCF7D9F9334A41EC130B45EC124B96
:1041B0009FED2B1ADFED2B0A9FED2B0A2B492C4884
:1041C000FDF70AFA322001F0C5FB244BD3ED007A4B
:1041D000B0EE670AFEF7A5F8F0EE407AB0EE670A97
:1041E000FEF78FF8F0EE407A234B1B68FCEEE77A7F
:1041F00017EE902ADA63194BD3ED017AB0EE670A15
:10420000FEF78FF8F0EE407AB0EE670AFEF779F825
:10421000F0EE407A184B1B68FCEEE77A17EE902A16
:104220005A63164B164A5A6014491648FEF7F1FEB7
:10423000154800F033F900BFB0BD00BFAFF30080F8
:1042400000000000000000007B14AE47E17A843FCC
:10425000000C02401000002028170020E816002063
:10426000A8C6B141CDCC7441FA7E6A3E2405002037
:1042700014050020EC160020C40300206C1600205A
:1042800000000020741600203005002080B485B0A6
:1042900000AF786039600023FB60FB68032B0DD80A
:1042A000FB68DB003A6822FA03F17A68FB68134482
:1042B000CAB21A70FB680133FB60EEE700BF143727
:1042C000BD465DF8047B704780B485B000AF786070
:1042D00039607B6800221A600023FB60FB68032BB7
:1042E00011D87B681B683968FA680A44127811464D
:1042F000FA68D20001FA02F21A437B681A60FB687E
:104300000133FB60EAE700BF1437BD465DF8047B6C
:104310007047000080B483B000AF7860044A7B68C7
:104320001A607B6818460C37BD465DF8047B704701
:10433000541F010880B584B000AFF860B9607A609E
:104340003B60FB681846FFF7E5FF0B4AFB681A6005
:10435000FB6810331846FFF75FFDFB687A689A65C3
:10436000FB683A68DA65FB68BA689A60FB681846C9
:104370001037BD4680BD00BFE01E010880B483B089
:1043800000AF78607B68043318460C37BD465DF893
:10439000047B704780B582B000AF78607B680433DF
:1043A0001846FEF785FE7B6803F580531A46002306
:1043B000C2F8EC307B6803F580531A460023C2F83C
:1043C000F0307B6803F580531A460023C2F8F830BA
:1043D0007B6803F580531A460023C2F8F43000BF0F
:1043E0000837BD4680BD80B485B000AF78603960C5
:1043F0000023FB60FB68182B1EDC7A68FB6803F562
:1044000081639B0013445B68002B11D17A68FB68C1
:1044100003F581639B0013443A685A60FB6803F11B
:104420007D023B689A607A683B68DA60012304E0A9
:10443000FB680133FB60DDE7002318461437BD46F7
:104440005DF8047B704780B485B000AF7860396058
:104450000023FB60FB68182B19DC7B68FA6802F20A
:10446000224253F82230002B0DD17B68FA6802F209
:104470002242396843F82210FB6803F164023B686A
:104480005A60012304E0FB680133FB60E2E700238C
:1044900018461437BD465DF8047B704780B584B07C
:1044A00000AF78607B6804331846FEF7F7FEF860CB
:1044B0007B6803F58053D3F80831FA68D31A42F6C3
:1044C000F822934205D97B6803F58053002283F8D4
:1044D00000217B6803F58053D3F8EC30002B0ED01D
:1044E0007B6803F58053D3F80C31FA689A4206D9F9
:1044F0007B6803F580531A460023C2F8EC307B68D2
:10450000D3F82038002B14D07B6804331846FEF70C
:10451000C5FE0246FB68D21A7B68D3F820389A425F
:104520008CBF01230023DBB2002B02D06FF001030C
:1045300021E27B6804331846FEF7D6FDB860BB68FD
:10454000002BC0F2FA817B6803F58053D3F8FC207E
:10455000BB6813447A6802F58052C2F8FC307B686D
:1045600003F58053D3F8EC30072B2BD17B6803F590
:104570008053D3F8F8305A1C796801F58051C1F89E
:10458000F820BA68D1B27A6813440A4683F824281E
:104590007B6803F58053D3F8F030013B7A6802F56D
:1045A0008052C2F8F0307B6803F58053D3F8F030C6
:1045B000002BA4D17B6803F580531A460823C2F868
:1045C000EC309CE77B6803F58053D3F8EC30002B8C
:1045D00030D1BB68FF2B12D17B6803F58053D3F831
:1045E000EC3001337A6802F58052C2F8EC30FB6897
:1045F00014337A6802F58052C2F80C317FE77B6889
:1046000004331846FEF74AFE0246FB68D31A41F20D
:10461000883293428CBF01230023DBB2002B3FF48E
:104620006EAF7B6803F58053002283F800216FF0A2
:104630000103A0E17B6803F58053D3F8EC30012B34
:1046400021D1BB68FE2B0BD17B6803F58053D3F8D7
:10465000EC3001337A6802F58052C2F8EC304EE754
:104660007B6803F580531A460023C2F8EC307B6860
:1046700003F5805393F80031002B7FF440AF786846
:1046800000F07DF93BE77B6803F58053D3F8EC300D
:10469000022B20D17B6803F580531A46BB68C2F811
:1046A000F0307B6803F580531A460023C2F8F830D7
:1046B0007B6803F58053D3F8EC3001337A6802F558
:1046C0008052C2F8EC307B6803F580531A46BB6811
:1046D000C2F8FC3013E77B6803F58053D3F8EC3065
:1046E000032B18D17B6803F58053D3F8F020BB6807
:1046F0001B0213447A6802F58052C2F8F0307B68DE
:1047000003F58053D3F8EC3001337A6802F5805218
:10471000C2F8EC30F3E67B6803F58053D3F8EC3055
:10472000042B1FD17B6803F58053D3F8FC305A4229
:10473000DBB2D2B258BF5342FF2B0BD17B6803F5DB
:104740008053D3F8EC3001337A6802F58052C2F816
:10475000EC30D4E67B6803F580531A460023C2F898
:10476000EC30CCE67B6803F58053D3F8EC30052BB6
:1047700019D17B6803F580531A46BB68C2F8F43040
:104780007B6803F58053D3F8EC3001337A6802F587
:104790008052C2F8EC307B6803F580531A46BB6840
:1047A000C2F8FC30ABE67B6803F58053D3F8EC30FD
:1047B000062B23D17B6803F58053D3F8F420BB6824
:1047C0001B0213447A6802F58052C2F8F4307B6809
:1047D00003F580531A460723C2F8EC307B6803F5D3
:1047E0008053D3F8F030002B7FF489AE7B6803F55B
:1047F00080531A460823C2F8EC3080E67B6803F544
:104800008053D3F8EC30082B7FF479AE7B6803F546
:1048100080531A460023C2F8EC307B6803F58053BE
:10482000D3F8FC305A42DBB2D2B258BF5342FF2B0E
:104830007FF465AE7B6803F58053D3F8F430002B2A
:1048400016D1786800F09BF8786800F0B6F87B68BD
:1048500003F580531A46FB68C2F804317B6803F500
:1048600080531A46FB68C2F808314FF0FF3382E0EC
:104870007B6803F58053D3F8F4300A2B07D17B68AB
:1048800003F624031946786800F078F937E67B6868
:1048900003F58053D3F8F430062B11D17B6803F570
:1048A000885314337A6802F6240211461846FEF73C
:1048B0000CFA7B6803F58053012283F810211EE671
:1048C0007B6803F58053D3F8F4300B2B06D17B685B
:1048D00003F58053002283F8002110E67B6803F57E
:1048E0008053D3F8F430A3F164027B6802F22242D1
:1048F00053F82230002B3FF402AE7B6803F580535F
:10490000D3F8F430A3F164027B6802F2224253F838
:1049100022007B6803F58053D3F8F430A3F16402DE
:104920007B6802F2224253F822301B681B687A68C7
:1049300002F6240211469847E1E500BF7B6803F5C3
:10494000805393F80031002B14D07B6803F580531B
:10495000D3F80431FA68D31A40F6C412934209D945
:10496000786800F00CF87B6803F580531A46FB6802
:10497000C2F80431002318461037BD4680BD80B50B
:1049800086B000AF786007F10C031846FDF7FAFC1B
:104990007B681B681B6807F10C020A21786898473E
:1049A0007B6804331846FEF779FC02467B68C3F83F
:1049B000142800BF1837BD4680BD90B58BB000AF3E
:1049C000786007F10C031846FDF7CCFD00237B62ED
:1049D0007B6A182B63DC7A687B6A03F581639B0032
:1049E00013445B68002B56D07A687B6A03F58163B9
:1049F0009B0013445B689B689BB23B827A687B6A2E
:104A000003F581639B0013445B681B687B617A68D4
:104A10007B6A03F581639B0013445B6859687A687D
:104A20007B6A03F581639B0013445B685B681B68CA
:104A300008331B68084698470346BB617A687B6A5F
:104A400003F581639B0013445B6859687A687B6A4D
:104A500003F581639B0013445B685B681B680C3340
:104A60001B68084698470346FB614FF480633B622E
:104A70007B681B681C687A687B6A03F581639B000E
:104A800013445B681846FEF7D8FA014607F10C0399
:104A90001A467868A0477B6A01337B6298E7002357
:104AA0007B627B6A182B5FDC7B687A6A02F22242A7
:104AB00053F82230002B53D07B687A6A02F22242EC
:104AC00053F822305B689BB23B827B687A6A02F2C1
:104AD000224253F822309B687B617B687A6A02F23B
:104AE000224253F822107B687A6A02F2224253F87B
:104AF00022301B6808331B68084698470346BB6191
:104B00007B687A6A02F2224253F822107B687A6A42
:104B100002F2224253F822301B680C331B6808460D
:104B200098470346FB614FF480633B627B681B68D8
:104B30001C687B687A6A02F2224253F822107B6872
:104B40007A6A02F2224253F822301B6804331B684F
:104B500008469847014607F10C031A467868A047B3
:104B60007B6A01337B629CE77B6803F580530122FB
:104B700083F8002100BF2C37BD4690BD80B586B0BC
:104B800000AF7860396007F108031846FDF7FAFBBB
:104B90007B6804331846FEF781FB02467B68D3F836
:104BA0001438D31A7B6107F1080339681846FDF7FA
:104BB00059FCFA687B691649A1FB03139B0913444E
:104BC000FB6039697A69124BA3FB02039B094FF41E
:104BD0007A7000FB03F3D31A0E4A02FB03F30B4473
:104BE0003B6107F1080304331946786800F0AAF81E
:104BF0007B6804331846FEF751FB02467B6803F5D9
:104C00008053C3F8082100BF1837BD4680BD00BFE0
:104C1000D34D621040420F0080B588B000AFF860FD
:104C2000B9607A60BB68632B0BDDFB6803F58053CA
:104C300093F8003183F00103DBB2002B01D0002395
:104C400079E07B681B681B68FA6802F62442073229
:104C50001146786898477861FB68FF2283F8242C16
:104C6000FB68FE2283F8252C7B69DAB2FB6883F8A7
:104C7000262C7B699BB21B0A9BB2DAB2FB6883F8D5
:104C8000272CFB6893F8262CFB6893F8273C1344E9
:104C9000DBB2DB43DAB2FB6883F8282CBB68DAB2FC
:104CA000FB6883F8292CBB681BB21B121BB2DAB25B
:104CB000FB6883F82A2C0023FB610523BB617B6919
:104CC0000633BA699A420DDCFA68BB69134403F6ED
:104CD00024431B781A46FB691344FB61BB6901330B
:104CE000BB61ECE77B6907337B61FB695A42DBB24E
:104CF000D2B258BF5342DAB27B69591C7961D243B0
:104D0000D1B2FA6813440A4683F8242C7B69B3F5C0
:104D1000806F0ADCFB68181DFB6803F624437A6980
:104D20001946FEF76DFA7B6905E00549F86800F061
:104D300049F84FF0FF3318462037BD4680BD00BF0D
:104D40006C1E010880B584B000AF786039607B6864
:104D500004331846FEF7A2FAF8603B681A68FB684D
:104D60001549A1FB03139B09D31A5A1E7B68C3F88C
:104D700018283B685968FA680F4BA3FB02039B098C
:104D80004FF47A7000FB03F3D31A0C4A02FB03F3CF
:104D9000CA1A0B4B13447A68C2F81C387B6803F6B6
:104DA00018027B6803F61C031946104600F00AFD42
:104DB00000BF1037BD4680BDD34D621040420F008A
:104DC00000CA9A3B80B582B000AF786039603A681B
:104DD0000321786800F004F800BF0837BD4680BDA5
:104DE00080B588B000AFF8600B467A60FB7207F1BF
:104DF00014031846FDF77AFDFB7A3B767B68FB616E
:104E0000FB681B681B6807F114020721F8689847C4
:104E100000BF2037BD4680BD80B582B000AF78604E
:104E200039607B68012B16D13B684FF6FF729342C5
:104E300011D10B48FFF784F80A48FEF751FF002311
:104E4000084A09490948FEF7CDF80123084A0949EB
:104E50000948FFF76FFA00BF0837BD4680BD00BFA5
:104E6000300500206C160020A81E010874160020D2
:104E700071400008B01E01088816002080B582B07D
:104E800000AF786039607B68103339681846FFF7E7
:104E900005F87B689B6D7A6810321046984700BF12
:104EA0000837BD4680BD80B483B000AF78607B68B2
:104EB000DB6D18460C37BD465DF8047B704780B546
:104EC00082B000AF78607B6810331846FFF70CF8AB
:104ED000034618460837BD4680BD80B582B000AF96
:104EE00078607B6810331846FFF70CF803461846C5
:104EF0000837BD4680BD80B483B000AF78607B6862
:104F000003F5805393F8003118460C37BD465DF821
:104F1000047B704780B500AF4FF6FF710120FFF7AB
:104F20007BFF80BD80B582B000AF00237B60104B5B
:104F30005B6C0F4A43F4804353640D4B5B6C03F48A
:104F400080437B607B6800233B60094B1B6C084AF5
:104F500043F080531364064B1B6C03F080533B609B
:104F60003B68072000F0EAFD00BF0837BD4680BD62
:104F70000038024080B58AB000AF786007F11403B2
:104F800000221A605A609A60DA601A617B681B68B6
:104F9000194A93422CD100233B61184B1B6B174AD3
:104FA00043F002031363154B1B6B03F002033B61D9
:104FB0003B694FF410737B611223BB610123FB61DA
:104FC00000233B6204237B6207F1140319460C485B
:104FD00001F0F8F90023FB60084B1B6C074A43F40F
:104FE00000131364054B1B6C03F40013FB60FB6898
:104FF00000BF2837BD4680BD005400400038024045
:105000000004024080B58EB000AF786007F1240341
:1050100000221A605A609A60DA601A617B681B6825
:10502000594A93425BD100233B62584B1B6C574A51
:1050300043F480431364554B1B6C03F480433B6281
:105040003B6A0023FB61514B1B6B504A43F0040346
:1050500013634E4B1B6B03F00403FB61FB690023DE
:10506000BB614A4B1B6B494A43F002031363474B36
:105070001B6B03F00203BB61BB6904237B62022349
:10508000BB620023FB6200233B6306237B6307F1C3
:10509000240319463E4801F095F908237B62022358
:1050A000BB620023FB6200233B6305237B6307F1A4
:1050B00024031946364801F085F94FF4A0537B626A
:1050C0000223BB620023FB6200233B6305237B6357
:1050D00007F1240319462F4801F074F94FE07B686B
:1050E0001B682D4A93424AD100237B61274B1B6CDE
:1050F000264A43F400431364244B1B6C03F400431F
:105100007B617B6900233B61204B1B6B1F4A43F093
:10511000010313631D4B1B6B03F001033B613B69F0
:105120000023FB60194B1B6B184A43F00403136305
:10513000164B1B6B03F00403FB60FB6810237B62C0
:105140000223BB620023FB6200233B6306237B63D5
:1051500007F124031946114801F034F94FF4A45320
:105160007B620223BB620023FB6200233B630623B6
:105170007B6307F124031946054801F023F900BFBA
:105180003837BD4680BD00BF0038004000380240BF
:105190000008024000040240003C004000000240C1
:1051A00080B58AB000AF786007F1140300221A605E
:1051B0005A609A60DA601A617B681B68194A9342E8
:1051C0002BD100233B61184B5B6C174A43F480538F
:1051D0005364154B5B6C03F480533B613B690023C4
:1051E000FB60114B1B6B104A43F0010313630E4B22
:1051F0001B6B03F00103FB60FB68E0237B61022370
:10520000BB610023FB6103233B6205237B6207F143
:1052100014031946054801F0D5F800BF2837BD46EC
:1052200080BD00BF00300140003802400000024055
:1052300080B584B000AF78607B681B68B3F1804FA5
:1052400016D10023FB601A4B1B6C194A43F0010373
:105250001364174B1B6C03F00103FB60FB68022215
:1052600000211C2000F075FC1C2000F08EFC1AE0D0
:105270007B681B680F4A934215D10023BB600C4B1F
:105280001B6C0B4A43F002031364094B1B6C03F0C5
:105290000203BB60BB68032200211D2000F059FC03
:1052A0001D2000F072FC00BF1037BD4680BD00BF5E
:1052B000003802400004004080B58AB000AF78603A
:1052C00007F1140300221A605A609A60DA601A61CA
:1052D0007B681B68214A93423BD100233B61204BF2
:1052E0001B6B1F4A43F0020313631D4B1B6B03F040
:1052F00002033B613B690023FB60194B1B6B184A9F
:1053000043F004031363164B1B6B03F00403FB60B1
:10531000FB6801237B610223BB610023FB61002347
:105320003B6202237B6207F1140319460D4801F02A
:1053300049F840237B610223BB610023FB6100230A
:105340003B6202237B6207F114031946064801F011
:1053500039F800BF2837BD4680BD00BF00040040BB
:1053600000380240000402400008024080B58AB0C4
:1053700000AF786007F1140300221A605A609A6047
:10538000DA601A617B681B685B4A934240F0AF8029
:1053900000233B61594B5B6C584A43F01003536444
:1053A000564B5B6C03F010033B613B690023FB60D1
:1053B000524B1B6B514A43F0010313634F4B1B6B62
:1053C00003F00103FB60FB680023BB604B4B1B6BCE
:1053D0004A4A43F002031363484B1B6B03F002037A
:1053E000BB60BB684FF400437B610223BB610023B9
:1053F000FB6103233B6207237B6207F11403194619
:105400003F4800F0DFFF80237B610223BB61002364
:10541000FB6103233B6207237B6207F114031946F8
:10542000384800F0CFFF384B384A1A60364B4FF0FF
:1054300000625A60344B00229A60334B0022DA60DB
:10544000314B4FF480621A612F4B00225A612E4B70
:1054500000229A612C4B0022DA612B4B00221A6247
:10546000294B00225A62284800F0AAFB0346002B71
:1054700001D0FCF741FF7B68234A9A63224A7B688C
:105480009363234B234A1A60214B4FF000625A600A
:105490001F4B40229A601E4B0022DA601C4B4FF4D7
:1054A00080621A611A4B00225A61194B00229A61DC
:1054B000174B0022DA61164B00221A62144B0022AD
:1054C0005A62134800F07CFB0346002B01D0FCF726
:1054D00013FF7B680E4A5A630D4A7B689363002270
:1054E0000021252000F035FB252000F04EFB00BFF9
:1054F0002837BD4680BD00BF001001400038024083
:1055000000000240000402405004002040640240B9
:10551000B0040020B864024080B400AFFEE780B45D
:1055200000AFFEE780B400AFFEE780B400AFFEE757
:1055300080B400AFFEE780B400AF00BFBD465DF8A9
:10554000047B704780B400AF00BFBD465DF8047BAC
:10555000704780B400AF00BFBD465DF8047B704764
:1055600080B500AF00F0D6F900BF80BD80B500AFB8
:10557000024804F029FB00BF80BD00BF7C0300206F
:1055800080B500AF024804F01FFB00BF80BD00BF24
:10559000C403002080B500AF024805F019FA00BF2F
:1055A00080BD00BF0C04002080B500AF4FF48060C8
:1055B00001F0D8F84FF4006001F0D4F84FF48050B7
:1055C00001F0D0F84FF4005001F0CCF84FF4004057
:1055D00001F0C8F800BF80BD80B500AF024800F000
:1055E00087FC00BF80BD00BF5004002080B500AF25
:1055F000024801F039FB00BF80BD00BF201B002026
:1056000080B500AF024800F073FC00BF80BD00BF52
:10561000B004002080B400AF01231846BD465DF8F9
:10562000047B704780B582B000AF7860396009F0C4
:10563000CDFD034616221A604FF0FF331846083797
:10564000BD4680BD80B582B000AF78604FF0FF31BD
:105650007868FFF7E7FFFEE780B586B000AFF86037
:10566000B9607A6000237B610AE0AFF300800146F5
:10567000BB685A1CBA60CAB21A707B6901337B617D
:105680007A697B689A42F0DB7B6818461837BD461A
:1056900080BD80B586B000AFF860B9607A60002345
:1056A0007B6109E0BB685A1CBA601B781846AFF3EF
:1056B00000807B6901337B617A697B689A42F1DB08
:1056C0007B6818461837BD4680BD80B483B000AFF4
:1056D00078604FF0FF3318460C37BD465DF8047B09
:1056E000704780B483B000AF786039603B684FF496
:1056F00000525A60002318460C37BD465DF8047B03
:10570000704780B483B000AF7860012318460C372F
:10571000BD465DF8047B704780B485B000AFF8608B
:10572000B9607A60002318461437BD465DF8047BE3
:105730007047000080B586B000AF7860144A154B02
:10574000D31A7B617B693B61134B1B68002B02D131
:10575000114B124A1A60104B1A687B6813443A695D
:105760009A4207D209F032FD03460C221A604FF02C
:10577000FF3309E0084B1B68FB60074B1A687B6826
:105780001344054A1360FB6818461837BD4680BDB0
:105790000000022000040000F0160020281E002057
:1057A00080B400AF064BD3F88830054A43F4700349
:1057B000C2F8883000BFBD465DF8047B704700BF6B
:1057C00000ED00E080B485B000AF786039603B68E0
:1057D0001B685A0A0F49A1FB0212D2090E4901FBAC
:1057E00002F29B1AFB603B681B685B0A094AA2FB3A
:1057F0000323DB09BB607B681A68BB681A447B68BB
:105800001A603B68FA681A6000BF1437BD465DF83D
:10581000047B7047834B040000CA9A3BDFF834D006
:105820000D480E490E4A002302E0D458C4500433F8
:10583000C4188C42F9D30B4A0B4C002301E01360CF
:105840000432A242FBD3FFF7ABFF09F0C5FCFCF723
:1058500021F97047000002200000002018020020FB
:105860000024010818020020241E0020FEE700008A
:1058700080B500AF0E4B1B680D4A43F400731360F4
:105880000B4B1B680A4A43F480631360084B1B6888
:10589000074A43F480731360032000F04FF900209F
:1058A00000F008F8FFF73EFB0023184680BD00BF5C
:1058B000003C024080B582B000AF7860124B1A689D
:1058C000124B1B7819464FF47A73B3FBF1F3B2FB1A
:1058D000F3F3184600F067F90346002B01D00123CB
:1058E0000EE07B680F2B0AD8002279684FF0FF305A
:1058F00000F02FF9064A7B681360002300E00123C3
:1059000018460837BD4680BD180000202000002042
:105910001C00002080B400AF064B1B781A46064BD3
:105920001B681344044A136000BFBD465DF8047B46
:10593000704700BF200000204417002080B400AF53
:10594000034B1B681846BD465DF8047B704700BFDB
:105950004417002080B584B000AF7860FFF7EEFFF9
:10596000B8607B68FB60FB68B3F1FF3F05D00A4B72
:105970001B781A46FB681344FB6000BFFFF7DEFF8D
:105980000246BB68D31AFA689A42F7D800BF00BF34
:105990001037BD4680BD00BF2000002080B485B018
:1059A00000AF78607B6803F00703FB600C4BDB689B
:1059B000BB60BA684FF6FF031340BB60FB681A0276
:1059C000BB68134343F0BF6343F40033BB60044A36
:1059D000BB68D36000BF1437BD465DF8047B7047D9
:1059E00000ED00E080B400AF044BDB681B0A03F05D
:1059F00007031846BD465DF8047B704700ED00E0E4
:105A000080B483B000AF0346FB7197F90730002BD9
:105A10000BDBFB7903F01F02074997F907305B099D
:105A2000012000FA02F241F8232000BF0C37BD46E6
:105A30005DF8047B704700BF00E100E080B483B0F4
:105A400000AF03463960FB7197F90730002B0ADB82
:105A50003B68DAB20C4997F907301201D2B20B4415
:105A600083F800230AE03B68DAB20849FB7903F0C7
:105A70000F03043B1201D2B20B441A7600BF0C375D
:105A8000BD465DF8047B704700E100E000ED00E0FA
:105A900080B489B000AFF860B9607A60FB6803F049
:105AA0000703FB61FB69C3F10703042B28BF042331
:105AB000BB61FB690433062B02D9FB69033B00E0A1
:105AC00000237B614FF0FF32BB6902FA03F3DA4334
:105AD000BB681A407B699A404FF0FF317B6901FA3D
