:020000040800F2
:1000000000000220D52600089D240008A324000833
:10001000A9240008AF240008B5240008000000004F
:10002000000000000000000000000000BB240008E9
:10003000C924000800000000D7240008E5240008B7
:100040002527000825270008252700082527000860
:100050002527000825270008252700082527000850
:100060002527000825270008252700082527000840
:100070002527000825270008252700082527000830
:100080002527000825270008252700080000000074
:10009000000000000000000000000000252700080C
:1000A0002527000825270008252700082527000800
:1000B000F124000805250008252700082527000849
:1000C00025270008252700082527000825270008E0
:1000D0002527000825270008252700080000000024
:1000E0001925000825270008252700080000000022
:1000F00000000000000000000000000025270008AC
:1001000000000000252700082527000825270008F3
:1001100000000000000000000000000000000000DF
:10012000252700082527000825270008252700087F
:10013000252700080000000000000000000000006B
:100140000000000000000000000000004925000839
:10015000252700082527000825270008252700084F
:1001600025270008252700080000000000000000E7
:10017000000000000000000000000000000000007F
:10018000000000002527000800000000000000001B
:080190002527000825270008BF
:1001A00010B5054C237833B9044B13B10448AFF3B1
:1001B00000800123237010BD000200200000000019
:1001C000B8CE000808B5034B1BB103490348AFF391
:1001D000008008BD0000000004020020B8CE000826
:1001E000034613F8012B002AFBD1181A0138704777
:1001F00001F0FF01102A2BDB10F0070F08D010F8D8
:10020000013B013A8B422DD010F0070F42B3F6D1DB
:10021000F0B441EA012141EA014122F007047FF0F4
:1002200000070023F0E80256083C85EA010586EA4B
:10023000010685FA47F5A3FA87F586FA47F6A5FA87
:1002400087F68EB9EED1F0BC01F0FF0102F0070293
:1002500032B110F8013B013A83EA010313B1F8D13E
:100260000020704701387047002D06BF354603381F
:10027000073815F0010F07D1013015F4807F02BF58
:10028000013015F4C03F0130F0BC0138704700BFA9
:1002900081F0004102E000BF83F0004330B54FEA37
:1002A00041044FEA430594EA050F08BF90EA020FA4
:1002B0001FBF54EA000C55EA020C7FEA645C7FEA37
:1002C000655C00F0E2804FEA5454D4EB5555B8BF5A
:1002D0006D420CDD2C4480EA020281EA030382EACB
:1002E000000083EA010180EA020281EA0303362D5D
:1002F00088BF30BD11F0004F4FEA01314FF4801C30
:100300004CEA113102D0404261EB410113F0004F41
:100310004FEA03334CEA133302D0524263EB4303F8
:1003200094EA050F00F0A780A4F10104D5F1200E96
:100330000DDB02FA0EFC22FA05F2801841F10001F1
:1003400003FA0EF2801843FA05F359410EE0A5F1C5
:1003500020050EF1200E012A03FA0EFC28BF4CF0F6
:10036000020C43FA05F3C01851EBE37101F00045AC
:1003700007D54FF0000EDCF1000C7EEB00006EEBB9
:100380000101B1F5801F1BD3B1F5001F0CD3490843
:100390005FEA30004FEA3C0C04F101044FEA44529A
:1003A00012F5800F80F09A80BCF1004F08BF5FEA21
:1003B000500C50F1000041EB045141EA050130BD01
:1003C0005FEA4C0C404141EB0101013C28BFB1F513
:1003D000801FE9D291F0000F04BF01460020B1FA5E
:1003E00081F308BF2033A3F10B03B3F120020CDA31
:1003F0000C3208DD02F1140CC2F10C0201FA0CF00F
:1004000021FA02F10CE002F11402D8BFC2F1200C73
:1004100001FA02F120FA0CFCDCBF41EA0C01904029
:10042000E41AA2BF01EB0451294330BD6FEA040472
:100430001F3C1CDA0C340EDC04F11404C4F120025D
:1004400020FA04F001FA02F340EA030021FA04F36F
:1004500045EA030130BDC4F10C04C4F1200220FAC6
:1004600002F001FA04F340EA0300294630BD21FA04
:1004700004F0294630BD94F0000F83F4801306BFCA
:1004800081F480110134013D4EE77FEA645C18BFBE
:100490007FEA655C29D094EA050F08BF90EA020F55
:1004A00005D054EA000C04BF1946104630BD91EA4D
:1004B000030F1EBF0021002030BD5FEA545C05D150
:1004C0004000494128BF41F0004130BD14F580048F
:1004D0003CBF01F5801130BD01F0004545F0FE4103
:1004E00041F470014FF0000030BD7FEA645C1ABF38
:1004F000194610467FEA655C1CBF0B46024650EA6F
:10050000013406BF52EA033591EA030F41F400219A
:1005100030BD00BF90F0000F04BF0021704730B520
:100520004FF4806404F132044FF000054FF00001F5
:1005300050E700BF90F0000F04BF0021704730B5B6
:100540004FF4806404F1320410F0004548BF40428B
:100550004FF000013EE700BF42004FEAE2014FEAE0
:1005600031014FEA02701FBF12F07F4393F07F4FBB
:1005700081F06051704732F07F4208BF704793F0BE
:100580007F4F04BF41F40021704730B54FF46074D1
:1005900001F0004521F000411CE700BF50EA0102D4
:1005A00008BF704730B54FF000050AE050EA01027D
:1005B00008BF704730B511F0004502D5404261EBED
:1005C00041014FF4806404F132045FEA915C3FF42E
:1005D000D8AE4FF003025FEADC0C18BF03325FEACB
:1005E000DC0C18BF033202EBDC02C2F1200300FA7C
:1005F00003FC20FA02F001FA03FE40EA0E0021FAA1
:1006000002F11444BDE600BF70B54FF0FF0C4CF48E
:10061000E06C1CEA11541DBF1CEA135594EA0C0F40
:1006200095EA0C0F00F0DEF82C4481EA030621EA7B
:100630004C5123EA4C5350EA013518BF52EA0335B6
:1006400041F4801143F4801338D0A0FB02CE4FF068
:100650000005E1FB02E506F00042E0FB03E54FF098
:100660000006E1FB03569CF0000F18BF4EF0010E90
:10067000A4F1FF04B6F5007F64F5407404D25FEA8C
:100680004E0E6D4146EB060642EAC62141EA55513F
:100690004FEAC52040EA5E504FEACE2EB4F1FD0C81
:1006A00088BFBCF5E06F1ED8BEF1004F08BF5FEAFF
:1006B000500E50F1000041EB045170BD06F00046B1
:1006C00046EA010140EA020081EA0301B4EB5C045E
:1006D000C2BFD4EB0C0541EA045170BD41F4801156
:1006E0004FF0000E013C00F3AB8014F1360FDEBF7B
:1006F000002001F0004170BDC4F10004203C35DA57
:100700000C341BDC04F11404C4F1200500FA05F3D9
:1007100020FA04F001FA05F240EA020001F000427A
:1007200021F0004110EBD37021FA04F642EB0601F0
:100730005EEA430E08BF20EAD37070BDC4F10C041A
:10074000C4F1200500FA04F320FA05F001FA04F2DE
:1007500040EA020001F0004110EBD37041F10001CA
:100760005EEA430E08BF20EAD37070BDC4F12005D5
:1007700000FA05F24EEA020E20FA04F301FA05F23D
:1007800043EA020321FA04F001F0004121FA04F2E5
:1007900020EA020000EBD3705EEA430E08BF20EAB5
:1007A000D37070BD94F0000F0FD101F000464000EF
:1007B00041EB010111F4801F08BF013CF7D041EA71
:1007C000060195F0000F18BF704703F00046520075
:1007D00043EB030313F4801F08BF013DF7D043EA46
:1007E0000603704794EA0C0F0CEA135518BF95EAFC
:1007F0000C0F0CD050EA410618BF52EA4306D1D183
:1008000081EA030101F000414FF0000070BD50EAA1
:10081000410606BF1046194652EA430619D094EA2B
:100820000C0F02D150EA013613D195EA0C0F05D115
:1008300052EA03361CBF104619460AD181EA030169
:1008400001F0004141F0FE4141F470014FF0000021
:1008500070BD41F0FE4141F4780170BD70B54FF0BC
:10086000FF0C4CF4E06C1CEA11541DBF1CEA13553C
:1008700094EA0C0F95EA0C0F00F0A7F8A4EB05041E
:1008800081EA030E52EA03354FEA013100F0888015
:100890004FEA03334FF0805545EA131343EA1263DE
:1008A0004FEA022245EA111545EA10654FEA002693
:1008B0000EF000419D4208BF964244F1FD0404F54C
:1008C000407402D25B084FEA3202B61A65EB0305A8
:1008D0005B084FEA32024FF480104FF4002CB6EB65
:1008E000020E75EB030E22BFB61A754640EA0C00E5
:1008F0005B084FEA3202B6EB020E75EB030E22BF25
:10090000B61A754640EA5C005B084FEA3202B6EB65
:10091000020E75EB030E22BFB61A754640EA9C0024
:100920005B084FEA3202B6EB020E75EB030E22BFF4
:10093000B61A754640EADC0055EA060E18D04FEAB2
:10094000051545EA16754FEA06164FEAC30343EA52
:1009500052734FEAC2025FEA1C1CC0D111F4801F1F
:100960000BD141EA00014FF000004FF0004CB6E718
:1009700011F4801F04BF01430020B4F1FD0C88BFB7
:10098000BCF5E06F3FF6AFAEB5EB030C04BFB6EBC2
:10099000020C5FEA500C50F1000041EB045170BDB5
:1009A0000EF0004E4EEA113114EB5C04C2BFD4EBE2
:1009B0000C0541EA045170BD41F480114FF0000E66
:1009C000013C90E645EA060E8DE60CEA135594EAE2
:1009D0000C0F08BF95EA0C0F3FF43BAF94EA0C0FE5
:1009E0000AD150EA01347FF434AF95EA0C0F7FF45A
:1009F00025AF104619462CE795EA0C0F06D152EAAE
:100A000003353FF4FDAE1046194622E750EA410691
:100A100018BF52EA43067FF4C5AE50EA41047FF4A2
:100A20000DAF52EA43057FF4EBAE12E74FF0FF3C07
:100A300006E000BF4FF0010C02E000BF4FF0010CD8
:100A40004DF804CD4FEA410C7FEA6C5C4FEA430C51
:100A500018BF7FEA6C5C1BD001B050EA410C0CBFA0
:100A600052EA430C91EA030F02BF90EA020F002002
:100A7000704710F1000F91EA030F58BF994208BF69
:100A800090422CBFD8176FEAE37040F00100704726
:100A90004FEA410C7FEA6C5C02D150EA013C07D17D
:100AA0004FEA430C7FEA6C5CD6D152EA033CD3D0C8
:100AB0005DF8040B704700BF8446104662468C46C2
:100AC0001946634600E000BF01B5FFF7B7FF0028F5
:100AD00048BF10F1000F01BD4DF808EDFFF7F4FF1E
:100AE0000CBF012000205DF808FB00BF4DF808EDA9
:100AF000FFF7EAFF34BF012000205DF808FB00BFCC
:100B00004DF808EDFFF7E0FF94BF012000205DF8ED
:100B100008FB00BF4DF808EDFFF7CEFF94BF0120A2
:100B200000205DF808FB00BF4DF808EDFFF7C4FF9B
:100B300034BF012000205DF808FB00BF4FEA410CE4
:100B40007FEA6C5C02D150EA013C0AD14FEA430CC7
:100B50007FEA6C5C02D152EA033C02D14FF0000004
:100B600070474FF0010070474FEA410212F5001242
:100B700015D211D56FF47873B3EB625212D94FEAE4
:100B8000C12343F0004343EA505311F0004F23FACE
:100B900002F018BF404270474FF00000704750EA23
:100BA000013005D111F0004008BF6FF000407047E0
:100BB0004FF00000704700BF4FEA4102B2F1E0433E
:100BC00024BFB3F5001CDCF1FE5C0DD901F0004C34
:100BD0004FEAC0024CEA5070B2F1004F40EB830084
:100BE00008BF20F00100704711F0804F21D113F1B0
:100BF0003872BCBF01F00040704741F480114FEAE9
:100C00005252C2F11802C2F1200C10FA0CF320FA71
:100C100002F018BF40F001004FEAC1234FEAD3238E
:100C200003FA0CFC40EA0C0023FA02F34FEA4303F8
:100C3000CCE77FEA625307D150EA01331EBF4FF081
:100C4000FE4040F44000704701F0004040F0FE409C
:100C500040F40000704700BF53B94AB9002908BFEB
:100C600000281CBF4FF0FF314FF0FF3000F074B987
:100C7000ADF1080C6DE904CE00F006F8DDF804E0F3
:100C8000DDE9022304B070472DE9F047089D0446D2
:100C90008E46002B4DD18A42944669D9B2FA82F22F
:100CA00052B101FA02F3C2F1200120FA01F10CFA6B
:100CB00002FC41EA030E94404FEA1C48210CBEFBA3
:100CC000F8F61FFA8CF708FB16E341EA034306FB2C
:100CD00007F199420AD91CEB030306F1FF3080F0BB
:100CE0001F81994240F21C81023E63445B1AA4B208
:100CF000B3FBF8F008FB103344EA034400FB07F7AA
:100D0000A7420AD91CEB040400F1FF3380F00A81EA
:100D1000A74240F207816444023840EA0640E41BDF
:100D200000261DB1D4400023C5E900433146BDE88B
:100D3000F0878B4209D9002D00F0EF800026C5E92D
:100D4000000130463146BDE8F087B3FA83F6002E45
:100D50004AD18B4202D3824200F2F980841A61EBBD
:100D6000030301209E46002DE0D0C5E9004EDDE7DB
:100D700002B9FFDEB2FA82F2002A40F09280A1EBC3
:100D80000C014FEA1C471FFA8CFE0126200CB1FB18
:100D9000F7F307FB131140EA01410EFB03F0884211
:100DA00008D91CEB010103F1FF3802D2884200F29E
:100DB000CB804346091AA4B2B1FBF7F007FB101130
:100DC00044EA01440EFB00FEA64508D91CEB0404CE
:100DD00000F1FF3102D2A64500F2BB800846A4EB29
:100DE0000E0440EA03409CE7C6F12007B34022FA14
:100DF00007FC4CEA030C20FA07F401FA06F31C4343
:100E0000F9404FEA1C4900FA06F3B1FBF9F8200C4F
:100E10001FFA8CFE09FB181140EA014108FB0EF095
:100E2000884202FA06F20BD91CEB010108F1FF3AE5
:100E300080F08880884240F28580A8F102086144F1
:100E4000091AA4B2B1FBF9F009FB101144EA0141FF
:100E500000FB0EFE8E4508D91CEB010100F1FF34AA
:100E60006CD28E456AD90238614440EA0840A0FB42
:100E70000294A1EB0E01A142C846A64656D353D018
:100E80005DB1B3EB080261EB0E0101FA07F722FA3C
:100E900006F3F1401F43C5E9007100263146BDE865
:100EA000F087C2F12003D8400CFA02FC21FA03F3C8
:100EB000914001434FEA1C471FFA8CFEB3FBF7F049
:100EC00007FB10360B0C43EA064300FB0EF69E426E
:100ED00004FA02F408D91CEB030300F1FF382FD207
:100EE0009E422DD9023863449B1B89B2B3FBF7F6AF
:100EF00007FB163341EA034106FB0EF38B4208D988
:100F00001CEB010106F1FF3816D28B4214D9023EC8
:100F10006144C91A46EA004638E72E46284605E7E6
:100F20000646E3E61846F8E64B45A9D2B9EB0208B7
:100F300064EB0C0E0138A3E74646EAE7204694E747
:100F40004046D1E7D0467BE7023B614432E730467A
:100F500009E76444023842E7704700BF80B582B0B9
:100F600000AF0346FB80FB88B3F5806F40F0A180A3
:100F70004FF48061924801F003FF0346002B14BF39
:100F800001230023DAB28F4B1A708E4B1B781A465E
:100F90008D4B1B781343DAB28B4B1A708A4B1B783C
:100FA0005B00DAB2884B1A704FF40061844801F09C
:100FB000E7FE0346002B14BF01230023DAB2834B64
:100FC0001A70824B1B781A467F4B1B781343DAB298
:100FD0007D4B1A707C4B1B7803F00303DAB27A4B1B
:100FE0001A70794B1B78032B5DD801A252F823F0BD
:100FF00001100008271000084D10000873100008A9
:10100000734B1B68012B04D1724B1B680133714A6F
:1010100013606F4B1B68022B3ED16E4B1B68013B6C
:101020006C4A136038E06A4B1B68032B04D1694B90
:101030001B680133674A1360654B1B68002B2DD179
:10104000644B1B68013B634A136027E0604B1B68DD
:10105000002B04D15F4B1B6801335E4A13605C4B6D
:101060001B68032B1CD15B4B1B68013B594A136067
:1010700016E0574B1B68022B04D1564B1B680133FB
:10108000544A1360524B1B68012B0BD1514B1B6808
:10109000013B504A136005E000BF04E000BF02E0DE
:1010A00000BF00E000BF484B1B781A46484B1A604F
:1010B00015E2FB88B3F5006F40F0B0804FF480611B
:1010C0003F4801F05DFE0346002B14BF01230023BF
:1010D000DAB23C4B1A703B4B1B781A463E4B1B78DE
:1010E0001343DAB23C4B1A703B4B1B785B00DAB20D
:1010F000394B1A704FF40061314801F041FE03464C
:10110000002B14BF01230023DAB2304B1A702F4B8F
:101110001B781A46304B1B781343DAB22E4B1A70E9
:101120002D4B1B7803F00303DAB22B4B1A702A4BBA
:101130001B78032B6CD801A252F823F04D11000844
:101140007311000899110008DD110008204B1B687D
:10115000012B04D11F4B1B6801331E4A13601C4B2B
:101160001B68022B4DD11B4B1B68013B194A1360B6
:1011700047E0174B1B68032B04D1164B1B68013348
:10118000144A1360124B1B68002B3CD1114B1B6897
:10119000013B104A136036E00D4B1B68002B04D155
:1011A0000C4B1B6801330B4A1360094B1B68032B64
:1011B0002BD1084B1B68013B064A136025E000BF9A
:1011C000001002401C0200201D0200201E02002010
:1011D00054020020A80200201F020020934B1B682D
:1011E000022B04D1924B1B680133914A13608F4B41
:1011F0001B68012B0BD18E4B1B68013B8C4A136083
:1012000005E000BF04E000BF02E000BF00E000BF57
:10121000884B1B781A46854B1A6060E1FB88B3F552
:10122000805F40F0A2804FF48051834801F0A8FD18
:101230000346002B14BF01230023DAB27F4B1A7040
:101240007E4B1B781A467E4B1B781343DAB27C4BDD
:101250001A707B4B1B785B00DAB2794B1A704FF433
:101260000051754801F08CFD0346002B14BF01238B
:101270000023DAB2734B1A70724B1B781A46704B0C
:101280001B781343DAB26E4B1A706D4B1B7803F068
:101290000303DAB26A4B1A70694B1B78032B5ED8D2
:1012A00001A252F823F000BFB9120008DF120008B3
:1012B000051300082B130008634B1B68012B04D196
:1012C000624B1B680133614A13605F4B1B68022B42
:1012D0003ED15E4B1B68013B5C4A136038E05A4BC1
:1012E0001B68032B04D1594B1B680133574A136009
:1012F000554B1B68002B2DD1544B1B68013B534AA7
:10130000136027E0504B1B68002B04D14F4B1B6828
:1013100001334E4A13604C4B1B68032B1CD14B4BC3
:101320001B68013B494A136016E0474B1B68022BC0
:1013300004D1464B1B680133444A1360424B1B687F
:10134000012B0BD1414B1B68013B404A136005E068
:1013500000BF04E000BF02E000BF00E000BF384B68
:101360001B781A46384B1A60B9E0FB88B3F5005F6A
:1013700040F0B5804FF480512F4801F001FD034645
:10138000002B14BF01230023DAB22C4B1A702B4B15
:101390001B781A462E4B1B781343DAB22C4B1A706B
:1013A0002B4B1B785B00DAB2294B1A704FF40051BB
:1013B000214801F0E5FC0346002B14BF0123002364
:1013C000DAB2204B1A701F4B1B781A46204B1B7841
:1013D0001343DAB21E4B1A701D4B1B7803F0030344
:1013E000DAB21B4B1A701A4B1B78032B72D801A26E
:1013F00052F823F005140008551400087B14000867
:10140000A1140008104B1B68012B04D10F4B1B6863
:1014100001330E4A13600C4B1B68022B53D10B4B4C
:101420001B68013B094A13604DE000BF54020020D5
:10143000A80200201F02002000100240200200200D
:101440002102002022020020980200205C020020DD
:1014500023020020244B1B68032B04D1234B1B6861
:101460000133224A1360204B1B68002B2DD11F4BE8
:101470001B68013B1D4A136027E01B4B1B68002BB8
:1014800004D11A4B1B680133184A1360164B1B68B2
:10149000032B1CD1154B1B68013B144A136016E04B
:1014A000114B1B68022B04D1104B1B6801330F4AF0
:1014B00013600D4B1B68012B0BD10C4B1B68013BC0
:1014C0000A4A136005E000BF04E000BF02E000BF6D
:1014D00000E000BF064B1B781A46034B1A6000BFA2
:1014E0000837BD4680BD00BF980200205C02002086
:1014F0002302002000000000B0B582B000AF786089
:10150000474B1B680133464A1360454B1B68642BED
:1015100077D1444B1B685B001846FFF70BF83CA3E0
:10152000D3E90023FFF770F802460B4614461D4628
:101530003B4B1B681846FEF7FDFF37A3D3E900239A
:10154000FFF762F802460B4620462946FFF786F968
:1015500002460B4610461946FFF72EFB0346324A59
:101560001360304B1A6813461B019B1A9B001846E8
:10157000FEF7E0FF04460D46294B1B681846FEF7B0
:10158000D9FF25A3D3E90023FFF73EF802460B4617
:1015900020462946FFF762F902460B4610461946D7
:1015A000FFF70AFB0346214A13601E4B1B684FF4EA
:1015B000B47202FB03F31E4A82FB03129212DB1782
:1015C000D31A07EE903AB8EEE77A1A4BD3ED007AC9
:1015D00077EE277A184BC3ED007A174B1B68154A34
:1015E0001360124B1B681846FEF7B6FF02460B4607
:1015F000124809F085FC0B4B00221A60084B0022B0
:101600001A6000BF0837BD46B0BD00BFAFF3008011
:10161000182D4454FB2109401B2FDD240681154061
:10162000680200205C0200207C020020A40200204E
:10163000310CC3307002002060020020D0CE0008C0
:10164000B0B586B000AFF860B9607A607C4B7B6162
:10165000FB6893ED007ABB68D3ED007A77EE677A8A
:10166000784BC3ED007A774B1B681846FEF774FF82
:1016700069A3D3E90023FEF7C7FF02460B461046D5
:101680001946FFF799FA03466F4A13606F4B1B68C0
:101690001846FEF761FF04460D466A4B1B68184664
:1016A000FEF75AFF5EA3D3E90023FEF7ADFF024623
:1016B0000B46104619465CA3D3E90023FEF7A4FFAE
:1016C00002460B4620462946FEF7E8FD02460B4639
:1016D00010461946FFF770FA03465D4A13605C4BEB
:1016E00093ED007A584BD3ED007A77EE277A594B79
:1016F000C3ED007A574BD3ED007A97ED057AB4EE3F
:10170000E77AF1EE10FA0BDD524B1B68524A136078
:10171000524B4FF000021A604E4B1A687B681A60F9
:101720004C4BD3ED007A97ED057AB4EEE77AF1EE03
:1017300010FA68D5484A7B691360474B93ED007AED
:10174000444BD3ED007A77EE677A444BC3ED007AD1
:101750003C4B1B681846FEF7FFFE31A3D3E900237C
:10176000FEF752FF02460B4614461D463B4B1B68D4
:101770001846FEF7F1FE2EA3D3E90023FEF744FF3F
:1017800002460B4620462946FEF788FD02460B46D8
:1017900010461946FFF710FA0346314A13602B4BE7
:1017A0001B681846FEF7D8FE04460D462C4B1B68F6
:1017B0001846FEF7D1FE1AA3D3E90023FEF724FF53
:1017C00002460B46104619461BA3D3E90023FEF739
:1017D0001BFF02460B4620462946FEF75FFD0246E8
:1017E0000B4610461946FFF7E7F90346184A1360FF
:1017F000154B93ED007A164BD3ED007A77EE277AEE
:101800007B68C3ED007A124B1B68104A136000BF5F
:101810001837BD46B0BD00BF1D5A643BDF4FCD3FFA
:101820009A99999999992E409A9999999999B93F24
:1018300046B6F3FDD43836409A9999999999E93F7B
:101840000000C84324020020280200202C020020AF
:10185000300200203402002038020020A0020020C4
:101860007402002080B400AF00BFBD465DF8047B69
:10187000704780B400AF00BFBD465DF8047B704781
:1018800080B483B000AF78604FF06043D3F8803EFF
:1018900003F00103002B13D04FF06043D3F8003E58
:1018A00003F00103002B0BD000E000BF4FF06043BA
:1018B0001B68002BF9D04FF060437A68D2B21A70DF
:1018C0007B6818460C37BD465DF8047B704780B5D1
:1018D00086B000AFF860B9607A6000237B610023B6
:1018E0007B6109E0BB685A1CBA601B781846FFF799
:1018F000C7FF7B6901337B617A697B689A42F1DBC0
:101900007B6818461837BD4680BD000080B500AF23
:1019100000F00AFF00F05CF800F0C2F800F070FA86
:1019200000F0DEF800F00AF900F036F900F064F992
:1019300008F052FA00F0E2F900F094F91D4804F0C2
:1019400003FB00211C4804F0BBFB08211A4804F0EB
:10195000B7FB00224FF48071184801F029FA0122E8
:101960004FF40071154801F023FA002202211448B7
:1019700001F01EFA01220421114801F019FA08F0C1
:1019800051FAFFF76FFFFFF774FF0E4A0E490F4839
:10199000FFF756FE642000F039FF0A4BD3ED007AC2
:1019A000F0EEE77A044B1B68FCEEE77A17EE902A1C
:1019B000DA63E4E7A00300200003002000100240E7
:1019C0000004024078040020A4020020000000204F
:1019D00080B594B000AF07F12003302200211846F3
:1019E00008F03CFD07F10C0300221A605A609A606F
:1019F000DA601A610023BB60274B1B6C264A43F058
:101A000080531364244B1B6C03F08053BB60BB6892
:101A100000237B60214B1B68204A43F44043136042
:101A20001E4B1B6803F440437B607B6801233B62D1
:101A30004FF480337B620223BB634FF48003FB636C
:101A400004233B64C0237B640423BB640823FB643E
:101A500007F12003184603F0CBFB0346002B01D00F
:101A600000F0F2FA0F23FB6002233B6100237B614D
:101A70004FF4A053BB610023FB6107F10C0303216A
:101A8000184603F02DFE0346002B01D000F0DCFACF
:101A900000BF5037BD4680BD003802400070004096
:101AA00080B586B000AF3B4600221A605A609A604B
:101AB000DA601A615A6101233B60C823BB600523C9
:101AC0007B600223FB603B46184604F015F8034692
:101AD000002B01D000F0B8FA00BF1837BD4680BD1A
:101AE00080B500AF124B134A1A60114B124A5A606C
:101AF0000F4B00229A600E4B0022DA600C4B4FF421
:101B000080421A610A4B00225A61094B00229A61F5
:101B1000074B0022DA61064B00221A62044802F0E9
:101B200083FD0346002B01D000F08EFA00BF80BD7C
:101B3000AC02002000540040A086010080B500AF38
:101B4000124B134A1A60114B4FF400725A600F4B3C
:101B500000229A600D4B0022DA600C4B00221A61C1
:101B60000A4B0C4A5A61094B00229A61074B00222A
:101B7000DA61064B01221A62044802F099FE03461C
:101B8000002B01D000F060FA00BF80BDE803002008
:101B9000003800400077010080B500AF134B144AB5
:101BA0001A60124B4FF400725A60104B00229A6078
:101BB0000E4B0022DA600D4B4FF400721A610B4B92
:101BC0000C4A5A61094B00229A61084B0022DA61E3
:101BD000064B00221A62054802F06AFE0346002BFB
:101BE00001D000F031FA00BF80BD00BF30040020FA
:101BF000003C00400077010080B500AF174B184A49
:101C00001A60164B4FF482725A60144B00229A608D
:101C1000124B0022DA60114B00221A610F4B002296
:101C20005A610E4B4FF400729A610C4B0022DA613C
:101C30000A4B00221A62094B00225A62074B00220B
:101C40009A62064B0A22DA62044804F0A5F80346B9
:101C5000002B01D000F0F8F900BF80BD4803002040
:101C60000030014080B586B000AF07F108030022C4
:101C70001A605A609A60DA603B4600221A605A6025
:101C80001D4B4FF080421A601B4B2F225A601A4B9B
:101C900000229A60184B4FF47A72DA60164B0022D9
:101CA0001A61154B00229A61134804F0FEF80346AE
:101CB000002B01D000F0C8F94FF48053BB6007F14E
:101CC000080319460C4804F075FC0346002B01D0AC
:101CD00000F0BAF900233B6000237B603B461946C5
:101CE000054805F023F80346002B01D000F0ACF9BD
:101CF00000BF1837BD4680BDA003002080B58EB060
:101D000000AF07F1280300221A605A609A60DA6077
:101D100007F1200300221A605A603B1D00221A605E
:101D20005A609A60DA601A615A619A61324B334A9A
:101D30001A60314B0B225A602F4B00229A602E4BB7
:101D40004FF4C872DA602C4B00221A612A4B002231
:101D50009A61294804F0A9F80346002B01D000F04D
:101D600073F94FF48053BB6207F1280319462248E8
:101D700004F020FC0346002B01D000F065F91E485A
:101D800004F044F90346002B01D000F05DF9002374
:101D90003B6200237B6207F120031946164804F0DA
:101DA000C5FF0346002B01D000F04EF960237B6095
:101DB0000023BB600023FB6000237B613B1D0022EE
:101DC00019460D4804F034FB0346002B01D000F007
:101DD0003BF93B1D08221946074804F029FB03463E
:101DE000002B01D000F030F9034800F0FDFA00BFED
:101DF0003837BD4680BD00BF00030020000400400E
:101E000080B58CB000AF07F11C0300221A605A6045
:101E10009A60DA601A610023BB61854B1B6B844AB0
:101E200043F010031363824B1B6B03F01003BB6181
:101E3000BB6900237B617E4B1B6B7D4A43F004032F
:101E400013637B4B1B6B03F004037B617B690023F3
:101E50003B61774B1B6B764A43F080031363744BF3
:101E60001B6B03F080033B613B690023FB60704BFD
:101E70001B6B6F4A43F0010313636D4B1B6B03F045
:101E80000103FB60FB680023BB60694B1B6B684A66
:101E900043F002031363664B1B6B03F00203BB604A
:101EA000BB6800237B60624B1B6B614A43F00803F5
:101EB00013635F4B1B6B03F008037B607B6800229E
:101EC0004FF442715B4800F073FF012201215A4830
:101ED00000F06EFF00220621584800F069FF002242
:101EE0004FF21001564800F063FF0423FB6100230A
:101EF0003B6200237B6207F11C0319464D4800F04A
:101F0000BBFD4FF44273FB6101233B6200237B6204
:101F10000023BB6207F11C031946464800F0ACFDE4
:101F20003223FB614FF490133B6200237B6207F185
:101F30001C0319463F4800F09FFD0123FB6101236C
:101F40003B6200237B620023BB6207F11C0319463E
:101F5000394800F091FD0123FB614FF490133B627F
:101F600000237B6207F11C031946364800F084FD0C
:101F70000623FB6101233B6200237B620023BB62DB
:101F800007F11C0319462D4800F076FD4FF47053FD
:101F9000FB614FF444133B6200237B6207F11C0397
:101FA0001946244800F068FD4FF40043FB614FF4EC
:101FB00088133B6200237B6207F11C0319461F480C
:101FC00000F05AFD4FF48073FB614FF488133B62BD
:101FD00000237B6207F11C031946194800F04CFDF1
:101FE0004FF21003FB6101233B6200237B6200235D
:101FF000BB6207F11C031946114800F03DFD202388
:10200000FB6100233B6200237B6207F11C0319463E
:102010000B4800F031FD00220021282000F0F5FCE3
:10202000282000F00EFD00BF3037BD4680BD00BF48
:102030000038024000100240000802400004024044
:10204000000C02400000024080B400AF72B600BF36
:10205000FEE7000080B582B000AF00237B60104B2C
:102060005B6C0F4A43F4804353640D4B5B6C03F489
:1020700080437B607B6800233B60094B1B6C084AF4
:1020800043F080531364064B1B6C03F080533B609A
:102090003B68072000F0AEFC00BF0837BD4680BD9E
:1020A0000038024080B58AB000AF786007F11403B1
:1020B00000221A605A609A60DA601A617B681B68B5
:1020C000194A93422CD100233B61184B1B6B174AD2
:1020D00043F002031363154B1B6B03F002033B61D8
:1020E0003B694FF410737B611223BB610123FB61D9
:1020F00000233B6204237B6207F1140319460C485A
:1021000000F0BAFC0023FB60084B1B6C074A43F449
:1021100000131364054B1B6C03F40013FB60FB6896
:1021200000BF2837BD4680BD005400400038024043
:102130000004024080B58EB000AF786007F1240340
:1021400000221A605A609A60DA601A617B681B6824
:10215000594A93425BD100233B62584B1B6C574A50
:1021600043F480431364554B1B6C03F480433B6280
:102170003B6A0023FB61514B1B6B504A43F0040345
:1021800013634E4B1B6B03F00403FB61FB690023DD
:10219000BB614A4B1B6B494A43F002031363474B35
:1021A0001B6B03F00203BB61BB6904237B62022348
:1021B000BB620023FB6200233B6306237B6307F1C2
:1021C000240319463E4800F057FC08237B62022393
:1021D000BB620023FB6200233B6305237B6307F1A3
:1021E00024031946364800F047FC4FF4A0537B62A5
:1021F0000223BB620023FB6200233B6305237B6356
:1022000007F1240319462F4800F036FC4FE07B68A5
:102210001B682D4A93424AD100237B61274B1B6CDC
:10222000264A43F400431364244B1B6C03F400431D
:102230007B617B6900233B61204B1B6B1F4A43F092
:10224000010313631D4B1B6B03F001033B613B69EF
:102250000023FB60194B1B6B184A43F00403136304
:10226000164B1B6B03F00403FB60FB6810237B62BF
:102270000223BB620023FB6200233B6306237B63D4
:1022800007F124031946114800F0F6FB4FF4A4535C
:102290007B620223BB620023FB6200233B630623B5
:1022A0007B6307F124031946054800F0E5FB00BFF6
:1022B0003837BD4680BD00BF0038004000380240BE
:1022C0000008024000040240003C004000000240C0
:1022D00080B58AB000AF786007F1140300221A605D
:1022E0005A609A60DA601A617B681B68194A9342E7
:1022F0002BD100233B61184B5B6C174A43F480538E
:102300005364154B5B6C03F480533B613B690023C2
:10231000FB60114B1B6B104A43F0010313630E4B20
:102320001B6B03F00103FB60FB68E0237B6102236E
:10233000BB610023FB6103233B6205237B6207F142
:1023400014031946054800F097FB00BF2837BD4627
:1023500080BD00BF00300140003802400000024054
:1023600080B584B000AF78607B681B68B3F1804FA4
:1023700016D10023FB601A4B1B6C194A43F0010372
:102380001364174B1B6C03F00103FB60FB68022214
:1023900000211C2000F039FB1C2000F052FB1AE049
:1023A0007B681B680F4A934215D10023BB600C4B1E
:1023B0001B6C0B4A43F002031364094B1B6C03F0C4
:1023C0000203BB60BB68032200211D2000F01DFB3F
:1023D0001D2000F036FB00BF1037BD4680BD00BF9A
:1023E000003802400004004080B58AB000AF786039
:1023F00007F1140300221A605A609A60DA601A61C9
:102400007B681B68214A93423BD100233B61204BF0
:102410001B6B1F4A43F0020313631D4B1B6B03F03E
:1024200002033B613B690023FB60194B1B6B184A9D
:1024300043F004031363164B1B6B03F00403FB60B0
:10244000FB6801237B610223BB610023FB61002346
:102450003B6202237B6207F1140319460D4800F02A
:102460000BFB40237B610223BB610023FB61002344
:102470003B6202237B6207F114031946064800F011
:10248000FBFA00BF2837BD4680BD00BF00040040F6
:1024900000380240000402400008024080B400AF4F
:1024A000FEE780B400AFFEE780B400AFFEE780B483
:1024B00000AFFEE780B400AFFEE780B400AF00BF1E
:1024C000BD465DF8047B704780B400AF00BFBD46D9
:1024D0005DF8047B704780B400AF00BFBD465DF877
:1024E000047B704780B500AF00F070F900BF80BD7D
:1024F00080B500AF024803F093FE00BF80BD00BF6F
:10250000A003002080B500AF024803F089FE00BFA1
:1025100080BD00BF0003002080B500AF4FF4806095
:1025200000F060FC4FF4006000F05CFC4FF4805061
:1025300000F058FC4FF4005000F054FC4FF4004001
:1025400000F050FC00BF80BD80B500AF024800F035
:10255000CBFE00BF80BD00BF5808002080B400AF94
:1025600001231846BD465DF8047B704780B582B0F4
:1025700000AF7860396007F037FF034616221A6013
:102580004FF0FF3318460837BD4680BD80B582B096
:1025900000AF78604FF0FF317868FFF7E7FFFEE7A4
:1025A00080B586B000AFF860B9607A6000237B61C7
:1025B0000AE0AFF300800146BB685A1CBA60CAB299
:1025C0001A707B6901337B617A697B689A42F0DB20
:1025D0007B6818461837BD4680BD80B483B000AF15
:1025E00078604FF0FF3318460C37BD465DF8047B2A
:1025F000704780B483B000AF786039603B684FF4B7
:1026000000525A60002318460C37BD465DF8047B23
:10261000704780B483B000AF7860012318460C3750
:10262000BD465DF8047B704780B485B000AFF860AC
:10263000B9607A60002318461437BD465DF8047B04
:102640007047000080B586B000AF7860144A154B23
:10265000D31A7B617B693B61134B1B68002B02D152
:10266000114B124A1A60104B1A687B6813443A697E
:102670009A4207D207F0B8FE03460C221A604FF0C8
:10268000FF3309E0084B1B68FB60074B1A687B6847
:102690001344054A1360FB6818461837BD4680BDD1
:1026A00000000220000400003C020020600B00201B
:1026B00080B400AF064BD3F88830054A43F470036A
:1026C000C2F8883000BFBD465DF8047B704700BF8C
:1026D00000ED00E0DFF834D00D480E490E4A00232B
:1026E00002E0D458C4500433C4188C42F9D30B4AC6
:1026F0000B4C002301E013600432A242FBD3FFF72E
:10270000D7FF07F077FEFFF701F9704700000220BE
:102710000000002000020020DCD20008000200209F
:102720005C0B0020FEE7000080B500AF0E4B1B687D
:102730000D4A43F4007313600B4B1B680A4A43F4C1
:1027400080631360084B1B68074A43F4807313606F
:10275000032000F04FF9002000F008F8FFF77AFCA2
:102760000023184680BD00BF003C024080B582B007
:1027700000AF7860124B1A68124B1B7819464FF461
:102780007A73B3FBF1F3B2FBF3F3184600F067F989
:102790000346002B01D001230EE07B680F2B0AD8E3
:1027A000002279684FF0FF3000F02FF9064A7B686D
:1027B0001360002300E0012318460837BD4680BDA2
:1027C000040000200C0000200800002080B400AFAE
:1027D000064B1B781A46064B1B681344044A1360C9
:1027E00000BFBD465DF8047B704700BF0C000020B1
:1027F0007C04002080B400AF034B1B681846BD4624
:102800005DF8047B704700BF7C04002080B584B075
:1028100000AF7860FFF7EEFFB8607B68FB60FB6895
:10282000B3F1FF3F05D00A4B1B781A46FB681344EF
:10283000FB6000BFFFF7DEFF0246BB68D31AFA68F1
:102840009A42F7D800BF00BF1037BD4680BD00BF19
:102850000C00002080B485B000AF78607B6803F086
:102860000703FB600C4BDB68BB60BA684FF6FF03E5
:102870001340BB60FB681A02BB68134343F0BF639D
:1028800043F40033BB60044ABB68D36000BF143715
:10289000BD465DF8047B704700ED00E080B400AFFA
:1028A000044BDB681B0A03F007031846BD465DF8BE
:1028B000047B704700ED00E080B483B000AF0346B6
:1028C000FB7197F90730002B0BDBFB7903F01F023C
:1028D000074997F907305B09012000FA02F241F835
:1028E000232000BF0C37BD465DF8047B704700BF56
:1028F00000E100E080B483B000AF03463960FB71B3
:1029000097F90730002B0ADB3B68DAB20C4997F9DC
:1029100007301201D2B20B4483F800230AE03B686F
:10292000DAB20849FB7903F00F03043B1201D2B27B
:102930000B441A7600BF0C37BD465DF8047B704728
:1029400000E100E000ED00E080B489B000AFF86085
:10295000B9607A60FB6803F00703FB61FB69C3F1B0
:102960000703042B28BF0423BB61FB690433062B38
:1029700002D9FB69033B00E000237B614FF0FF328B
:10298000BB6902FA03F3DA43BB681A407B699A40D9
:102990004FF0FF317B6901FA03F3D9437B680B40A9
:1029A000134318462437BD465DF8047B704700008A
:1029B00080B582B000AF78607B68013BB3F1807F67
:1029C00001D301230FE00A4A7B68013B53600F21CA
:1029D0004FF0FF30FFF78EFF054B00229A60044B4B
:1029E00007221A60002318460837BD4680BD00BF85
:1029F00010E000E080B582B000AF78607868FFF743
:102A000029FF00BF0837BD4680BD80B586B000AF46
:102A10000346B9607A60FB7300237B61FFF73EFFDA
:102A200078617A68B9687869FFF78EFF024697F98E
:102A30000F3011461846FFF75DFF00BF1837BD463F
:102A400080BD80B582B000AF0346FB7197F90730B7
:102A50001846FFF731FF00BF0837BD4680BD80B57F
:102A600082B000AF78607868FFF7A2FF034618468F
:102A70000837BD4680BD000080B489B000AF7860E3
:102A8000396000237B6100233B610023BB6100238D
:102A9000FB6159E10122FB6902FA03F37B613B68A8
:102AA0001B687A6913403B613A697B699A4240F03E
:102AB00048813B685B6803F00303012B05D03B684A
:102AC0005B6803F00303022B30D17B689B68BB611A
:102AD000FB695B00032202FA03F3DB43BA6913408C
:102AE000BB613B68DA68FB695B0002FA03F3BA6911
:102AF0001343BB617B68BA699A607B685B68BB61A2
:102B00000122FB6902FA03F3DB43BA691340BB619C
:102B10003B685B681B0903F00102FB6902FA03F3DF
:102B2000BA691343BB617B68BA695A603B685B68EA
:102B300003F00303032B17D07B68DB68BB61FB69E1
:102B40005B00032202FA03F3DB43BA691340BB6163
:102B50003B689A68FB695B0002FA03F3BA691343A6
:102B6000BB617B68BA69DA603B685B6803F00303AA
:102B7000022B23D1FB69DA087B68083253F8223034
:102B8000BB61FB6903F007039B000F2202FA03F30A
:102B9000DB43BA691340BB613B681A69FB6903F008
:102BA00007039B0002FA03F3BA691343BB61FB6995
:102BB000DA087B680832B96943F822107B681B6821
:102BC000BB61FB695B00032202FA03F3DB43BA69D2
:102BD0001340BB613B685B6803F00302FB695B0069
:102BE00002FA03F3BA691343BB617B68BA691A60DE
:102BF0003B685B6803F44033002B00F0A2800023A5
:102C0000FB60574B5B6C564A43F480435364544B10
:102C10005B6C03F48043FB60FB68524AFB699B08D2
:102C2000023352F82330BB61FB6903F003039B00BE
:102C30000F2202FA03F3DB43BA691340BB617B68DE
:102C4000494A934219D07B68484A934213D07B6823
:102C5000474A93420DD07B68464A934207D07B682F
:102C6000454A934201D1042308E0072306E00323E9
:102C700004E0022302E0012300E00023FA6902F0ED
:102C8000030292009340BA691343BB613549FB6963
:102C90009B080233BA6941F82320384B9B68BB611B
:102CA0003B69DB43BA691340BB613B685B6803F473
:102CB0008013002B03D0BA693B691343BB612F4AD1
:102CC000BB6993602D4BDB68BB613B69DB43BA6931
:102CD0001340BB613B685B6803F40013002B03D017
:102CE000BA693B691343BB61244ABB69D360234B78
:102CF0005B68BB613B69DB43BA691340BB613B68FE
:102D00005B6803F40033002B03D0BA693B691343BB
:102D1000BB611A4ABB695360184B1B68BB613B69B6
:102D2000DB43BA691340BB613B685B6803F48033E3
:102D3000002B03D0BA693B691343BB610F4ABB69DF
:102D40001360FB690133FB61FB690F2B7FF6A2AEB9
:102D500000BF00BF2437BD465DF8047B704700BF4D
:102D600000380240003801400000024000040240E8
:102D700000080240000C024000100240003C0140EC
:102D800080B485B000AF78600B467B807B681A69A1
:102D90007B881340002B02D00123FB7301E000234A
:102DA000FB73FB7B18461437BD465DF8047B704708
:102DB00080B483B000AF78600B467B8013467B7095
:102DC0007B78002B03D07A887B689A6103E07B884C
:102DD0001A047B689A6100BF0C37BD465DF8047B1E
:102DE0007047000080B582B000AF0346FB80084BFF
:102DF0005A69FB881340002B06D0054AFB885361B3
:102E0000FB881846FEF7AAF800BF0837BD4680BD0C
:102E1000003C0140F0B58FB00AAF78607B68002BB2
:102E200001D1012354E07B681B68FB607B6893F849
:102E3000F932DBB2002B06D17B68002283F8F8223E
:102E4000786807F027F87B68032283F8F922FB688B
:102E5000DB6B03F48073002B02D17B6800221A61C4
:102E60007B681B68184604F055F87B681B683B605C
:102E70007E686D4606F110040FCC0FC50FCC0FC550
:102E800094E8030085E80300331D0ECB386803F097
:102E9000CFFF7B681B680121184604F04CF87B6863
:102EA0001B683B607E686D4606F110040FCC0FC5B1
:102EB0000FCC0FC594E8030085E80300331D0ECB4B
:102EC000386804F0D5F97B68012283F8F9220023E1
:102ED00018461437BD46F0BD90B589B004AF786090
:102EE000084611461A460346FB700B46BB70134654
:102EF0007B707B6893F8F832012B01D1022376E0D6
:102F00007B68012283F8F822FB787A682C2101FB88
:102F100003F313443D3300221A70FB787A682C21A6
:102F200001FB03F3134438337A781A70FB787A681C
:102F30002C2101FB03F3134440333A8D1A80FB78B4
:102F40007A682C2101FB03F313443933FA781A70A1
:102F5000FB787A682C2101FB03F313443F3397F885
:102F600024201A70FB78BA7802F07F02D0B27A6817
:102F70002C2101FB03F313443A3302461A7097F9EC
:102F80000230002B09DAFB787A682C2101FB03F36D
:102F900013443B3301221A7008E0FB787A682C2135
:102FA00001FB03F313443B3300221A70FB787A6869
:102FB0002C2101FB03F313443C3397F820201A70B3
:102FC0007B6818687C78BA78F9783B8D029397F81B
:102FD0002430019397F820300093234604F0CEFA72
:102FE0000346FB737B68002283F8F822FB7B1846BC
:102FF0001437BD4690BD80B584B000AF78600B46F5
:10300000FB700023FB737B6893F8F832012B01D12E
:1030100002230FE07B68012283F8F8227B681B689B
:10302000FA781146184604F01EFD7B68002283F8EA
:10303000F822FB7B18461037BD4680BD80B582B0B4
:1030400000AF7860084611461A460346FB700B46EF
:10305000BB7013467B70FB787A682C2101FB03F36D
:1030600013443B33BA781A70FB787A682C2101FB41
:1030700003F313443F337A781A703B7C002B12D150
:10308000FB787A682C2101FB03F3134442330322BB
:103090001A70FB787A682C2101FB03F313443D334B
:1030A0003A7F1A7008E0FB787A682C2101FB03F361
:1030B0001344423302221A707B78032B00F2C6803D
:1030C00001A252F823F000BFD930000839320008BD
:1030D0003D310008BB3100083B7C012B40F0B8803B
:1030E000BB78002B40F0B4803B8B002B08D1FB78E1
:1030F0007A682C2101FB03F31344553301221A7023
:10310000FB787A682C2101FB03F3134455331B78B9
:10311000002B09D1FB787A682C2101FB03F31344BF
:10312000423300221A7093E0FB787A682C2101FB6D
:1031300003F31344423302221A7089E0BB78002B58
:103140001DD1FB787A682C2101FB03F3134455331E
:103150001B78002B09D1FB787A682C2101FB03F343
:103160001344423300221A7073E0FB787A682C21F2
:1031700001FB03F31344423302221A7069E0FB7827
:103180007A682C2101FB03F3134454331B78002B82
:1031900009D1FB787A682C2101FB03F313444233F5
:1031A00000221A7055E0FB787A682C2101FB03F3AA
:1031B0001344423302221A704BE0BB78002B1DD11E
:1031C000FB787A682C2101FB03F3134455331B78F9
:1031D000002B09D1FB787A682C2101FB03F31344FF
:1031E000423300221A7034E0FB787A682C2101FB0C
:1031F00003F31344423302221A702AE0FB787A6800
:103200002C2101FB03F3134454331B78002B09D109
:10321000FB787A682C2101FB03F31344423300222C
:103220001A7016E0FB787A682C2101FB03F3134433
:10323000423302221A700CE0FB787A682C2101FBE1
:1032400003F31344423300221A7002E000BF00E08F
:1032500000BFFB787A682C2101FB03F3134444334D
:103260007A691A60FB783A8B79682C2000FB03F3AB
:103270000B444C331A60FB787A682C2101FB03F372
:103280001344603300221A70FB787A682C2101FB0A
:1032900003F31344503300221A60FB787A682C2120
:1032A00001FB03F313443933FA781A70FB787A6818
:1032B0002C2101FB03F31344613300221A707B6855
:1032C0001868FB782C2202FB03F338337A68D11894
:1032D0007B681B69DBB21A4604F072FA0346184693
:1032E0000837BD4680BD00BF80B586B000AF7860AE
:1032F0007B681B683B613B69FB607B681B68184609
:1033000003F073FF0346012B40F0F6807B681B68D7
:10331000184603F057FF0346002B00F0EC807B6853
:103320001B68184603F04EFF034603F40013B3F581
:10333000001F04D17B681B684FF400125A617B6840
:103340001B68184603F03EFF034603F48013B3F5F1
:10335000801F04D17B681B684FF480125A617B6820
:103360001B68184603F02EFF034603F08063B3F199
:10337000806F04D17B681B684FF080625A617B6864
:103380001B68184603F01EFF034603F00203022BDE
:1033900003D17B681B6802225A617B681B68184650
:1033A00003F010FF034603F00053B3F1005F1CD19C
:1033B0007B681B684FF000525A61FB6803F5886315
:1033C0001B6803F00103002B0FD11021386903F0B3
:1033D000FFFD386903F030FE7B681B680121184649
:1033E00004F006F8786806F0D3FD7B681B68184681
:1033F00003F0E8FE034603F08073B3F1807F02D14F
:10340000786801F09EF87B681B68184603F0DAFEC6
:10341000034603F00803082B06D1786806F09CFDEC
:103420007B681B6808225A617B681B68184603F09A
:10343000C9FE034603F01003102B01D1012300E065
:103440000023002B12D07B681B689A697B681B687D
:1034500022F010029A61786800F0A1FF7B681B6877
:103460009A697B681B6842F010029A617B681B684E
:10347000184603F0A7FE034603F00073B3F1007F84
:103480003AD17B681B68184604F0DCFAB860002368
:103490007B6125E07B6903F00F03BA6822FA03F32E
:1034A00003F00103002B18D07B695A01FB68134419
:1034B00003F5A0631B6803F40043B3F5004F06D186
:1034C0007B69DBB21946786800F0ABF805E07B69F0
:1034D000DBB21946786800F0F9FB7B6901337B6148
:1034E0007B689B687A699A42D4D37B681B684FF0EB
:1034F00000725A6100E000BF1837BD4680BD80B53C
:1035000082B000AF78607B6893F8F832012B01D16C
:10351000022313E07B68012283F8F8227B681B6892
:103520000121184603F0C8FF7B681B68184603F0AA
:10353000E0FC7B68002283F8F82200231846083755
:10354000BD4680BD80B582B000AF78607B6893F8DF
:10355000F832012B01D102230DE07B68012283F8B0
:10356000F8227B681B68184604F0B6FB7B680022D3
:1035700083F8F822002318460837BD4680BD80B581
:1035800082B000AF78607B681B68184603F06AFF62
:10359000034618460837BD4680BD80B483B000AFEF
:1035A00078600B46FB70FB787A682C2101FB03F3F3
:1035B000134460331B7818460C37BD465DF8047B16
:1035C000704780B483B000AF78600B46FB70FB7827
:1035D0007A682C2101FB03F3134450331B6818460F
:1035E0000C37BD465DF8047B704780B582B000AFF4
:1035F00078607B681B68184603F0AEFF03461846E8
:103600000837BD4680BD80B582B000AF78607B686A
:103610001B68184603F089FF034618460837BD4665
:1036200080BD80B586B000AF78600B46FB707B68CC
:103630001B687B617B693B61FB78FB60FB685A011F
:103640003B69134403F5A0639B6803F00403042B58
:103650001AD1FB685A013B69134403F5A0631A466B
:10366000042393607A68FB682C2101FB03F3134465
:10367000613306221A707B681B68FA68D2B2114661
:10368000184604F0F0F9AFE0FB685A013B691344B7
:1036900003F5A0639B6803F48073B3F5807F1BD1AF
:1036A000FB685A013B69134403F5A0631A464FF4C3
:1036B000807393607A68FB682C2101FB03F3134449
:1036C000613307221A707B681B68FA68D2B2114610
:1036D000184604F0C8F987E0FB685A013B691344B7
:1036E00003F5A0639B6803F02003202B09D1FB683E
:1036F0005A013B69134403F5A0631A4620239360E3
:1037000072E0FB685A013B69134403F5A0639B68B0
:1037100003F00803082B1AD1FB685A013B691344D4
:1037200003F5A0631A46082393607A68FB682C218E
:1037300001FB03F31344613305221A707B681B6895
:10374000FA68D2B21146184604F08DF94CE0FB68D5
:103750005A013B69134403F5A0639B6803F480633B
:10376000B3F5806F1BD1FB685A013B69134403F525
:10377000A0631A464FF4806393607A68FB682C213B
:1037800001FB03F31344613308221A707B681B6842
:10379000FA68D2B21146184604F065F924E0FB68D5
:1037A0005A013B69134403F5A0639B6803F080034F
:1037B000802B19D1FB685A013B69134403F5A063C0
:1037C0001A46802393607A68FB682C2101FB03F37F
:1037D0001344613306221A707B681B68FA68D2B200
:1037E0001146184604F03FF9FB685A013B6913443F
:1037F00003F5A0639B6803F40073B3F5007F12D157
:103800007B681B68FA68D2B21146184604F02BF99F
:10381000FB685A013B69134403F5A0631A464FF451
:10382000007393604EE2FB685A013B69134403F551
:10383000A0639B6803F00103012B40F0DF807B68ED
:103840001B69002B19D07A68FB682C2101FB03F35C
:10385000134448331A68FB6859013B690B4403F56C
:10386000A0631B69C3F31203D21A7968FB682C208A
:1038700000FB03F30B4450331A607A68FB682C2179
:1038800001FB03F31344613301221A707A68FB6869
:103890002C2101FB03F313445C3300221A60FB6804
:1038A0005A013B69134403F5A0631A460123936050
:1038B0007A68FB682C2101FB03F313443F331B7828
:1038C000002B09D07A68FB682C2101FB03F3134419
:1038D0003F331B78022B11D17B681B68FA68D2B288
:1038E0001146184604F0BFF8FB685A013B691344BF
:1038F00003F5A0631A46102393603AE07A68FB68E8
:103900002C2101FB03F313443F331B78032B09D015
:103910007A68FB682C2101FB03F313443F331B78C7
:10392000012B26D1FB685A013B69134403F5A063C0
:103930001B68FA6851013A690A4402F5A06243F033
:10394000005313607A68FB682C2101FB03F31344D6
:10395000603301221A70FB68D9B27A68FB682C20A8
:1039600000FB03F3134460331B781A46786806F0B3
:103970001DFB7B681B69012B2BD17A68FB682C210E
:1039800001FB03F3134448331B687968FA682C2061
:1039900000FB02F20A4440321288B3FBF2F303F058
:1039A0000103002B00F08E817A68FB682C2101FB5B
:1039B00003F3134454331B7883F00103D8B27A68BD
:1039C000FB682C2101FB03F31344543302461A70A5
:1039D00078E17A68FB682C2101FB03F3134454332C
:1039E0001B7883F00103D8B27A68FB682C2101FBB5
:1039F00003F31344543302461A7063E1FB685A011F
:103A00003B69134403F5A0639B6803F00203022B98
:103A100040F0F6807A68FB682C2101FB03F3134425
:103A200061331B78012B09D17A68FB682C2101FBDB
:103A300003F31344603301221A70C9E07A68FB680B
:103A40002C2101FB03F3134461331B78052B09D1AF
:103A50007A68FB682C2101FB03F3134460330522D1
:103A60001A70B5E07A68FB682C2101FB03F313445C
:103A700061331B78062B09D07A68FB682C2101FB87
:103A800003F3134461331B78082B50D17A68FB6829
:103A90002C2101FB03F313445C331B685A1C796827
:103AA000FB682C2000FB03F30B445C331A607A683C
:103AB000FB682C2101FB03F313445C331B68022BCE
:103AC00012D97A68FB682C2101FB03F313445C33A1
:103AD00000221A607A68FB682C2101FB03F313446F
:103AE000603304221A7073E07A68FB682C2101FBB2
:103AF00003F31344603302221A70FB685A013B69D6
:103B0000134403F5A0631B68BB60BB6823F08043CC
:103B1000BB60BB6843F00043BB60FB685A013B6974
:103B2000134403F5A0631A46BB68136050E07A683B
:103B3000FB682C2101FB03F3134461331B78032B37
:103B400022D17A68FB682C2101FB03F31344603314
:103B500002221A70FB685A013B69134403F5A06303
:103B60001B68BB60BB6823F08043BB60BB6843F04D
:103B70000043BB60FB685A013B69134403F5A06333
:103B80001A46BB68136023E07A68FB682C2101FBAE
:103B900003F3134461331B78072B19D17A68FB6850
:103BA0002C2101FB03F313445C331B685A1C796816
:103BB000FB682C2000FB03F30B445C331A607A682B
:103BC000FB682C2101FB03F31344603304221A70B9
:103BD000FB685A013B69134403F5A0631A460223AC
:103BE0009360FB68D9B27A68FB682C2000FB03F372
:103BF000134460331B781A46786806F0D7F961E001
:103C0000FB685A013B69134403F5A0639B6803F00A
:103C10001003102B56D17A68FB682C2101FB03F3AB
:103C200013443F331B78032B11D17A68FB682C2196
:103C300001FB03F313445C3300221A607B681B68AA
:103C4000FA68D2B21146184603F00DFF31E07A68E7
:103C5000FB682C2101FB03F313443F331B78002B3B
:103C600009D07A68FB682C2101FB03F313443F332E
:103C70001B78022B1DD17A68FB682C2101FB03F312
:103C800013445C3300221A607B681B69002B10D13F
:103C90007A68FB682C2101FB03F313446133032290
:103CA0001A707B681B68FA68D2B21146184603F096
:103CB000DAFEFB685A013B69134403F5A0631A4618
:103CC0001023936000BF1837BD4680BD80B588B013
:103CD00000AF78600B46FB707B681B68FB61FB697B
:103CE000BB61FB787B617B695A01BB69134403F5B7
:103CF000A0639B6803F00403042B1AD17B695A016B
:103D0000BB69134403F5A0631A46042393607A68E1
:103D10007B692C2101FB03F31344613306221A70E3
:103D20007B681B687A69D2B21146184603F09BFE85
:103D300031E37B695A01BB69134403F5A0639B68B7
:103D400003F02003202B2ED17B695A01BB69134459
:103D500003F5A0631A46202393607A687B692C21BF
:103D600001FB03F313443D331B78012B40F0138315
:103D70007A687B692C2101FB03F313443D33002255
:103D80001A707A687B692C2101FB03F313446033BA
:103D900002221A707B681B687A69D2B211461846F3
:103DA00003F061FEF7E27B695A01BB69134403F536
:103DB000A0639B6803F40073B3F5007F12D17B69A5
:103DC0005A01BB69134403F5A0631A464FF400730C
:103DD00093607B681B687A69D2B21146184603F07B
:103DE00042FED8E27B695A01BB69134403F5A06324
:103DF0009B6803F00103012B40D17A687B692C2179
:103E000001FB03F313445C3300221A607B695A01FF
:103E1000BB69134403F5A0639B6803F04003402B88
:103E200011D17A687B692C2101FB03F313443D33E4
:103E300001221A707B695A01BB69134403F5A06320
:103E40001A46402393607B695A01BB69134403F50A
:103E5000A0631A46012393607A687B692C2101FBD9
:103E600003F31344613301221A707B681B687A697B
:103E7000D2B21146184603F0F6FD8CE27B695A0176
:103E8000BB69134403F5A0639B6803F04003402B18
:103E90002CD17A687B692C2101FB03F31344613335
:103EA00004221A707A687B692C2101FB03F3134406
:103EB0003D3301221A707A687B692C2101FB03F3E0
:103EC00013445C3300221A607B681B687A69D2B2A3
:103ED0001146184603F0C7FD7B695A01BB691344BC
:103EE00003F5A0631A464023936054E27B695A01AC
:103EF000BB69134403F5A0639B6803F00803082B18
:103F00001AD17B695A01BB69134403F5A0631A46B1
:103F1000082393607A687B692C2101FB03F3134427
:103F2000613305221A707B681B687A69D2B2114628
:103F3000184603F098FD2EE27B695A01BB691344D1
:103F400003F5A0639B6803F01003102B40D17A683F
:103F50007B692C2101FB03F313445C3300221A60BC
:103F60007A687B692C2101FB03F31344613303223C
:103F70001A707A687B692C2101FB03F313443D33EB
:103F80001B78002B12D17A687B692C2101FB03F38B
:103F900013443C331B78002B08D17A687B692C21B1
:103FA00001FB03F313443D3301221A707B681B6845
:103FB0007A69D2B21146184603F055FD7B695A0161
:103FC000BB69134403F5A0631A4610239360E2E132
:103FD0007B695A01BB69134403F5A0639B6803F036
:103FE0008003802B64D17B681B69002B11D17A6818
:103FF0007B692C2101FB03F31344613306221A7001
:104000007B681B687A69D2B21146184603F02BFD13
:1040100044E07A687B692C2101FB03F313445C3391
:104020001B685A1C79687B692C2000FB03F30B4446
:104030005C331A607A687B692C2101FB03F313441B
:104040005C331B68022B20D97A687B692C2101FB29
:1040500003F313445C3300221A607A687B692C21D5
:1040600001FB03F31344603304221A707B69D9B255
:104070007A687B692C2000FB03F3134460331B78C0
:104080001A46786805F092FF08E07A687B692C216F
:1040900001FB03F31344603302221A707B695A0157
:1040A000BB69134403F5A0631A468023936072E151
:1040B0007B695A01BB69134403F5A0639B6803F451
:1040C0008063B3F5806F1BD17A687B692C2101FB7B
:1040D00003F31344613308221A707B681B687A6902
:1040E000D2B21146184603F0BEFC7B695A01BB6987
:1040F000134403F5A0631A464FF4806393604AE1CA
:104100007B695A01BB69134403F5A0639B6803F004
:104110000203022B40F03F817A687B692C2101FB6E
:1041200003F3134461331B78012B7DD17A687B69DB
:104130002C2101FB03F31344603301221A707A68C7
:104140007B692C2101FB03F313443F331B78022BC3
:104150000AD07A687B692C2101FB03F313443F33B7
:104160001B78032B40F000817B681B69002B13D167
:104170007A687B692C2101FB03F3134455331B78C8
:1041800083F00103D8B27A687B692C2101FB03F329
:104190001344553302461A707B681B69012B40F0AB
:1041A000E3807A687B692C2101FB03F313444C33D1
:1041B0001B68002B00F0D8807A687B692C2101FBFA
:1041C00003F313444C331B6879687A692C2000FB95
:1041D00002F20A44403212881344013B79687A693A
:1041E0002C2000FB02F20A4440321288B3FBF2F3A7
:1041F000FB60FB6803F00103002B00F0B5807A68D8
:104200007B692C2101FB03F3134455331B7883F0A6
:104210000103D8B27A687B692C2101FB03F31344B4
:10422000553302461A709FE07A687B692C2101FBA6
:1042300003F3134461331B78032B09D17A687B693C
:104240002C2101FB03F31344603302221A708BE02C
:104250007A687B692C2101FB03F3134461331B78DB
:10426000042B09D17A687B692C2101FB03F31344E9
:10427000603302221A7077E07A687B692C2101FB97
:1042800003F3134461331B78052B09D17A687B69EA
:104290002C2101FB03F31344603305221A7063E001
:1042A0007A687B692C2101FB03F3134461331B788B
:1042B000062B09D07A687B692C2101FB03F3134498
:1042C00061331B78082B4FD17A687B692C2101FB65
:1042D00003F313445C331B685A1C79687B692C20F8
:1042E00000FB03F30B445C331A607A687B692C2172
:1042F00001FB03F313445C331B68022B12D97A6869
:104300007B692C2101FB03F313445C3300221A6008
:104310007A687B692C2101FB03F313446033042288
:104320001A7021E07A687B692C2101FB03F31344A6
:10433000603302221A707B695A01BB69134403F58A
:10434000A0631B683B613B6923F080433B613B6991
:1043500043F000433B617B695A01BB69134403F599
:10436000A0631A463B6913607B695A01BB69134419
:1043700003F5A0631A46022393607B69D9B27A6879
:104380007B692C2000FB03F3134460331B781A462F
:10439000786805F00BFE00BF2037BD4680BD80B5B4
:1043A0008AB000AF78607B681B687B627B6A3B6287
:1043B0007B681B681B6AFB61FB6903F00F03BB6131
:1043C000FB695B0C03F00F037B61FB691B09C3F303
:1043D0000A033B617B69022B04D07B69052B00F04B
:1043E000A980AAE03B69002B00F0A6807A68BB692F
:1043F0002C2101FB03F3134444331B68002B00F012
:104400009B807A68BB692C2101FB03F31344503372
:104410001A683B691A447968BB692C2000FB03F3D6
:104420000B444C331B689A427AD87B6818687A68C8
:10443000BB692C2101FB03F3134444331B683A6925
:1044400092B2194602F066FE7A68BB692C2101FB24
:1044500003F3134444331A683B691A447968BB690F
:104460002C2000FB03F30B4444331A607A68BB69C9
:104470002C2101FB03F3134450331A683B691A449F
:104480007968BB692C2000FB03F30B4450331A609E
:10449000BB695A013B6A134403F5A0631B69DB0C3B
:1044A000C3F30903FB607A68BB692C2101FB03F3AA
:1044B000134440331B881A463B6993423CD1FB6846
:1044C000002B39D0BB695A013B6A134403F5A06342
:1044D0001B68BB60BB6823F08043BB60BB6843F0D4
:1044E0000043BB60BB695A013B6A134403F5A063F8
:1044F0001A46BB6813607A68BB692C2101FB03F381
:10450000134454331B7883F00103D8B27A68BB6933
:104510002C2101FB03F31344543302461A700BE0C1
:104520007A68BB692C2101FB03F313446033042236
:104530001A7001E000BF00E000BF00BF2837BD4691
:1045400080BD80B586B000AF78607B681B687B61FA
:104550007B693B613B6903F588631B68FB603B69D2
:1045600003F588631B68BB60BB6823F02E03BB6048
:10457000FB6803F00203022B0BD1FB6803F001037D
:10458000012B02D1786805F0F5FCBB6843F002030B
:10459000BB60FB6803F00803082B32D1BB6843F013
:1045A0000803BB60FB6803F00403042B26D17B687F
:1045B0009B69022B13D1FB6803F4C023B3F5802F52
:1045C00006D17B681B680221184602F011FF11E03A
:1045D0007B681B680121184602F00AFF0AE07B682D
:1045E000DB68012B06D13B6903F580631A464EF662
:1045F00060235360786805F0E7FC02E0786805F016
:10460000F1FCFB6803F02003202B03D1BB6843F0CF
:104610002003BB603B6903F588631A46BB681360DF
:1046200000BF1837BD4680BD80B584B000AF78604C
:104630007B68002B01D101232BE17B6893F83D308F
:10464000DBB2002B06D17B68002283F83C2078681F
:10465000FDF728FD7B68242283F83D207B681B68DA
:104660001A687B681B6822F001021A607B681B686D
:104670001A687B681B6842F400421A607B681B68FA
:104680001A687B681B6822F400421A6001F020FA65
:10469000F8607B685B68814A934207D8FB68804A70
:1046A000934294BF01230023DBB206E0FB687D4AFE
:1046B000934294BF01230023DBB2002B01D00123DE
:1046C000E7E0FB68784AA2FB03239B0CBB607B6896
:1046D0001B685B6823F03F017B681B68BA680A436C
:1046E0005A607B681B681B6A23F03F017B685B682C
:1046F0006A4A934202D8BB68013309E0BB684FF4B1
:10470000967202FB03F3694AA2FB03239B09013360
:104710007A6812680B4313627B681B68DB6923F4B9
:104720004F4222F0FF027B685B685C498B4219D8DC
:10473000FB68591E7B685B685B00B1FBF3F3591C97
:1047400040F6FC730B40002B0AD0FB68591E7B68B7
:104750005B685B00B1FBF3F30133C3F30B0351E080
:1047600004234FE07B689B68002B11D1FB68581E27
:104770007B6859680B465B000B44B0FBF3F30133D5
:10478000C3F30B03002B0CBF01230023DBB212E0A9
:10479000FB68581E7B6859680B469B000B449900C8
:1047A0000B44B0FBF3F30133C3F30B03002B0CBF3B
:1047B00001230023DBB2002B01D0012322E07B6820
:1047C0009B68002B0ED1FB68581E7B6859680B460E
:1047D0005B000B44B0FBF3F30133C3F30B0343F46F
:1047E00000430FE0FB68581E7B6859680B469B002E
:1047F0000B4499000B44B0FBF3F30133C3F30B03F9
:1048000043F44043796809681343CB617B681B68B4
:104810001B6823F0C0017B68DA697B681B6A1A4356
:104820007B681B680A431A607B681B689B6823F4DB
:10483000034323F0FF037A6811697A68D268114351
:104840007A6812680B4393607B681B68DB6823F00F
:10485000FF017B685A697B689B691A437B681B6808
:104860000A43DA607B681B681A687B681B6842F041
:1048700001021A607B6800221A647B68202283F898
:104880003D207B6800221A637B68002283F83E206B
:10489000002318461037BD4680BD00BFA08601002A
:1048A0007F841E00FF083D0083DE1B43D34D621052
:1048B00080B588B000AF78607B68002B01D1012300
:1048C00028E17B6893F84130DBB2002B09D17B688B
:1048D000002283F840207B68904A5A637868FDF78D
:1048E00029FC7B68022283F841207B681B68DB6916
:1048F0007A68126823F47B6323F00F03D3617B682B
:104900001B6802221A627B685B69022B60D07B689D
:10491000DB68002B02D110237B6101E020237B6147
:104920007B689B68202B02D87B695B007B61012040
:1049300001F0D2F9F8607B681B69B3F5007F25D1DF
:104940007B68DB68002B10D07B699B00FA68B2FBA8
:10495000F3F213469B0013445B001A467B685B69C5
:10496000B2FBF3F305333B611FE07B69DB00FA68C0
:10497000B2FBF3F213469B0013445B001A467B68BC
:104980005B69B2FBF3F305333B610EE0FA687B69C8
:10499000B2FBF3F213469B0013445B001A467B689C
:1049A0005B69B2FBF3F305333B613B695C4AA2FBF5
:1049B0000323DB083B613B6903F00103BB613A69F8
:1049C000BB69D31A5B08FB61BB691B02BB6103E0D7
:1049D0000223FB610023BB61FB69012B02D9FB6948
:1049E000FF2B07D97B685B6C43F010027B685A642D
:1049F00001238FE07B681A69BB6942EA03017B6887
:104A00001B68FA690A431A627B681B68DB6923F436
:104A10007B6323F00F037A6851687A6892681143C8
:104A20007A68D26811437A6892690A431A437B68AC
:104A30001B6842F40062DA617B681B6A012B61D15A
:104A40007B68384A5A637B681B68374A934201D1B6
:104A5000364B01E04FF04023DB697A681268324937
:104A60008A4201D1314A01E04FF0402223F47B63B6
:104A700023F00F03D3617B681B682B4A934201D15B
:104A80002A4B01E04FF0402302221A627B681B6828
:104A9000254A934201D1254B01E04FF04023DB69C9
:104AA0007B817B685B68B3F5007F03D07B685B68C4
:104AB000002B03D14FF480733B6101E000233B6185
:104AC0003B699AB27B689B689BB213439AB27B683E
:104AD000DB689BB213439AB27B689B699BB213431A
:104AE0009AB27B8913439BB243F400637B817B685A
:104AF0001B680D4A934201D10C4B01E04FF040235B
:104B00007A89DA617B6800225A647B68012283F823
:104B10004120002318462037BD4680BD274C0008A1
:104B2000CDCCCCCC3D4D00080038004000340040D6
:104B300080B483B000AF786000BF0C37BD465DF82D
:104B4000047B704780B483B000AF786000BF0C373F
:104B5000BD465DF8047B704780B483B000AF7860D9
:104B600000BF0C37BD465DF8047B704780B582B04E
:104B700000AF78607B685B6A1A887B681B68DA60C4
:104B80007B685B6A9A1C7B685A627B685B8D9BB210
:104B9000013B9AB27B685A857B685B8D9BB2002B88
:104BA0000ED17B681B685A687B681B6822F0A002E4
:104BB0005A607B68012283F841207868FFF7B8FFCC
:104BC00000BF0837BD4680BD80B582B000AF7860B9
:104BD0007B681B68DA687B68DB6A92B21A807B6844
:104BE000DB6A9A1C7B68DA627B685B8E9BB2013B56
:104BF0009AB27B685A867B685B8E9BB2002B0ED183
:104C00007B681B685A687B681B6822F060025A60E8
:104C10007B68012283F841207868FFF793FF00BF8B
:104C20000837BD4680BD80B586B000AF78607B6830
:104C30001B689B687B617B6893F84130DBB2042B77
:104C40003AD17B6903F00103012B09D17B681B6812
:104C50005B6803F04003402B02D17868FFF7B4FF94
:104C60007B6903F04003402B26D17B681B685B689F
:104C700003F02003202B1FD17B681B685A687B68D8
:104C80001B6822F060025A6000233B617B681B684E
:104C9000DB683B617B681B689B683B613B697B68A9
:104CA000012283F841207B685B6C43F002027B6841
:104CB0005A647868FFF750FF7B6893F84130DBB2A5
:104CC000032B36D17B6903F00203022B09D17B68E9
:104CD0001B685B6803F08003802B02D17868FFF7C4
:104CE00045FF7B6903F00803082B22D17B681B6812
:104CF0005B6803F02003202B1BD17B681B685A687C
:104D00007B681B6822F0A0025A600023FB607B686E
:104D10001B689B68FB60FB687B68012283F841206D
:104D20007B685B6C43F004027B685A647868FFF729
:104D300013FF00BF1837BD4680BD000080B588B0A6
:104D400000AF78607B681B689B68FB617B681B68B1
:104D5000924A934201D1924B01E04FF040239B686D
:104D6000BB617B681B685B687B617B681B688B4AE7
:104D7000934201D18A4B01E04FF040235B683B61D5
:104D80007B685B68B3F5007F04D07B685B68002BB1
:104D900040F09980FB6903F00203022B07D17B6985
:104DA00003F08003002B02D0786800F025F9BB697E
:104DB00003F00103012B07D13B6903F04003002BF3
:104DC00002D0786800F0C8F9BB6903F04003402BBB
:104DD0003AD13B6903F02003002B35D07B681B6878
:104DE0006E4A934201D16E4B01E04FF040235A6866
:104DF0007B681B6869498B4201D1694B01E04FF028
:104E0000402322F060025A607B681B685A687B6806
:104E10001B6822F0A0025A600023FB607B681B68BD
:104E2000DB68FB607B681B689B68FB60FB687B68DA
:104E3000012283F841207B685B6C43F002027B68AF
:104E40005A647868FFF788FEFB6903F00803082BB3
:104E500040F0C3807B6903F02003002B00F0BD808D
:104E60007B681B685A687B681B6822F0A0025A6046
:104E70007B681B68494A934201D1494B01E04FF0DE
:104E800040235A687B681B6844498B4201D1444BDC
:104E900001E04FF0402322F060025A600023BB6023
:104EA0007B681B689B68BB60BB687B68012283F8DA
:104EB00041207B685B6C43F004027B685A6478682D
:104EC000FFF74AFE89E0BB6903F00203022B07D11A
:104ED0003B6903F08003002B02D0786800F0BEF835
:104EE000FB6903F00103012B07D17B6903F0400349
:104EF000002B02D0786800F0FDF8FB6903F0400356
:104F0000402B2FD17B6903F02003002B2AD07B6834
:104F10001B685A687B681B6822F060025A607B68D5
:104F20001B681E4A934201D11D4B01E04FF0402304
:104F30005A687B681B6819498B4201D1184B01E004
:104F40004FF0402322F0A0025A607B68012283F8D0
:104F500041207B685B6C43F002027B685A6478688E
:104F6000FFF7FAFDBB6903F00803082B36D13B6954
:104F700003F02003002B31D07B681B68074A934263
:104F800001D1074B01E04FF040235A687B681B6852
:104F900002498B4206D1024B06E000BF00380040B8
:104FA000003400404FF0402322F0A0025A607B689A
:104FB0001B685A687B681B6822F060025A607B6835
:104FC000012283F841207B685B6C43F004027B681C
:104FD0005A647868FFF7C0FD00E000BF00BF2037CB
:104FE000BD4680BD80B483B000AF786000BF0C3791
:104FF000BD465DF8047B704780B582B000AF786035
:105000007B685B6A991C7A6851621A887B681B68A6
:10501000DA607B685B8D9BB2013B9AB27B685A85F4
:105020007B685B8D9BB2002B13D17B681B685A6831
:105030007B681B6822F0A0025A607B685B8E9BB283
:10504000002B06D17B68012283F841207868FFF7A6
:10505000C9FF00BF0837BD4680BD000080B582B0E3
:1050600000AF78607B685B6A991C7A685162198826
:105070007B681B681D4A934201D11D4B01E04FF034
:1050800040230A46DA607B685B8D9BB2013B9AB293
:105090007B685A857B685B8D9BB2002B21D17B6836
:1050A0001B68124A934201D1114B01E04FF040239B
:1050B0005A687B681B680D498B4201D10C4B01E09B
:1050C0004FF0402322F0A0025A607B685B8E9BB2B7
:1050D000002B06D17B68012283F841207868FFF716
:1050E00081FF00BF0837BD4680BD00BF00380040CB
:1050F0000034004080B582B000AF78607B681B68E8
:10510000D8687B68DB6A991C7A68D16282B21A809F
:105110007B685B8E9BB2013B9AB27B685A867B6848
:105120005B8E9BB2002B13D17B681B685A687B682F
:105130001B6822F060025A607B685B8D9BB2002B7B
:1051400006D17B68012283F841207868FFF74AFF87
:1051500000BF0837BD4680BD80B582B000AF786023
:105160007B681B68204A934201D1204B01E04FF03D
:105170004023D8687B68DB6A991C7A68D16282B266
:105180001A807B685B8E9BB2013B9AB27B685A8621
:105190007B685B8E9BB2002B21D17B681B68124A17
:1051A000934201D1114B01E04FF040235A687B68D4
:1051B0001B680D498B4201D10C4B01E04FF040239D
:1051C00022F060025A607B685B8D9BB2002B06D197
:1051D0007B68012283F841207868FFF703FF00BF56
:1051E0000837BD4680BD00BF003800400034004095
:1051F00080B586B000AF78607B68002B01D10123B9
:1052000067E27B681B6803F00103002B75D0884BB5
:105210009B6803F00C03042B0CD0854B9B6803F0B8
:105220000C03082B12D1824B5B6803F48003B3F5A7
:10523000800F0BD17E4B1B6803F40033002B5BD037
:105240007B685B68002B57D1012342E27B685B6877
:10525000B3F5803F06D1764B1B68754A43F4803323
:1052600013601DE07B685B68B3F5A02F0CD1704B19
:105270001B686F4A43F4802313606D4B1B686C4AB4
:1052800043F4803313600BE0694B1B68684A23F4D6
:1052900080331360664B1B68654A23F480231360D8
:1052A0007B685B68002B13D0FDF7A4FA386108E037
:1052B000FDF7A0FA02463B69D31A642B01D90323F8
:1052C00007E25B4B1B6803F40033002BF0D014E0C3
:1052D000FDF790FA386108E0FDF78CFA02463B6969
:1052E000D31A642B01D90323F3E1514B1B6803F458
:1052F0000033002BF0D100E000BF7B681B6803F097
:105300000203002B63D04A4B9B6803F00C03002B75
:105310000BD0474B9B6803F00C03082B1CD1444B6C
:105320005B6803F48003002B16D1414B1B6803F02C
:105330000203002B05D07B68DB68012B01D0012321
:10534000C7E13B4B1B6823F0F8027B681B69DB005D
:10535000374913430B603AE07B68DB68002B20D0B1
:10536000344B01221A60FDF745FA386108E0FDF779
:1053700041FA02463B69D31A022B01D90323A8E163
:105380002B4B1B6803F00203002BF0D0284B1B684B
:1053900023F0F8027B681B69DB00254913430B608F
:1053A00015E0244B00221A60FDF724FA386108E06A
:1053B000FDF720FA02463B69D31A022B01D90323D9
:1053C00087E11B4B1B6803F00203002BF0D17B68C5
:1053D0001B6803F00803002B36D07B685B69002B49
:1053E00016D0154B01221A60FDF704FA386108E067
:1053F000FDF700FA02463B69D31A022B01D90323B9
:1054000067E10B4B5B6F03F00203002BF0D01BE056
:10541000094B00221A60FDF7EDF938610EE0FDF747
:10542000E9F902463B69D31A022B07D9032350E15D
:105430000038024000004742800E4742884B5B6FB5
:1054400003F00203002BEAD17B681B6803F004031E
:10545000002B00F097800023FB75814B1B6C03F041
:105460008053002B0FD10023BB607D4B1B6C7C4A0B
:1054700043F0805313647A4B1B6C03F08053BB6082
:10548000BB680123FB75774B1B6803F48073002B0B
:1054900018D1744B1B68734A43F480731360FDF793
:1054A000A9F9386108E0FDF7A5F902463B69D31A6E
:1054B000022B01D903230CE16A4B1B6803F48073B0
:1054C000002BF0D07B689B68012B06D1644B1B6FCF
:1054D000634A43F0010313671CE07B689B68052B5C
:1054E0000CD15F4B1B6F5E4A43F0040313675C4BA8
:1054F0001B6F5B4A43F0010313670BE0584B1B6FB4
:10550000574A23F001031367554B1B6F544A23F08E
:10551000040313677B689B68002B15D0FDF76AF9BD
:1055200038610AE0FDF766F902463B69D31A41F299
:105530008832934201D90323CBE0494B1B6F03F020
:105540000203002BEED014E0FDF754F938610AE0B5
:10555000FDF750F902463B69D31A41F28832934273
:1055600001D90323B5E03E4B1B6F03F00203002B70
:10557000EED1FB7D012B05D1394B1B6C384A23F052
:10558000805313647B689B69002B00F0A180344B2F
:105590009B6803F00C03082B5CD07B689B69022B93
:1055A00041D1314B00221A60FDF724F9386108E03F
:1055B000FDF720F902463B69D31A022B01D90323D8
:1055C00087E0274B1B6803F00073002BF0D17B684A
:1055D000DA697B681B6A1A437B685B6A9B011A4322
:1055E0007B689B6A5B08013B1B041A437B68DB6A90
:1055F0001B061B4913434B601B4B01221A60FDF72E
:10560000F9F8386108E0FDF7F5F802463B69D31A6E
:10561000022B01D903235CE0114B1B6803F00073DC
:10562000002BF0D054E0104B00221A60FDF7E2F896
:10563000386108E0FDF7DEF802463B69D31A022B19
:1056400001D9032345E0064B1B6803F00073002BD0
:10565000F0D13DE07B689B69012B07D1012338E045
:105660000038024000700040600047421B4B5B68FE
:10567000FB607B689B69012B28D0FB6803F48002E8
:105680007B68DB699A4221D1FB6803F03F027B68AB
:105690001B6A9A421AD1FA6847F6C07313407A68B7
:1056A000526A9201934211D1FB6803F440327B6845
:1056B0009B6A5B08013B1B049A4207D1FB6803F01D
:1056C00070627B68DB6A1B069A4201D0012300E00E
:1056D000002318461837BD4680BD00BF0038024081
:1056E00080B584B000AF786039607B68002B01D151
:1056F0000123CCE0684B1B6803F007033A689A4229
:105700000CD9654B3A68D2B21A70634B1B6803F030
:1057100007033A689A4201D00123B8E07B681B680E
:1057200003F00203002B20D07B681B6803F0040306
:10573000002B05D0594B9B68584A43F4E0539360C3
:105740007B681B6803F00803002B05D0534B9B6854
:10575000524A43F460439360504B9B6823F0F0023D
:105760007B689B684D4913438B607B681B6803F023
:105770000103002B44D07B685B68012B07D1474BAA
:105780001B6803F40033002B19D101237FE07B68F1
:105790005B68022B03D07B685B68032B07D13F4B10
:1057A0001B6803F00073002B09D101236FE03B4B12
:1057B0001B6803F00203002B01D1012367E0374B84
:1057C0009B6823F003027B685B68344913438B605A
:1057D000FDF710F8F8600AE0FDF70CF80246FB68E8
:1057E000D31A41F28832934201D903234FE02B4B65
:1057F0009B6803F00C027B685B689B009A42EBD1CC
:10580000254B1B6803F007033A689A420CD2224BDF
:105810003A68D2B21A70204B1B6803F007033A684B
:105820009A4201D0012332E07B681B6803F0040335
:10583000002B08D0194B9B6823F4E0527B68DB688F
:10584000164913438B607B681B6803F00803002B29
:1058500009D0124B9B6823F460427B681B69DB0014
:105860000E4913438B6000F021F802460B4B9B68F6
:105870001B0903F00F030A49CB5C22FA03F3094A20
:105880001360094B1B681846FCF770FF002318468D
:105890001037BD4680BD00BF003C024000380240CA
:1058A000DCCE000804000020080000202DE9B04FE5
:1058B00094B000AF00237B640023FB6400233B64AF
:1058C0000023BB64794B9B6803F00C03082B0DD0BD
:1058D000082B00F2E180002B02D0042B03D0DBE088
:1058E000734BBB64DBE0734BBB64D8E06F4B5B680E
:1058F00003F03F037B646D4B5B6803F48003002B74
:1059000063D06A4B5B689B090022BB63FA63BB6B85
:10591000C3F308033B6300237B63D7E90C452246AE
:105920002B464FF000004FF00001590141EAD261CF
:10593000500102460B462146511A3961294663EB54
:1059400001037B614FF000024FF00003D7E904AB85
:1059500059468B01514643EA916351468A015146AB
:10596000B2EB0108594663EB01094FF000024FF01A
:1059700000034FEAC90343EA58734FEAC80290464E
:105980009946234618EB0303BB602B4649EB030300
:10599000FB604FF000024FF00003D7E902452946B3
:1059A0004B02214643EAD15321464A02104619468A
:1059B0007B6C0022BB62FA62D7E90A23FBF74CF941
:1059C00002460B461346FB6458E0384B5B689B0964
:1059D000002218461146C0F308033B6200237B6295
:1059E000D7E9088942464B464FF000004FF00001CE
:1059F000590141EAD261500102460B464146B2EBE1
:105A0000010A494663EB010B4FF000024FF000031F
:105A10004FEA8B1343EA9A634FEA8A12B2EB0A0405
:105A200063EB0B054FF000024FF00003EB0043EA7D
:105A30005473E20014461D464346E3183B604B4650
:105A400045EB03037B604FF000024FF00003D7E902
:105A5000004529468B02214643EA915321468A029A
:105A6000104619467B6C0022BB61FA61D7E9062318
:105A7000FBF7F2F802460B461346FB640B4B5B68E0
:105A80001B0C03F0030301335B003B64FA6C3B6CBB
:105A9000B2FBF3F3BB6402E0054BBB6400BFBB6C1D
:105AA00018465037BD46BDE8B08F00BF00380240F1
:105AB0000024F40000127A0080B400AF034B1B688E
:105AC0001846BD465DF8047B704700BF0400002007
:105AD00080B500AFFFF7F0FF0246054B9B689B0ABD
