:020000040800F2
:1000000000000220E92E0008192D00081F2D00080D
:10001000252D00082B2D0008312D000800000000C0
:10002000000000000000000000000000372D000864
:10003000452D000800000000532D0008612D000828
:10004000392F0008392F0008392F0008392F0008F0
:10005000392F0008392F0008392F0008392F0008E0
:10006000392F0008392F0008392F0008392F0008D0
:10007000392F0008392F0008392F0008392F0008C0
:10008000392F0008392F0008392F00080000000020
:10009000000000000000000000000000392F0008F0
:1000A000392F0008392F0008392F0008392F000890
:1000B000392F0008392F0008392F0008392F000880
:1000C000392F0008392F0008392F0008392F000870
:1000D000392F00086D2D0008392F0008000000009E
:1000E000392F0008392F0008392F000800000000C0
:1000F000000000000000000000000000392F000890
:1001000000000000392F0008392F0008392F00089F
:1001100000000000000000000000000000000000DF
:10012000392F0008392F0008812D0008392F0008C9
:10013000392F00080000000000000000000000004F
:10014000000000000000000000000000952D0008E5
:10015000392F0008392F0008A92D0008392F000871
:10016000392F0008392F00080000000000000000AF
:10017000000000000000000000000000000000007F
:1001800000000000392F00080000000000000000FF
:08019000392F0008392F000887
:1001980010B5054C237833B9044B13B10448AFF3B9
:1001A80000800123237010BDA4000020000000007F
:1001B80008BC000808B5034B1BB103490348AFF35B
:1001C800008008BD00000000A800002008BC00084E
:1001D800034613F8012B002AFBD1181A013870477F
:1001E80053B94AB9002908BF00281CBF4FF0FF3196
:1001F8004FF0FF3000F074B9ADF1080C6DE904CE92
:1002080000F006F8DDF804E0DDE9022304B07047E9
:100218002DE9F047089D04468E46002B4DD18A42B1
:10022800944669D9B2FA82F252B101FA02F3C2F1E4
:10023800200120FA01F10CFA02FC41EA030E944075
:100248004FEA1C48210CBEFBF8F61FFA8CF708FB96
:1002580016E341EA034306FB07F199420AD91CEB6E
:10026800030306F1FF3080F01F81994240F21C81A0
:10027800023E63445B1AA4B2B3FBF8F008FB1033E8
:1002880044EA034400FB07F7A7420AD91CEB04041D
:1002980000F1FF3380F00A81A74240F207816444ED
:1002A800023840EA0640E41B00261DB1D440002372
:1002B800C5E900433146BDE8F0878B4209D9002DD6
:1002C80000F0EF800026C5E9000130463146BDE860
:1002D800F087B3FA83F6002E4AD18B4202D38242CA
:1002E80000F2F980841A61EB030301209E46002D79
:1002F800E0D0C5E9004EDDE702B9FFDEB2FA82F2CE
:10030800002A40F09280A1EB0C014FEA1C471FFA2B
:100318008CFE0126200CB1FBF7F307FB131140EA12
:1003280001410EFB03F0884208D91CEB010103F1DF
:10033800FF3802D2884200F2CB804346091AA4B2A1
:10034800B1FBF7F007FB101144EA01440EFB00FE75
:10035800A64508D91CEB040400F1FF3102D2A645DA
:1003680000F2BB800846A4EB0E0440EA03409CE779
:10037800C6F12007B34022FA07FC4CEA030C20FA26
:1003880007F401FA06F31C43F9404FEA1C4900FA46
:1003980006F3B1FBF9F8200C1FFA8CFE09FB1811C3
:1003A80040EA014108FB0EF0884202FA06F20BD936
:1003B8001CEB010108F1FF3A80F08880884240F286
:1003C8008580A8F102086144091AA4B2B1FBF9F0CA
:1003D80009FB101144EA014100FB0EFE8E4508D9C5
:1003E8001CEB010100F1FF346CD28E456AD902384A
:1003F800614440EA0840A0FB0294A1EB0E01A1422F
:10040800C846A64656D353D05DB1B3EB080261EB9C
:100418000E0101FA07F722FA06F3F1401F43C5E976
:10042800007100263146BDE8F087C2F12003D840AC
:100438000CFA02FC21FA03F3914001434FEA1C47EE
:100448001FFA8CFEB3FBF7F007FB10360B0C43EAE0
:10045800064300FB0EF69E4204FA02F408D91CEB90
:10046800030300F1FF382FD29E422DD9023863448E
:100478009B1B89B2B3FBF7F607FB163341EA03412E
:1004880006FB0EF38B4208D91CEB010106F1FF387D
:1004980016D28B4214D9023E6144C91A46EA004674
:1004A80038E72E46284605E70646E3E61846F8E606
:1004B8004B45A9D2B9EB020864EB0C0E0138A3E74F
:1004C8004646EAE7204694E74046D1E7D0467BE730
:1004D800023B614432E7304609E76444023842E7A8
:1004E800704700BF80B500AF02F024FD00F01AF895
:1004F80000F08AF800F0DCF900F0B2F900F0AAF890
:1005080000F0DCF800F00EF900F040F900F07AF99C
:100518000AF080FE01F0CAFB0AF0A2FE01F0D6FB49
:10052800FAE7000080B594B000AF07F1200330224D
:10053800002118460BF0DAF907F10C0300221A60C3
:100548005A609A60DA601A610023BB602C4B1B6CFE
:100558002B4A43F080531364294B1B6C03F08053E0
:10056800BB60BB6800237B60264B1B68254A43F4AD
:1005780040431360234B1B6803F440437B607B6854
:1005880001233B624FF480337B620223BB634FF449
:100598008003FB6304233B64C0237B640423BB64A4
:1005A8000823FB6407F12003184605F013FE0346F1
:1005B800002B14BF01230023DBB2002B01D000F075
:1005C80051FA0F23FB6002233B6100237B614FF448
:1005D800A053BB610023FB6107F10C0303211846FC
:1005E80006F070F80346002B14BF01230023DBB28A
:1005F800002B01D000F036FA00BF5037BD4680BD51
:10060800003802400070004080B586B000AF3B461D
:1006180000221A605A609A60DA601A615A610123EE
:100628003B60C823BB6005237B600223FB603B461D
:10063800184606F067FA0346002B14BF012300236F
:10064800DBB2002B01D000F00DFA00BF1837BD4611
:1006580080BD000080B500AF154B164A1A60144BD8
:10066800154A5A60124B00229A60114B0022DA6038
:100678000F4B4FF480421A610D4B00225A610C4B0C
:1006880000229A610A4B0022DA61094B00221A62A1
:10069800074804F0BBFF0346002B14BF01230023C7
:1006A800DBB2002B01D000F0DDF900BF80BD00BF38
:1006B800C000002000540040A086010080B500AFB3
:1006C800154B164A1A60144B4FF400725A60124BBD
:1006D80000229A60104B0022DA600F4B00221A6148
:1006E8000D4B0F4A5A610C4B00229A610A4B0022AB
:1006F800DA61094B01221A62074805F0CBF8034674
:10070800002B14BF01230023DBB2002B01D000F023
:10071800A9F900BF80BD00BF1401002000380040C7
:100728000077010080B500AF154B164A1A60144BCC
:100738004FF400725A60124B00229A60104B00224C
:10074800DA600F4B4FF400721A610D4B0E4A5A6172
:100758000B4B00229A610A4B0022DA61084B0022F7
:100768001A62074805F096F80346002B14BF0123C8
:100778000023DBB2002B01D000F074F900BF80BD6C
:100788005C010020003C00400077010080B500AF0C
:100798001A4B1B4A1A60194B4FF482725A60174B56
:1007A80000229A60154B0022DA60144B00221A616D
:1007B800124B00225A61114B4FF400729A610F4B91
:1007C8000022DA610D4B00221A620C4B00225A6299
:1007D8000A4B00229A62094B0A22DA62074806F09D
:1007E800E1FA0346002B14BF01230023DBB2002BE0
:1007F80001D000F037F900BF80BD00BFA401002080
:100808000030014080B500AF134B144A1A60124BF8
:100818004FF461425A60104B00229A600E4B00223E
:10082800DA600D4B00221A610B4B0C225A610A4BFD
:1008380000229A61084B0022DA61074806F03BFB68
:100848000346002B14BF01230023DBB2002B01D089
:1008580000F008F900BF80BDFC0100200010014035
:1008680080B582B000AF00237B60104B1B6B0F4A32
:1008780043F4800313630D4B1B6B03F480037B600D
:100888007B68002200213A2002F0C5FC3A2002F0E1
:10089800DEFC00220021462002F0BDFC462002F0CA
:1008A800D6FC00BF0837BD4680BD00BF00380240F7
:1008B80080B58CB000AF07F11C0300221A605A60A3
:1008C8009A60DA601A610023BB61614B1B6B604A56
:1008D80043F0100313635E4B1B6B03F01003BB6103
:1008E800BB6900237B615A4B1B6B594A43F00403D5
:1008F8001363574B1B6B03F004037B617B69002375
:100908003B61534B1B6B524A43F080031363504BBC
:100918001B6B03F080033B613B690023FB604C4B7E
:100928001B6B4B4A43F001031363494B1B6B03F0EA
:100938000103FB60FB680023BB60454B1B6B444A0B
:1009480043F002031363424B1B6B03F00203BB60CB
:10095800BB6800237B603E4B1B6B3D4A43F008039A
:1009680013633B4B1B6B03F008037B607B6800221F
:100978000821384803F00CFA01220121364803F017
:1009880007FA00224FF21001344803F001FA042359
:10099800FB6100233B6200237B6207F11C031946BD
:1009A8002C4803F071F80823FB6101233B62002304
:1009B8007B620023BB6207F11C031946254803F03C
:1009C80063F83223FB614FF490133B6200237B6290
:1009D80007F11C0319461F4803F056F80123FB6171
:1009E80001233B6200237B620023BB6207F11C03E7
:1009F8001946194803F048F80123FB614FF4901396
:100A08003B6200237B6207F11C031946144803F07C
:100A18003BF84FF21003FB6101233B6200237B622A
:100A28000023BB6207F11C0319460C4803F02CF89D
:100A38002023FB6100233B6200237B6207F11C0338
:100A48001946064803F020F800BF3037BD4680BD80
:100A5800003802400010024000080240000C02402A
:100A68000000024080B400AF72B600BFFEE780B459
:100A780083B000AF78607B6800221A607B68002230
:100A88005A607B6818460C37BD465DF8047B704792
:100A980080B483B000AF7860044A7B681A607B68D2
:100AA80018460C37BD465DF8047B704734BE000815
:100AB80080B582B000AF78607B681846FFF7E8FF22
:100AC800064A7B681A607B6804331846FFF7CFFF35
:100AD8007B6818460837BD4680BD00BF1CBE0008AD
:100AE80080B485B000AF786039600023FB607B6814
:100AF8005968FB683A681344CAB21A707B685B6825
:100B0800190AFB6801333A681344CAB21A707B6841
:100B18005B68190CFB6802333A681344CAB21A704E
:100B28007B685B68190EFB6803333A681344CAB2E2
:100B38001A70FB680433FB607B689968FB683A6845
:100B48001344CAB21A707B689B68190AFB680133A0
:100B58003A681344CAB21A707B689B68190CFB6820
:100B680002333A681344CAB21A707B689B68190E3C
:100B7800FB6803333A681344CAB21A70FB6804333B
:100B8800FB60FB6818461437BD465DF8047B704768
:100B980080B485B000AF786039600023FB60FB68E3
:100BA8003A6813441B781A467B685A607B685A680F
:100BB800FB68013339680B441B781B021A437B68B6
:100BC8005A607B685A68FB68023339680B441B78A3
:100BD8001B041A437B685A607B685A68FB680333B6
:100BE80039680B441B781B061A437B685A60FB68FC
:100BF8000433FB60FB683A6813441B781A467B6829
:100C08009A607B689A68FB68013339680B441B78E3
:100C18001B021A437B689A607B689A68FB680233F8
:100C280039680B441B781B041A437B689A607B68FD
:100C38009A68FB68033339680B441B781B061A4310
:100C48007B689A60FB680433FB60FB6818461437BE
:100C5800BD465DF8047B704780B483B000AF786010
:100C6800034B18460C37BD465DF8047B704700BF40
:100C780020BC000880B483B000AF7860034B1846EE
:100C88000C37BD465DF8047B704700BF30BC0008D8
:100C980080B582B000AF78607B681846FFF7F8FE31
:100CA8000B4A7B681A607B6800229A807B68094A35
:100CB8009A607B68074ADA607B68064A1A617B6833
:100CC80000225A617B6818460837BD4680BD00BFC0
:100CD80004BE000854BC000880B588B000AF786036
:100CE80039600023FB617B689988FB693A68134483
:100CF800CAB21A707B689B881B0A99B2FB690133D8
:100D08003A681344CAB21A70FB690233FB617B6804
:100D18009B681846FFF75CFAB861FB693A681344A8
:100D2800B969184600F0F2FFFB690433FB61FB69FF
:100D38003A68D0187B689B68BA6919460AF0C8FDFA
:100D4800FA69BB691344FB617B68DB681846FFF7E7
:100D58003FFA7861FB693A6813447969184600F0EC
:100D6800D5FFFB690433FB61FB693A68D0187B68DF
:100D7800DB687A6919460AF0ABFDFA697B691344A6
:100D8800FB617B681B691846FFF722FA3861FB692B
:100D98003A6813443969184600F0B8FFFB69043310
:100DA800FB61FB693A68D0187B681B693A69194688
:100DB8000AF08EFDFA693B691344FB617B685B6945
:100DC800FB60F968FB693A681344CAB21A70FB6899
:100DD800190AFB6901333A681344CAB21A70FB68EE
:100DE800190CFB6902333A681344CAB21A70FB68DB
:100DF800190EFB6903333A681344CAB21A70FB69C7
:100E08000433FB61FB6918462037BD4680BD80B5B9
:100E18008AB000AF786039600023BB61BB693A686B
:100E280013441B789AB27B689A807B689B881AB2B5
:100E3800BB69013339680B441B781B021BB213438F
:100E48001BB29AB27B689A80BB690233BB61BB69EB
:100E58003A681A4407F114031146184600F074FF63
:100E6800BB690433BB61BB697B62BA697B691344A4
:100E78007A6A9A420CD23A687B6A1A447B6A013BC6
:100E880039680B4412781A707B6A01337B62ECE78D
:100E9800BA697B691344013B3A68134400221A700B
:100EA800BB69013B3A681A447B689A60BA697B69F6
:100EB8001344BB61BB693A681A4407F11003114631
:100EC800184600F041FFBB690433BB61BB693B6254
:100ED800BA693B6913443A6A9A420CD23A683B6A47
:100EE8001A443B6A013B39680B4412781A703B6A12
:100EF80001333B62ECE7BA693B691344013B3A684A
:100F0800134400221A70BB69013B3A681A447B6893
:100F1800DA60BA693B691344BB61BB693A681A4431
:100F280007F10C031146184600F00EFFBB690433A5
:100F3800BB61BB69FB61BA69FB681344FA699A42F1
:100F48000CD23A68FB691A44FB69013B39680B44C7
:100F580012781A70FB690133FB61ECE7BA69FB6828
:100F68001344013B3A68134400221A70BB69013BE1
:100F78003A681A447B681A61BA69FB681344BB6112
:100F88000023BB60BB68BA6939680A441278134306
:100F9800BB60BA68BB69013339680B441B781B0214
:100FA8001343BB60BA68BB69023339680B441B78CA
:100FB8001B041343BB60BA68BB69033339680B442D
:100FC8001B781B061343BB60BA687B685A61BB6910
:100FD8000433BB61BB6918462837BD4680BD000095
:100FE80080B483B000AF7860034B18460C37BD4619
:100FF8005DF8047B704700BF58BC000880B483B01C
:1010080000AF7860034B18460C37BD465DF8047B8B
:10101800704700BF74BC000880B582B000AF78602C
:101028007B681846FFF734FD064A7B681A607B68C0
:1010380000221A717B68044A9A607B681846083750
:10104800BD4680BDECBD000854BC000880B584B026
:1010580000AF786039600023FB60FB683A6813448E
:101068007A6812791A70FB680133FB607B689B68A9
:101078001846FFF7ADF8B860FB683A681344B968DA
:10108800184600F043FEFB680433FB60FB683A68CF
:10109800D0187B689B68BA6819460AF019FCFA6888
:1010A800BB681344FB60FB6818461037BD4680BD1B
:1010B80080B586B000AF7860396000233B613B693A
:1010C8003A6813441A787B681A713B6901333B61AB
:1010D8003B693A681A4407F10C031146184600F0B8
:1010E80033FE3B6904333B613B697B613A69FB68CA
:1010F80013447A699A420CD23A687B691A447B692C
:10110800013B39680B4412781A707B6901337B61A3
:10111800ECE73A69FB681344013B3A681344002240
:101128001A703B69013B3A681A447B689A603A69CD
:10113800FB6813443B613B6918461837BD4680BDC0
:1011480080B483B000AF7860034B18460C37BD46B7
:101158005DF8047B704700BF98BC000880B483B07A
:1011680000AF7860034B18460C37BD465DF8047B2A
:10117800704700BFACBC000880B582B000AF786093
:101188007B681846FFF784FC114A7B681A607B6805
:1011980000225A607B6800229A607B680022DA602D
:1011A8007B6800221A617B684FF000025A617B68F5
:1011B80000229A617B680022DA617B6800221A6249
:1011C8007B6800225A627B6818460837BD4680BD96
:1011D800D4BD000880B58AB000AF786039600023BC
:1011E8007B627B6859687B6A3A681344CAB21A7092
:1011F8007B685B68190A7B6A01333A681344CAB290
:101208001A707B685B68190C7B6A02333A6813446E
:10121800CAB21A707B685B68190E7B6A03333A6836
:101228001344CAB21A707B6A04337B6200233B62A0
:101238007B685B683A6A9A422BD27B68DA683B6AB9
:101248009B0013441B683B6139697B6A3A68134405
:10125800CAB21A703B69190A7B6A01333A681344A7
:10126800CAB21A703B69190C7B6A02333A68134494
:10127800CAB21A703B69190E7B6A03333A68134481
:10128800CAB21A707B6A04337B623B6A01333B62E1
:10129800CEE77B6819697B6A3A681344CAB21A7048
:1012A8007B681B69190A7B6A01333A681344CAB21E
:1012B8001A707B681B69190C7B6A02333A681344FD
:1012C800CAB21A707B681B69190E7B6A03333A68C5
:1012D8001344CAB21A707B6A04337B620023FB6131
:1012E8007B681B69FA699A422BD27B689A69FB6909
:1012F8009B0013441B68FB60F9687B6A3A681344D7
:10130800CAB21A70FB68190A7B6A01333A68134437
:10131800CAB21A70FB68190C7B6A02333A68134424
:10132800CAB21A70FB68190E7B6A03333A68134411
:10133800CAB21A707B6A04337B62FB690133FB61B2
:10134800CEE77B68D9697B6A3A681344CAB21A70D7
:101358007B68DB69190A7B6A01333A681344CAB2AD
:101368001A707B68DB69190C7B6A02333A6813448C
:10137800CAB21A707B68DB69190E7B6A03333A6854
:101388001344CAB21A707B6A04337B620023BB61C0
:101398007B68DB69BA699A4228D27B685A6ABB695A
:1013A8009B0013441B681846FEF712FF78617B6A9E
:1013B8003A6813447969184600F0A8FC7B6A04333C
:1013C8007B627B6A3A68D0187B685A6ABB699B0063
:1013D80013441B687A6919460AF07AFA7A6A7B69B3
:1013E80013447B62BB690133BB61D1E77B6A184652
:1013F8002837BD4680BD80B58EB000AF78603960B3
:1014080000237B637B6B3A6813441B783B627B6BDE
:1014180001333A6813441B781B023A6A13433B6250
:101428007B6B02333A6813441B781B043A6A1343F4
:101438003B627B6B03333A6813441B781B063A6A9A
:1014480013433B627B6B04337B637B685B683A6A5C
:101458009A420AD97B68DA683B6A9B0019461046AB
:101468000AF02CFB02467B68DA607B683A6A5A60AD
:1014780000233B637B685B683A6B9A4236D2002351
:101488007B617B697A6B39680A44127813437B6104
:101498007A697B6B013339680B441B781B02134351
:1014A8007B617A697B6B023339680B441B781B04B8
:1014B80013437B617A697B6B033339680B441B7870
:1014C8001B0613437B617A697B689A607B6B0433E4
:1014D8007B637B68DA683B6B9B0013447A6808324D
:1014E80012681A603B6B01333B63C3E77B6B3A6856
:1014F80013441B78FB617B6B01333A6813441B78F8
:101508001B02FA691343FB617B6B02333A6813448D
:101518001B781B04FA691343FB617B6B03333A683E
:1015280013441B781B06FA691343FB617B6B043376
:101538007B637B681B69FA699A420AD97B689A6956
:10154800FB699B00194610460AF0B8FA02467B6808
:101558009A617B68FA691A610023FB627B681B69E0
:10156800FA6A9A4236D200233B613B697A6B396842
:101578000A44127813433B613A697B6B013339683B
:101588000B441B781B0213433B613A697B6B0233A4
:1015980039680B441B781B0413433B613A697B6B26
:1015A800033339680B441B781B0613433B613A69C4
:1015B8007B685A617B6B04337B637B689A69FB6A3F
:1015C8009B0013447A68143212681A60FB6A01336C
:1015D800FB62C3E77B6B3A6813441B78BB617B6B88
:1015E80001333A6813441B781B02BA691343BB6181
:1015F8007B6B02333A6813441B781B04BA691343A4
:10160800BB617B6B03333A6813441B781B06BA69CA
:101618001343BB617B6B04337B637B68DB69BA690B
:101628009A420AD97B685A6ABB699B0019461046D8
:101638000AF044FA02467B685A627B68BA69DA6142
:101648000023BB627B68DB69BA6A9A423FD27B6B34
:101658003A681A4407F10C031146184600F074FB67
:101668007B6B04337B637B6B7B627A6BFB68134415
:101678007A6A9A420CD23A687B6A1A447B6A013BBE
:1016880039680B4412781A707B6A01337B62ECE785
:101698007A6BFB681344013B3A68134400221A70C2
:1016A8007B6B013B3A681A447B681A627A6BFB6869
:1016B80013447B637B685A6ABB6A9B0013447A684D
:1016C800203212681A60BB6A0133BB62BAE77B6BCF
:1016D80018463837BD4680BD80B483B000AF786007
:1016E800034B18460C37BD465DF8047B704700BFB6
:1016F80070BD000880B483B000AF7860034B184613
:101708000C37BD465DF8047B704700BFD0BC0008AD
:1017180080B485B000AFF860B9607A603B60FB6860
:10172800BA681A60FB687A685A60FB683A681A6196
:10173800FB6818461437BD465DF8047B704780B5D2
:1017480082B000AF786039607B68D8687B68DB68F6
:101758001B681B687A6891683A6898470346184678
:101768000837BD4680BD80B483B000AF78607B6821
:101778001B6918460C37BD465DF8047B704780B47A
:1017880083B000AF78607B681B689B6B1B685B68E5
:10179800C3F58063C3F3090318460C37BD465DF8EB
:1017A800047B704780B483B000AF78607B680A4AD6
:1017B8001A607B680022C3F804247B680022C3F8FF
:1017C80008287B680022C3F80C287B6818460C3769
:1017D800BD465DF8047B7047FC01002080B582B0EF
:1017E80000AF7860786800F004F800BF0837BD469D
:1017F80080BD80B582B000AF78607B6818687B6870
:1018080004334FF48062194605F020FC00BF083706
:10181800BD4680BD90B585B000AF78604FF0FF330E
:10182800FB607B68D3F804447868FFF7A8FF034699
:101838009C4214BF01230023DBB2002B12D07B682B
:10184800D3F80434591C7A68C2F804147A6813442B
:101858001B79FB607B68D3F80434C3F309027B6807
:10186800C3F80424FB6818461437BD4690BD000031
:1018780080B584B000AF78607B681B6893F83D3012
:10188800DBB2202B08D1284B1B7883F00103DBB295
:10189800002B01D0012300E00023002B3FD0224B76
:1018A80001221A707B68D3F808287B68D3F80C38B3
:1018B8009A4231D07B68D3F80C287B68D3F8083873
:1018C8009A420AD27B68D3F808389AB27B68D3F870
:1018D8000C389BB2D31A9BB206E07B68D3F80C385D
:1018E8009BB2C3F580639BB2FB817B6818687B68F9
:1018F800D3F80C3803F581637A681344FA891946DA
:1019080005F026FB7B68D3F80C28FB891344C3F346
:1019180009027B68C3F80C28034B00221A7000BF29
:101928001037BD4680BD00BF0003002080B586B0DB
:1019380000AFF860B9607A607B689BB27B827B8A73
:10194800B3F5806F03D807F112031B8801E04FF449
:1019580080637B827B8A1A46FB68D3F80838C3F514
:101968008063934228BF13467B61FB68D3F808382D
:1019780003F58163FA6813447A69B968184609F06F
:10198800A7FFFB68D3F808387A8A1344C3F309021F
:10199800FB68C3F808287B8A1A467B6993420CD0F7
:1019A800FB6803F581607B69BA68D1187B8A1A469F
:1019B8007B69D31A1A4609F08BFFF868FFF758FFBE
:1019C80000BF1837BD4680BD80B582B000AF7860D3
:1019D80001F016FB034618460837BD4680BD0000D7
:1019E80080B582B000AF78607B681846FFF750F882
:1019F800054A7B681A607B68044A5A607B68184607
:101A08000837BD4680BD00BFA8BD000854BC00080B
:101A180080B584B000AF786039600023FB607B68D4
:101A28005B681846FEF7D4FBB860FB683A68134455
:101A3800B968184600F06AF9FB680433FB60FB6874
:101A48003A68D0187B685B68BA68194609F040FFA5
:101A5800FA68BB681344FB60FB6818461037BD463C
:101A680080BD80B586B000AF7860396000233B61E7
:101A78003B693A681A4407F10C031146184600F00E
:101A880063F93B6904333B613B697B613A69FB68F5
:101A980013447A699A420CD23A687B691A447B6982
:101AA800013B39680B4412781A707B6901337B61FA
:101AB800ECE73A69FB681344013B3A681344002297
:101AC8001A703B69013B3A681A447B685A603A6964
:101AD800FB6813443B613B6918461837BD4680BD17
:101AE80080B483B000AF7860034B18460C37BD460E
:101AF8005DF8047B704700BFF4BC000880B483B075
:101B080000AF7860034B18460C37BD465DF8047B80
:101B1800704700BF04BD000880B483B000AF786090
:101B2800044A7B681A607B6818460C37BD465DF826
:101B3800047B7047C0BD000880B582B000AF7860F4
:101B48007B681846FFF7E8FF454A7B681A607B68A0
:101B580004331846FFF726FE7B680022C3F81428D2
:101B68007B680022C3F818287B680022C3F81C2869
:101B78007B680022C3F820287B6803F624034FF40F
:101B880080620021184609F0B1FE7B6803F6244301
:101B98004FF480620021184609F0A8FE7B6803F51F
:101BA8008053243364220021184609F09FFE7B6885
:101BB80003F58053883364220021184609F096FE05
:101BC8007B6803F580531A460023C2F8EC307B6823
:101BD80003F580531A460023C2F8F0307B6803F5FA
:101BE80080531A460023C2F8F4307B6803F580530B
:101BF8001A460023C2F8F8307B6803F580531A466A
:101C08000023C2F8FC307B6803F58053002283F878
:101C180000217B6803F580531A460023C2F804317B
:101C28007B6803F580531A460023C2F808317B68A5
:101C380003F580531A460023C2F80C317B6803F57C
:101C48008053002283F810217B6803F588531433EE
:101C58001846FFF791FA7B6818460837BD4680BDDD
:101C680094BD000880B582B000AF7860054800F0E8
:101C780090F803461846FFF7FBFD00BF0837BD463E
:101C880080BD00BF0403002080B582B000AF78603B
:101C9800054800F07EF803461846FFF7AAFD00BF86
:101CA8000837BD4680BD00BF0403002080B500AFE3
:101CB800044800F07AF80449024800F09FF800BF91
:101CC80080BD00BF040300204814002080B500AF89
:101CD8004FF48051084802F074F8084B084A5A60DB
:101CE80006490848FFF72BFD074800F0B7F86420BD
:101CF80001F092F900BF80BD000C024040140020A2
:101D080000000020481400200403002080B485B09F
:101D180000AF786039600023FB60FB68032B0DD8A7
:101D2800FB68DB003A6822FA03F17A68FB6813441F
:101D3800CAB21A70FB680133FB60EEE700BF1437C4
:101D4800BD465DF8047B704780B485B000AF78600D
:101D580039607B6800221A600023FB60FB68032B54
:101D680011D87B681B683968FA680A4412781146EA
:101D7800FA68D20001FA02F21A437B681A60FB681B
:101D88000133FB60EAE700BF1437BD465DF8047B0A
:101D9800704780B483B000AF78607B68043318461E
:101DA8000C37BD465DF8047B704780B582B000AF44
:101DB80078607B6804331846FFF710FD7B6803F5ED
:101DC80080531A460023C2F8EC307B6803F5805331
:101DD8001A460023C2F8F0307B6803F580531A4690
:101DE8000023C2F8F8307B6803F580531A460023B5
:101DF800C2F8F43000BF0837BD4680BD80B485B056
:101E080000AF786039600023FB60FB68182B1EDC8C
:101E18007A68FB6803F581639B0013445B68002BB9
:101E280011D17A68FB6803F581639B0013443A6813
:101E38005A60FB6803F17D023B689A607A683B68E8
:101E4800DA60012304E0FB680133FB60DDE700236F
:101E580018461437BD465DF8047B704780B584B0DA
:101E680000AF78607B6804331846FFF7ADFDF86073
:101E78007B6803F58053D3F80831FA68D31A42F621
:101E8800F822934205D97B6803F58053002283F832
:101E980000217B6803F58053D3F8EC30002B0ED07B
:101EA8007B6803F58053D3F80C31FA689A4206D957
:101EB8007B6803F580531A460023C2F8EC307B6830
:101EC800D3F82038002B14D07B6804331846FFF76A
:101ED8007BFD0246FB68D21A7B68D3F820389A4209
:101EE8008CBF01230023DBB2002B02D06FF001036B
:101EF80021E27B6804331846FFF78CFCB860BB68A6
:101F0800002BC0F2FA817B6803F58053D3F8FC20DC
:101F1800BB6813447A6802F58052C2F8FC307B68CB
:101F280003F58053D3F8EC30072B2BD17B6803F5EE
:101F38008053D3F8F8305A1C796801F58051C1F8FC
:101F4800F820BA68D1B27A6813440A4683F824287C
:101F58007B6803F58053D3F8F030013B7A6802F5CB
:101F68008052C2F8F0307B6803F58053D3F8F03024
:101F7800002BA4D17B6803F580531A460823C2F8C6
:101F8800EC309CE77B6803F58053D3F8EC30002BEA
:101F980030D1BB68FF2B12D17B6803F58053D3F88F
:101FA800EC3001337A6802F58052C2F8EC30FB68F5
:101FB80014337A6802F58052C2F80C317FE77B68E7
:101FC80004331846FFF700FD0246FB68D31A41F2B6
:101FD800883293428CBF01230023DBB2002B3FF4ED
:101FE8006EAF7B6803F58053002283F800216FF001
:101FF8000103A0E17B6803F58053D3F8EC30012B93
:1020080021D1BB68FE2B0BD17B6803F58053D3F835
:10201800EC3001337A6802F58052C2F8EC304EE7B2
:102028007B6803F580531A460023C2F8EC307B68BE
:1020380003F5805393F80031002B7FF440AF7868A4
:1020480000F07DF93BE77B6803F58053D3F8EC306B
:10205800022B20D17B6803F580531A46BB68C2F86F
:10206800F0307B6803F580531A460023C2F8F83035
:102078007B6803F58053D3F8EC3001337A6802F5B6
:102088008052C2F8EC307B6803F580531A46BB686F
:10209800C2F8FC3013E77B6803F58053D3F8EC30C3
:1020A800032B18D17B6803F58053D3F8F020BB6865
:1020B8001B0213447A6802F58052C2F8F0307B683C
:1020C80003F58053D3F8EC3001337A6802F5805277
:1020D800C2F8EC30F3E67B6803F58053D3F8EC30B4
:1020E800042B1FD17B6803F58053D3F8FC305A4288
:1020F800DBB2D2B258BF5342FF2B0BD17B6803F53A
:102108008053D3F8EC3001337A6802F58052C2F874
:10211800EC30D4E67B6803F580531A460023C2F8F6
:10212800EC30CCE67B6803F58053D3F8EC30052B14
:1021380019D17B6803F580531A46BB68C2F8F4309E
:102148007B6803F58053D3F8EC3001337A6802F5E5
:102158008052C2F8EC307B6803F580531A46BB689E
:10216800C2F8FC30ABE67B6803F58053D3F8EC305B
:10217800062B23D17B6803F58053D3F8F420BB6882
:102188001B0213447A6802F58052C2F8F4307B6867
:1021980003F580531A460723C2F8EC307B6803F531
:1021A8008053D3F8F030002B7FF489AE7B6803F5B9
:1021B80080531A460823C2F8EC3080E67B6803F5A2
:1021C8008053D3F8EC30082B7FF479AE7B6803F5A5
:1021D80080531A460023C2F8EC307B6803F580531D
:1021E800D3F8FC305A42DBB2D2B258BF5342FF2B6D
:1021F8007FF465AE7B6803F58053D3F8F430002B89
:1022080016D1786800F09BF8786800F0B6F87B681B
:1022180003F580531A46FB68C2F804317B6803F55E
:1022280080531A46FB68C2F808314FF0FF3382E04A
:102238007B6803F58053D3F8F4300A2B07D17B6809
:1022480003F624031946786800F078F937E67B68C6
:1022580003F58053D3F8F430062B11D17B6803F5CE
:10226800885314337A6802F6240211461846FFF799
:10227800C2F87B6803F58053012283F810211EE61B
:102288007B6803F58053D3F8F4300B2B06D17B68B9
:1022980003F58053002283F8002110E67B6803F5DC
:1022A8008053D3F8F430A3F164027B6802F222422F
:1022B80053F82230002B3FF402AE7B6803F58053BD
:1022C800D3F8F430A3F164027B6802F2224253F897
:1022D80022007B6803F58053D3F8F430A3F164023D
:1022E8007B6802F2224253F822301B681B687A6826
:1022F80002F6240211469847E1E500BF7B6803F522
:10230800805393F80031002B14D07B6803F5805379
:10231800D3F80431FA68D31A40F6C412934209D9A3
:10232800786800F00CF87B6803F580531A46FB6860
:10233800C2F80431002318461037BD4680BD80B569
:1023480086B000AF786007F10C031846FEF7B0FBC3
:102358007B681B681B6807F10C020A21786898479C
:102368007B6804331846FFF72FFB02467B68C3F8E7
:10237800142800BF1837BD4680BD90B58BB000AF9C
:10238800786007F10C031846FEF782FC00237B6295
:102398007B6A182B63DC7A687B6A03F581639B0090
:1023A80013445B68002B56D07A687B6A03F5816317
:1023B8009B0013445B689B689BB23B827A687B6A8C
:1023C80003F581639B0013445B681B687B617A6833
:1023D8007B6A03F581639B0013445B6859687A68DC
:1023E8007B6A03F581639B0013445B685B681B6829
:1023F80008331B68084698470346BB617A687B6ABE
:1024080003F581639B0013445B6859687A687B6AAB
:1024180003F581639B0013445B685B681B680C339E
:102428001B68084698470346FB614FF480633B628C
:102438007B681B681C687A687B6A03F581639B006C
:1024480013445B681846FFF78EF9014607F10C0341
:102458001A467868A0477B6A01337B6298E70023B5
:102468007B627B6A182B5FDC7B687A6A02F2224205
:1024780053F82230002B53D07B687A6A02F222424A
:1024880053F822305B689BB23B827B687A6A02F21F
:10249800224253F822309B687B617B687A6A02F299
:1024A800224253F822107B687A6A02F2224253F8D9
:1024B80022301B6808331B68084698470346BB61EF
:1024C8007B687A6A02F2224253F822107B687A6AA1
:1024D80002F2224253F822301B680C331B6808466C
:1024E80098470346FB614FF480633B627B681B6837
:1024F8001C687B687A6A02F2224253F822107B68D1
:102508007A6A02F2224253F822301B6804331B68AD
:1025180008469847014607F10C031A467868A04711
:102528007B6A01337B629CE77B6803F58053012259
:1025380083F8002100BF2C37BD4690BD80B586B01A
:1025480000AF7860396007F108031846FEF7B0FA63
:102558007B6804331846FFF737FA02467B68D3F8DE
:102568001438D31A7B6107F1080339681846FEF757
:102578000FFBFA687B691649A1FB03139B091344F7
:10258800FB6039697A69124BA3FB02039B094FF47C
:102598007A7000FB03F3D31A0E4A02FB03F30B44D1
:1025A8003B6107F1080304331946786800F0AAF87C
:1025B8007B6804331846FFF707FA02467B6803F581
:1025C8008053C3F8082100BF1837BD4680BD00BF3F
:1025D800D34D621040420F0080B588B000AFF8605C
:1025E800B9607A60BB68632B0BDDFB6803F5805329
:1025F80093F8003183F00103DBB2002B01D00023F4
:1026080079E07B681B681B68FA6802F62442073287
:102618001146786898477861FB68FF2283F8242C74
:10262800FB68FE2283F8252C7B69DAB2FB6883F805
:10263800262C7B699BB21B0A9BB2DAB2FB6883F833
:10264800272CFB6893F8262CFB6893F8273C134447
:10265800DBB2DB43DAB2FB6883F8282CBB68DAB25A
:10266800FB6883F8292CBB681BB21B121BB2DAB2B9
:10267800FB6883F82A2C0023FB610523BB617B6977
:102688000633BA699A420DDCFA68BB69134403F64B
:1026980024431B781A46FB691344FB61BB69013369
:1026A800BB61ECE77B6907337B61FB695A42DBB2AC
:1026B800D2B258BF5342DAB27B69591C7961D2430E
:1026C800D1B2FA6813440A4683F8242C7B69B3F51F
:1026D800806F0ADCFB68181DFB6803F624437A69DF
:1026E8001946FFF723F97B6905E00549F86800F00A
:1026F80049F84FF0FF3318462037BD4680BD00BF6C
:1027080028BD000880B584B000AF786039607B6868
:1027180004331846FFF758F9F8603B681A68FB68F5
:102728001549A1FB03139B09D31A5A1E7B68C3F8EA
:1027380018283B685968FA680F4BA3FB02039B09EA
:102748004FF47A7000FB03F3D31A0C4A02FB03F32D
:10275800CA1A0B4B13447A68C2F81C387B6803F614
:1027680018027B6803F61C031946104600F08CFB20
:1027780000BF1037BD4680BDD34D621040420F00E8
:1027880000CA9A3B80B582B000AF786039603A6879
:102798000321786800F004F800BF0837BD4680BD03
:1027A80080B588B000AFF8600B467A60FB7207F11D
:1027B80014031846FEF730FCFB7A3B767B68FB6116
:1027C800FB681B681B6807F114020721F868984723
:1027D80000BF2037BD4680BD80B582B000AF7860AD
:1027E80039607B68012B10D13B684FF6FF7293422A
:1027F8000BD10848FFF7A0F90748FFF7F1F80023C5
:10280800054A06490648FEF783FF00BF0837BD465C
:1028180080BD00BF040300204014002064BD0008F0
:102828004814002080B483B000AF78607B6803F55B
:10283800805393F8003118460C37BD465DF8047B89
:10284800704780B500AF4FF6FF710120FFF7C4FF56
:1028580080BD000080B582B000AF00237B60104BC4
:102868005B6C0F4A43F4804353640D4B5B6C03F479
:1028780080437B607B6800233B60094B1B6C084AE4
:1028880043F080531364064B1B6C03F080533B608A
:102898003B68072000F0B4FC00BF0837BD4680BD88
:1028A8000038024080B58AB000AF786007F11403A1
:1028B80000221A605A609A60DA601A617B681B68A5
:1028C800194A93422CD100233B61184B1B6B174AC2
:1028D80043F002031363154B1B6B03F002033B61C8
:1028E8003B694FF410737B611223BB610123FB61C9
:1028F80000233B6204237B6207F1140319460C484A
:1029080001F0C2F80023FB60084B1B6C074A43F434
:1029180000131364054B1B6C03F40013FB60FB6886
:1029280000BF2837BD4680BD005400400038024033
:102938000004024080B58EB000AF786007F1240330
:1029480000221A605A609A60DA601A617B681B6814
:10295800594A93425BD100233B62584B1B6C574A40
:1029680043F480431364554B1B6C03F480433B6270
:102978003B6A0023FB61514B1B6B504A43F0040335
:1029880013634E4B1B6B03F00403FB61FB690023CD
:10299800BB614A4B1B6B494A43F002031363474B25
:1029A8001B6B03F00203BB61BB6904237B62022338
:1029B800BB620023FB6200233B6306237B6307F1B2
:1029C800240319463E4801F05FF808237B6202237E
:1029D800BB620023FB6200233B6305237B6307F193
:1029E80024031946364801F04FF84FF4A0537B6290
:1029F8000223BB620023FB6200233B6305237B6346
:102A080007F1240319462F4801F03EF84FE07B6890
:102A18001B682D4A93424AD100237B61274B1B6CCC
:102A2800264A43F400431364244B1B6C03F400430D
:102A38007B617B6900233B61204B1B6B1F4A43F082
:102A4800010313631D4B1B6B03F001033B613B69DF
:102A58000023FB60194B1B6B184A43F004031363F4
:102A6800164B1B6B03F00403FB60FB6810237B62AF
:102A78000223BB620023FB6200233B6306237B63C4
:102A880007F124031946114800F0FEFF4FF4A45340
:102A98007B620223BB620023FB6200233B630623A5
:102AA8007B6307F124031946054800F0EDFF00BFDA
:102AB8003837BD4680BD00BF0038004000380240AE
:102AC8000008024000040240003C004000000240B0
:102AD80080B58AB000AF786007F1140300221A604D
:102AE8005A609A60DA601A617B681B68194A9342D7
:102AF8002BD100233B61184B5B6C174A43F480537E
:102B08005364154B5B6C03F480533B613B690023B2
:102B1800FB60114B1B6B104A43F0010313630E4B10
:102B28001B6B03F00103FB60FB68E0237B6102235E
:102B3800BB610023FB6103233B6205237B6207F132
:102B480014031946054800F09FFF00BF2837BD460B
:102B580080BD00BF00300140003802400000024044
:102B680080B58AB000AF786007F1140300221A60BC
:102B78005A609A60DA601A617B681B685C4A934203
:102B880040F0B18000233B615A4B5B6C594A43F0DB
:102B980010035364574B5B6C03F010033B613B69B4
:102BA8000023FB60534B1B6B524A43F00103136332
:102BB800504B1B6B03F00103FB60FB680023BB60F9
:102BC8004C4B1B6B4B4A43F002031363494B1B6B83
:102BD80003F00203BB60BB684FF400437B61022330
:102BE800BB610023FB6103233B6207237B6207F180
:102BF80014031946404800F047FF80237B610223F5
:102C0800BB610023FB6103233B6207237B6207F15F
:102C180014031946394800F037FF394B394A1A600E
:102C2800374B4FF000625A60354B00229A60344BA4
:102C38000022DA60324B4FF480621A61304B002276
:102C48005A612F4B00229A612D4B0022DA612C4BDE
:102C58004FF440321A622A4B00225A62284800F088
:102C680011FB0346002B01D0FDF7FCFE7B68244ACC
:102C78009A63234A7B689363234B244A1A60224B46
:102C88004FF000625A60204B40229A601E4B00228F
:102C9800DA601D4B4FF480621A611B4B00225A61A7
:102CA800194B00229A61184B0022DA61164B4FF437
:102CB80040321A62144B00225A62134800F0E2FABA
:102CC8000346002B01D0FDF7CDFE7B680E4A5A6300
:102CD8000D4A7B68936300220021252000F09BFAAF
:102CE800252000F0B4FA00BF2837BD4680BD00BFDC
:102CF8000010014000380240000002400004024079
:102D08004002002040640240A0020020B864024053
:102D180080B400AFFEE780B400AFFEE780B400AF38
:102D2800FEE780B400AFFEE780B400AFFEE780B4F2
:102D380000AF00BFBD465DF8047B704780B400AFAC
:102D480000BFBD465DF8047B704780B400AF00BF8C
:102D5800BD465DF8047B704780B500AF00F03CF9D4
:102D680000BF80BD80B500AF024804F09FF900BFE6
:102D780080BD00BFFC01002080B500AF024800F014
:102D880019FC00BF80BD00BF4002002080B500AF25
:102D9800024801F09BFA00BF80BD00BF4018002028
:102DA80080B500AF024800F005FC00BF80BD00BF41
:102DB800A002002080B400AF01231846BD465DF88C
:102DC800047B704780B582B000AF7860396008F046
:102DD80045FD034616221A604FF0FF3318460837A0
:102DE800BD4680BD80B582B000AF78604FF0FF313E
:102DF8007868FFF7E7FFFEE780B586B000AF786038
:102E0800144A154BD31A7B617B693B61134B1B68D2
:102E1800002B02D1114B124A1A60104B1A687B68BA
:102E280013443A699A4207D208F018FD03460C2267
:102E38001A604FF0FF3309E0084B1B68FB60074B33
:102E48001A687B681344054A1360FB6818461837EC
:102E5800BD4680BD00000220000400005C14002074
:102E6800581B002080B400AF064BD3F88830054AC1
:102E780043F47003C2F8883000BFBD465DF8047B98
:102E8800704700BF00ED00E080B485B000AF786007
:102E980039603B681B685A0A0F49A1FB0212D20924
:102EA8000E4901FB02F29B1AFB603B681B685B0A38
:102EB800094AA2FB0323DB09BB607B681A68BB686D
:102EC8001A447B681A603B68FA681A6000BF1437B6
:102ED800BD465DF8047B7047834B040000CA9A3BEB
:102EE800DFF834D00D480E490E4A002302E0D458CA
:102EF800C4500433C4188C42F9D30B4A0B4C00233A
:102F080001E013600432A242FBD3FFF7ABFF08F0E5
:102F1800ABFCFDF7E7FA7047000002200000002034
:102F2800A400002078BE0008A4000020541B002044
:102F3800FEE7000080B500AF0E4B1B680D4A43F456
:102F4800007313600B4B1B680A4A43F480631360D9
:102F5800084B1B68074A43F480731360032000F092
:102F68004FF9002000F008F8FFF774FC002318461A
:102F780080BD00BF003C024080B582B000AF7860E1
:102F8800124B1A68124B1B7819464FF47A73B3FB2D
:102F9800F1F3B2FBF3F3184600F067F90346002B90
:102FA80001D001230EE07B680F2B0AD80022796834
:102FB8004FF0FF3000F02FF9064A7B6813600023BA
:102FC80000E0012318460837BD4680BD10000020E8
:102FD800180000201400002080B400AF064B1B78B6
:102FE8001A46064B1B681344044A136000BFBD46CB
:102FF8005DF8047B704700BF1800002060140020B3
:1030080080B400AF034B1B681846BD465DF8047BCF
:10301800704700BF6014002080B584B000AF7860AE
:10302800FFF7EEFFB8607B68FB60FB68B3F1FF3F1A
:1030380005D00A4B1B781A46FB681344FB6000BF97
:10304800FFF7DEFF0246BB68D31AFA689A42F7D840
:1030580000BF00BF1037BD4680BD00BF180000206C
:1030680080B485B000AF78607B6803F00703FB602D
:103078000C4BDB68BB60BA684FF6FF031340BB60BC
:10308800FB681A02BB68134343F0BF6343F4003381
:10309800BB60044ABB68D36000BF1437BD465DF807
:1030A800047B704700ED00E080B400AF044BDB68A0
:1030B8001B0A03F007031846BD465DF8047B7047FA
:1030C80000ED00E080B483B000AF0346FB7197F9D0
:1030D8000730002B0BDBFB7903F01F02074997F938
:1030E80007305B09012000FA02F241F8232000BFF3
:1030F8000C37BD465DF8047B704700BF00E100E077
:1031080080B483B000AF03463960FB7197F907308C
:10311800002B0ADB3B68DAB20C4997F90730120139
:10312800D2B20B4483F800230AE03B68DAB20849BC
:10313800FB7903F00F03043B1201D2B20B441A7659
:1031480000BF0C37BD465DF8047B704700E100E026
:1031580000ED00E080B489B000AFF860B9607A6033
:10316800FB6803F00703FB61FB69C3F10703042B4A
:1031780028BF0423BB61FB690433062B02D9FB6912
:10318800033B00E000237B614FF0FF32BB6902FA8A
:1031980003F3DA43BB681A407B699A404FF0FF316A
:1031A8007B6901FA03F3D9437B680B401343184644
:1031B8002437BD465DF8047B7047000080B582B0B7
:1031C80000AF78607B68013BB3F1807F01D30123B6
:1031D8000FE00A4A7B68013B53600F214FF0FF3034
:1031E800FFF78EFF054B00229A60044B07221A60F6
:1031F800002318460837BD4680BD00BF10E000E038
:1032080080B582B000AF78607868FFF729FF00BF0B
:103218000837BD4680BD80B586B000AF0346B960AB
:103228007A60FB7300237B61FFF73EFF78617A6861
:10323800B9687869FFF78EFF024697F90F30114693
:103248001846FFF75DFF00BF1837BD4680BD80B543
:1032580082B000AF0346FB7197F907301846FFF7B5
:1032680031FF00BF0837BD4680BD80B582B000AFD2
:1032780078607868FFF7A2FF034618460837BD460E
:1032880080BD000080B586B000AF786000237B6108
:10329800FFF7B6FE38617B68002B01D1012399E066
:1032A8007B68022283F835207B68002283F834206B
:1032B8007B681B681A687B681B6822F001021A6029
:1032C8000FE0FFF79DFE02463B69D31A052B08D98C
:1032D8007B6820225A657B68032283F83520032304
:1032E80078E07B681B681B6803F00103002BE8D1BA
:1032F8007B681B681B687B617A69384B13407B616C
:103308007B685A687B689B681A437B68DB681A434A
:103318007B681B691A437B685B691A437B689B69F6
:103328001A437B68DB691A437B681B6A13437A6913
:1033380013437B617B685B6A042B07D17B68DA6A7D
:103348007B681B6B13437A6913437B617B681B683B
:103358007A691A607B681B685B697B617B6923F00B
:1033680007037B617B685B6A7A6913437B617B68CF
:103378005B6A042B17D17B689B6A7A6913437B616C
:103388007B68DB6A002B0ED0786800F001FB0346EF
:10339800002B08D07B6840225A657B68012283F89D
:1033A8003520012316E07B681B687A695A617868C2
:1033B80000F0B8FA0346FB607B68DB6D3F229A4059
:1033C800FB689A607B6800225A657B68012283F853
:1033D8003520002318461837BD4680BD3F8010F0C1
:1033E80080B586B000AFF860B9607A603B600023B2
:1033F800FB75FB689B6D3B61FB6893F83430012BD0
:1034080001D1022340E0FB68012283F83420FB68E5
:1034180093F83530DBB2012B2FD1FB68022283F8F9
:103428003520FB6800225A653B687A68B968F868F5
:1034380000F04AFAFB68DB6D3F229A403B699A60CC
:10344800FB681B681A68FB681B6842F016021A6062
:10345800FB681B6C002B07D0FB681B681A68FB68AD
:103468001B6842F008021A60FB681B681A68FB6850
:103478001B6842F001021A6005E0FB68002283F82D
:1034880034200223FB75FB7D18461837BD4680BDE6
:1034980080B584B000AF78607B689B6DFB60FFF7F8
:1034A800AFFDB8607B6893F83530DBB2022B08D0EB
:1034B8007B6880225A657B68002283F834200123C8
:1034C80052E07B681B681A687B681B6822F016024A
:1034D8001A607B681B685A697B681B6822F0800247
:1034E8005A617B681B6C002B03D17B689B6C002B9B
:1034F80007D07B681B681A687B681B6822F0080283
:103508001A607B681B681A687B681B6822F00102D6
:103518001A6013E0FFF774FD0246BB68D31A052B47
:103528000CD97B6820225A657B68032283F83520F2
:103538007B68002283F83420032315E07B681B682E
:103548001B6803F00103002BE4D17B68DB6D3F228D
:103558009A40FB689A607B68012283F835207B6873
:10356800002283F83420002318461037BD4680BD5A
:1035780080B483B000AF78607B6893F83530DBB2F5
:10358800022B04D07B6880225A6501230CE07B68FB
:10359800052283F835207B681B681A687B681B68DE
:1035A80022F001021A60002318460C37BD465DF868
:1035B800047B704780B586B000AF78600023BB609D
:1035C8008E4B1B688E4AA2FB03239B0A7B617B6898
:1035D8009B6D3B613B691B68FB607B68DB6D082268
:1035E8009A40FB681340002B1AD07B681B681B6845
:1035F80003F00403002B13D07B681B681A687B68F0
:103608001B6822F004021A607B68DB6D08229A406E
:103618003B699A607B685B6D43F001027B685A6581
:103628007B68DB6D01229A40FB681340002B12D0A7
:103638007B681B685B6903F08003002B0BD07B68F9
:10364800DB6D01229A403B699A607B685B6D43F0B1
:1036580002027B685A657B68DB6D04229A40FB682E
:103668001340002B12D07B681B681B6803F0020311
:10367800002B0BD07B68DB6D04229A403B699A6073
:103688007B685B6D43F004027B685A657B68DB6D81
:1036980010229A40FB681340002B43D07B681B68BC
:1036A8001B6803F00803002B3CD07B68DB6D1022FD
:1036B8009A403B699A607B681B681B6803F4802307
:1036C800002B18D07B681B681B6803F40023002BB1
:1036D80008D17B681B6C002B24D07B681B6C786836
:1036E80098471FE07B689B6C002B1BD07B689B6C0A
:1036F8007868984716E07B681B681B6803F480733A
:10370800002B07D17B681B681A687B681B6822F04E
:1037180008021A607B681B6C002B03D07B681B6C4B
:10372800786898477B68DB6D20229A40FB681340D5
:10373800002B00F08F807B681B681B6803F0100368
:10374800002B00F087807B68DB6D20229A403B6964
:103758009A607B6893F83530DBB2052B36D17B68ED
:103768001B681A687B681B6822F016021A607B685F
:103778001B685A697B681B6822F080025A617B6863
:103788001B6C002B03D17B689B6C002B07D07B68DC
:103798001B681A687B681B6822F008021A607B683D
:1037A800DB6D3F229A403B699A607B68012283F86F
:1037B80035207B68002283F834207B681B6D002B42
:1037C8007ED07B681B6D7868984779E07B681B68BA
:1037D8001B6803F48023002B1DD07B681B681B68C3
:1037E80003F40023002B0DD17B685B6C002B31D0D8
:1037F8007B685B6C786898472CE000BF100000205D
:10380800B5814E1B7B68DB6B002B23D07B68DB6BA1
:10381800786898471EE07B681B681B6803F4807310
:10382800002B0FD17B681B681A687B681B6822F025
:1038380010021A607B68012283F835207B68002219
:1038480083F834207B68DB6B002B03D07B68DB6B51
:10385800786898477B685B6D002B32D07B685B6D1E
:1038680003F00103002B22D07B68052283F8352062
:103878007B681B681A687B681B6822F001021A6063
:10388800BB680133BB607A699A4207D37B681B68BF
:103898001B6803F00103002BF2D100E000BF7B6836
:1038A800012283F835207B68002283F834207B6866
:1038B800DB6C002B05D07B68DB6C7868984700E0F0
:1038C80000BF1837BD4680BD80B485B000AFF86032
:1038D800B9607A603B60FB681B681A68FB681B6804
:1038E80022F480221A60FB681B683A685A60FB68F9
:1038F8009B68402B08D1FB681B687A689A60FB6854
:103908001B68BA68DA6007E0FB681B68BA689A60E7
:10391800FB681B687A68DA6000BF1437BD465DF83B
:10392800047B704780B485B000AF78607B681B6803
:10393800DBB2103B144AA2FB03231B09FB60134AAA
:10394800FB6813441B781A467B68DA65FB68032B0F
:1039580009D97B681B6823F47F7323F003031A1DBE
:103968007B689A6507E07B681B6823F47F7323F004
:1039780003037A6893657B689B6D18461437BD46C8
:103988005DF8047B704700BFABAAAAAA5CBE00081A
:1039980080B485B000AF78600023FB737B689B6AB6
:1039A800BB607B689B69002B1FD1BB68032B56D873
:1039B80001A252F823F000BFD1390008E33900080A
:1039C800D1390008673A00087B68DB6A03F0807326
:1039D800002B46D00123FB7343E07B68DB6AB3F11D
:1039E800C07F40D10123FB733DE07B689B69B3F541
:1039F800005F21D1BB68032B37D801A252F823F00E
:103A0800193A00081F3A0008193A0008313A000824
:103A18000123FB7330E07B68DB6A03F08073002BC3
:103A280025D00123FB7322E07B68DB6AB3F1C07FFA
:103A38001FD10123FB731CE0BB68022B03D9BB68B1
:103A4800032B03D018E00123FB7315E07B68DB6AC6
:103A580003F08073002B0ED00123FB730BE000BF33
:103A68000AE000BF08E000BF06E000BF04E000BFB6
:103A780002E000BF00E000BFFB7B18461437BD46DC
:103A88005DF8047B704700BF80B489B000AF7860F0
:103A9800396000237B6100233B610023BB61002365
:103AA800FB6159E10122FB6902FA03F37B613B6880
:103AB8001B687A6913403B613A697B699A4240F016
:103AC80048813B685B6803F00303012B05D03B6822
:103AD8005B6803F00303022B30D17B689B68BB61F2
:103AE800FB695B00032202FA03F3DB43BA69134064
:103AF800BB613B68DA68FB695B0002FA03F3BA69E9
:103B08001343BB617B68BA699A607B685B68BB6179
:103B18000122FB6902FA03F3DB43BA691340BB6174
:103B28003B685B681B0903F00102FB6902FA03F3B7
:103B3800BA691343BB617B68BA695A603B685B68C2
:103B480003F00303032B17D07B68DB68BB61FB69B9
:103B58005B00032202FA03F3DB43BA691340BB613B
:103B68003B689A68FB695B0002FA03F3BA6913437E
:103B7800BB617B68BA69DA603B685B6803F0030382
:103B8800022B23D1FB69DA087B68083253F822300C
:103B9800BB61FB6903F007039B000F2202FA03F3E2
:103BA800DB43BA691340BB613B681A69FB6903F0E0
:103BB80007039B0002FA03F3BA691343BB61FB696D
:103BC800DA087B680832B96943F822107B681B68F9
:103BD800BB61FB695B00032202FA03F3DB43BA69AA
:103BE8001340BB613B685B6803F00302FB695B0041
:103BF80002FA03F3BA691343BB617B68BA691A60B6
:103C08003B685B6803F44033002B00F0A28000237C
:103C1800FB60574B5B6C564A43F480435364544BE8
:103C28005B6C03F48043FB60FB68524AFB699B08AA
:103C3800023352F82330BB61FB6903F003039B0096
:103C48000F2202FA03F3DB43BA691340BB617B68B6
:103C5800494A934219D07B68484A934213D07B68FB
:103C6800474A93420DD07B68464A934207D07B6807
:103C7800454A934201D1042308E0072306E00323C1
:103C880004E0022302E0012300E00023FA6902F0C5
:103C9800030292009340BA691343BB613549FB693B
:103CA8009B080233BA6941F82320384B9B68BB61F3
:103CB8003B69DB43BA691340BB613B685B6803F44B
:103CC8008013002B03D0BA693B691343BB612F4AA9
:103CD800BB6993602D4BDB68BB613B69DB43BA6909
:103CE8001340BB613B685B6803F40013002B03D0EF
:103CF800BA693B691343BB61244ABB69D360234B50
:103D08005B68BB613B69DB43BA691340BB613B68D5
:103D18005B6803F40033002B03D0BA693B69134393
:103D2800BB611A4ABB695360184B1B68BB613B698E
:103D3800DB43BA691340BB613B685B6803F48033BB
:103D4800002B03D0BA693B691343BB610F4ABB69B7
:103D58001360FB690133FB61FB690F2B7FF6A2AE91
:103D680000BF00BF2437BD465DF8047B704700BF25
:103D780000380240003801400000024000040240C0
:103D880000080240000C024000100240003C0140C4
:103D980080B483B000AF78600B467B8013467B709D
:103DA8007B78002B03D07A887B689A6103E07B8854
:103DB8001A047B689A6100BF0C37BD465DF8047B26
:103DC800704780B485B000AF78600B467B807B6815
:103DD8005B69FB607A88FB6813401A04FB68D94367
:103DE8007B880B401A437B689A6100BF1437BD4635
:103DF8005DF8047B7047F0B58FB00AAF78607B68D8
:103E0800002B01D1012354E07B681B68FB607B68B1
:103E180093F8F932DBB2002B06D17B68002283F8D5
:103E2800F822786807F054FA7B68032283F8F922AD
:103E3800FB68DB6B03F48073002B02D17B680022E4
:103E48001A617B681B68184604F082FA7B681B6855
:103E58003B607E686D4606F110040FCC0FC50FCC91
:103E68000FC594E8030085E80300331D0ECB3868BE
:103E780004F0FCF97B681B680121184604F079FA04
:103E88007B681B683B607E686D4606F110040FCCAA
:103E98000FC50FCC0FC594E8030085E80300331D58
:103EA8000ECB386804F002FC7B68012283F8F92203
:103EB800002318461437BD46F0BD90B589B004AF4D
:103EC8007860084611461A460346FB700B46BB70DD
:103ED80013467B707B6893F8F832012B01D10223DB
:103EE80076E07B68012283F8F822FB787A682C2137
:103EF80001FB03F313443D3300221A70FB787A6800
:103F08002C2101FB03F3134438337A781A70FB78B9
:103F18007A682C2101FB03F3134440333A8D1A804D
:103F2800FB787A682C2101FB03F313443933FA78C0
:103F38001A70FB787A682C2101FB03F313443F3392
:103F480097F824201A70FB78BA7802F07F02D0B272
:103F58007A682C2101FB03F313443A3302461A70A2
:103F680097F90230002B09DAFB787A682C2101FBDB
:103F780003F313443B3301221A7008E0FB787A6894
:103F88002C2101FB03F313443B3300221A70FB7806
:103F98007A682C2101FB03F313443C3397F8202063
:103FA8001A707B6818687C78BA78F9783B8D029328
:103FB80097F82430019397F820300093234604F0B3
:103FC800FBFC0346FB737B68002283F8F822FB7B2B
:103FD80018461437BD4690BD80B584B000AF7860F0
:103FE8000B46FB700023FB737B6893F8F832012BB8
:103FF80001D102230FE07B68012283F8F8227B6855
:104008001B68FA781146184604F04BFF7B680022BB
:1040180083F8F822FB7B18461037BD4680BD0000A8
:1040280080B582B000AF7860084611461A4603464C
:10403800FB700B46BB7013467B70FB787A682C21AB
:1040480001FB03F313443B33BA781A70FB787A68A0
:104058002C2101FB03F313443F337A781A703B7C1D
:10406800002B12D1FB787A682C2101FB03F313444F
:10407800423303221A70FB787A682C2101FB03F380
:1040880013443D333A7F1A7008E0FB787A682C2194
:1040980001FB03F31344423302221A707B78032B8B
:1040A80000F2C68001A252F823F000BFC540000804
:1040B8002542000829410008A74100083B7C012B44
:1040C80040F0B880BB78002B40F0B4803B8B002BCD
:1040D80008D1FB787A682C2101FB03F3134455338C
:1040E80001221A70FB787A682C2101FB03F3134430
:1040F80055331B78002B09D1FB787A682C2101FBFA
:1041080003F31344423300221A7093E0FB787A6871
:104118002C2101FB03F31344423302221A7089E075
:10412800BB78002B1DD1FB787A682C2101FB03F3A7
:10413800134455331B78002B09D1FB787A682C215E
:1041480001FB03F31344423300221A7073E0FB7837
:104158007A682C2101FB03F31344423302221A70BC
:1041680069E0FB787A682C2101FB03F3134454338C
:104178001B78002B09D1FB787A682C2101FB03F30B
:104188001344423300221A7055E0FB787A682C21D8
:1041980001FB03F31344423302221A704BE0BB784D
:1041A800002B1DD1FB787A682C2101FB03F3134403
:1041B80055331B78002B09D1FB787A682C2101FB39
:1041C80003F31344423300221A7034E0FB787A6810
:1041D8002C2101FB03F31344423302221A702AE014
:1041E800FB787A682C2101FB03F3134454331B78C2
:1041F800002B09D1FB787A682C2101FB03F31344C7
:10420800423300221A7016E0FB787A682C2101FBF1
:1042180003F31344423302221A700CE0FB787A68E5
:104228002C2101FB03F31344423300221A7002E0ED
:1042380000BF00E000BFFB787A682C2101FB03F384
:10424800134444337A691A60FB783A8B79682C20D6
:1042580000FB03F30B444C331A60FB787A682C217B
:1042680001FB03F31344603300221A70FB787A6869
:104278002C2101FB03F31344503300221A60FB780E
:104288007A682C2101FB03F313443933FA781A7046
:10429800FB787A682C2101FB03F313446133002275
:1042A8001A707B681868FB782C2202FB03F33833FA
:1042B8007A68D1187B681B69DBB21A4604F09EFC49
:1042C800034618460837BD4680BD00BF80B586B096
:1042D80000AF78607B681B683B613B69FB607B686B
:1042E8001B68184604F09FF90346012B40F0F6803E
:1042F8007B681B68184604F083F90346002B00F01E
:10430800EC807B681B68184604F07AF9034603F4CE
:104318000013B3F5001F04D17B681B684FF400122B
:104328005A617B681B68184604F06AF9034603F46F
:104338008013B3F5801F04D17B681B684FF480128B
:104348005A617B681B68184604F05AF9034603F063
:104358008063B3F1806F04D17B681B684FF0806283
:104368005A617B681B68184604F04AF9034603F053
:104378000203022B03D17B681B6802225A617B6807
:104388001B68184604F03CF9034603F00053B3F1E8
:10439800005F1CD17B681B684FF000525A61FB68B4
:1043A80003F588631B6803F00103002B0FD110216C
:1043B800386904F02BF8386904F05CF87B681B68EE
:1043C8000121184604F032FA786806F0FFFF7B688E
:1043D8001B68184604F014F9034603F08073B3F120
:1043E800807F02D1786801F09EF87B681B681846C8
:1043F80004F006F9034603F00803082B06D1786891
:1044080006F0C8FF7B681B6808225A617B681B6836
:10441800184604F0F5F8034603F01003102B01D1F9
:10442800012300E00023002B12D07B681B689A69E7
:104438007B681B6822F010029A61786800F0A1FF7F
:104448007B681B689A697B681B6842F010029A6156
:104458007B681B68184604F0D3F8034603F0007322
:10446800B3F1007F3AD17B681B68184604F008FD59
:10447800B86000237B6125E07B6903F00F03BA680D
:1044880022FA03F303F00103002B18D07B695A01C9
:10449800FB68134403F5A0631B6803F40043B3F5FA
:1044A800004F06D17B69DBB21946786800F0ABF89B
:1044B80005E07B69DBB21946786800F0F9FB7B6997
:1044C80001337B617B689B687A699A42D4D37B68A5
:1044D8001B684FF000725A6100E000BF1837BD46F4
:1044E80080BD80B582B000AF78607B6893F8F83201
:1044F800012B01D1022313E07B68012283F8F82203
:104508007B681B680121184604F0F4F97B681B6876
:10451800184603F00CFF7B68002283F8F82200237A
:1045280018460837BD4680BD80B582B000AF7860B8
:104538007B6893F8F832012B01D102230DE07B68E8
:10454800012283F8F8227B681B68184604F0E2FD14
:104558007B68002283F8F822002318460837BD46F6
:1045680080BD80B582B000AF78607B681B68184654
:1045780004F096F9034618460837BD4680BD80B456
:1045880083B000AF78600B46FB70FB787A682C210B
:1045980001FB03F3134460331B7818460C37BD4600
:1045A8005DF8047B704780B483B000AF78600B4639
:1045B800FB70FB787A682C2101FB03F3134450331A
:1045C8001B6818460C37BD465DF8047B704780B5FC
:1045D80082B000AF78607B681B68184604F0DAF98F
:1045E800034618460837BD4680BD80B582B000AF87
:1045F80078607B681B68184604F0B5F903461846CE
:104608000837BD4680BD80B586B000AF78600B46E0
:10461800FB707B681B687B617B693B61FB78FB6097
:10462800FB685A013B69134403F5A0639B6803F0D8
:104638000403042B1AD1FB685A013B69134403F5A0
:10464800A0631A46042393607A68FB682C2101FB57
:1046580003F31344613306221A707B681B68FA68F7
:10466800D2B21146184604F01CFCAFE0FB685A01B0
:104678003B69134403F5A0639B6803F48073B3F5A7
:10468800807F1BD1FB685A013B69134403F5A06383
:104698001A464FF4807393607A68FB682C2101FBFB
:1046A80003F31344613307221A707B681B68FA68A6
:1046B800D2B21146184604F0F4FB87E0FB685A01B1
:1046C8003B69134403F5A0639B6803F02003202B88
:1046D80009D1FB685A013B69134403F5A0631A46E4
:1046E8002023936072E0FB685A013B69134403F589
:1046F800A0639B6803F00803082B1AD1FB685A01D2
:104708003B69134403F5A0631A46082393607A684B
:10471800FB682C2101FB03F31344613305221A7053
:104728007B681B68FA68D2B21146184604F0B9FBD8
:104738004CE0FB685A013B69134403F5A0639B688E
:1047480003F48063B3F5806F1BD1FB685A013B69A2
:10475800134403F5A0631A464FF4806393607A68A4
:10476800FB682C2101FB03F31344613308221A7000
:104778007B681B68FA68D2B21146184604F091FBB0
:1047880024E0FB685A013B69134403F5A0639B6866
:1047980003F08003802B19D1FB685A013B6913444D
:1047A80003F5A0631A46802393607A68FB682C217E
:1047B80001FB03F31344613306221A707B681B68FC
:1047C800FA68D2B21146184604F06BFBFB685A012E
:1047D8003B69134403F5A0639B6803F40073B3F5C6
:1047E800007F12D17B681B68FA68D2B2114618465E
:1047F80004F057FBFB685A013B69134403F5A063B7
:104808001A464FF4007393604EE2FB685A013B6905
:10481800134403F5A0639B6803F00103012B40F0E8
:10482800DF807B681B69002B19D07A68FB682C2114
:1048380001FB03F3134448331A68FB6859013B69C9
:104848000B4403F5A0631B69C3F31203D21A7968FA
:10485800FB682C2000FB03F30B4450331A607A6882
:10486800FB682C2101FB03F31344613301221A7006
:104878007A68FB682C2101FB03F313445C330022A4
:104888001A60FB685A013B69134403F5A0631A4692
:10489800012393607A68FB682C2101FB03F313441E
:1048A8003F331B78002B09D07A68FB682C2101FB69
:1048B80003F313443F331B78022B11D17B681B6829
:1048C800FA68D2B21146184604F0EBFAFB685A01AE
:1048D8003B69134403F5A0631A46102393603AE03A
:1048E8007A68FB682C2101FB03F313443F331B78E0
:1048F800032B09D07A68FB682C2101FB03F31344CE
:104908003F331B78012B26D1FB685A013B691344BE
:1049180003F5A0631B68FA6851013A690A4402F575
:10492800A06243F0005313607A68FB682C2101FBF6
:1049380003F31344603301221A70FB68D9B27A6812
:10494800FB682C2000FB03F3134460331B781A46E2
:10495800786806F049FD7B681B69012B2BD17A68C2
:10496800FB682C2101FB03F3134448331B68796867
:10497800FA682C2000FB02F20A4440321288B3FB8A
:10498800F2F303F00103002B00F08E817A68FB68D4
:104998002C2101FB03F3134454331B7883F00103E8
:1049A800D8B27A68FB682C2101FB03F31344543313
:1049B80002461A7078E17A68FB682C2101FB03F340
:1049C800134454331B7883F00103D8B27A68FB6828
:1049D8002C2101FB03F31344543302461A7063E19C
:1049E800FB685A013B69134403F5A0639B6803F015
:1049F8000203022B40F0F6807A68FB682C2101FB49
:104A080003F3134461331B78012B09D17A68FB68DF
:104A18002C2101FB03F31344603301221A70C9E00F
:104A28007A68FB682C2101FB03F3134461331B787C
:104A3800052B09D17A68FB682C2101FB03F3134489
:104A4800603305221A70B5E07A68FB682C2101FBF7
:104A580003F3134461331B78062B09D07A68FB688B
:104A68002C2101FB03F3134461331B78082B50D12D
:104A78007A68FB682C2101FB03F313445C331B6841
:104A88005A1C7968FB682C2000FB03F30B445C3349
:104A98001A607A68FB682C2101FB03F313445C332A
:104AA8001B68022B12D97A68FB682C2101FB03F3DF
:104AB80013445C3300221A607A68FB682C2101FBDE
:104AC80003F31344603304221A7073E07A68FB68B6
:104AD8002C2101FB03F31344603302221A70FB6894
:104AE8005A013B69134403F5A0631B68BB60BB68AC
:104AF80023F08043BB60BB6843F00043BB60FB68A6
:104B08005A013B69134403F5A0631A46BB68136056
:104B180050E07A68FB682C2101FB03F313446133EE
:104B28001B78032B22D17A68FB682C2101FB03F345
:104B38001344603302221A70FB685A013B6913441C
:104B480003F5A0631B68BB60BB6823F08043BB60B0
:104B5800BB6843F00043BB60FB685A013B691344E0
:104B680003F5A0631A46BB68136023E07A68FB6804
:104B78002C2101FB03F3134461331B78072B19D154
:104B88007A68FB682C2101FB03F313445C331B6830
:104B98005A1C7968FB682C2000FB03F30B445C3338
:104BA8001A607A68FB682C2101FB03F31344603315
:104BB80004221A70FB685A013B69134403F5A06389
:104BC8001A4602239360FB68D9B27A68FB682C20E6
:104BD80000FB03F3134460331B781A46786806F029
:104BE80003FC61E0FB685A013B69134403F5A063C9
:104BF8009B6803F01003102B56D17A68FB682C21B0
:104C080001FB03F313443F331B78032B11D17A685C
:104C1800FB682C2101FB03F313445C3300221A6068
:104C28007B681B68FA68D2B21146184604F039F955
:104C380031E07A68FB682C2101FB03F313443F330E
:104C48001B78002B09D07A68FB682C2101FB03F341
:104C580013443F331B78022B1DD17A68FB682C2143
:104C680001FB03F313445C3300221A607B681B6961
:104C7800002B10D17A68FB682C2101FB03F3134445
:104C8800613303221A707B681B68FA68D2B2114636
:104C9800184604F006F9FB685A013B69134403F50A
:104CA800A0631A461023936000BF1837BD4680BD25
:104CB80080B588B000AF78600B46FB707B681B68D6
:104CC800FB61FB69BB61FB787B617B695A01BB694E
:104CD800134403F5A0639B6803F00403042B1AD163
:104CE8007B695A01BB69134403F5A0631A46042380
:104CF80093607A687B692C2101FB03F313446133C9
:104D080006221A707B681B687A69D2B21146184667
:104D180004F0C7F831E37B695A01BB69134403F512
:104D2800A0639B6803F02003202B2ED17B695A01D6
:104D3800BB69134403F5A0631A46202393607A687D
:104D48007B692C2101FB03F313443D331B78012BB2
:104D580040F013837A687B692C2101FB03F3134429
:104D68003D3300221A707A687B692C2101FB03F31A
:104D78001344603302221A707B681B687A69D2B2C6
:104D88001146184604F08DF8F7E27B695A01BB69B1
:104D9800134403F5A0639B6803F40073B3F5007F25
:104DA80012D17B695A01BB69134403F5A0631A4603
:104DB8004FF4007393607B681B687A69D2B211461E
:104DC800184604F06EF8D8E27B695A01BB691344AF
:104DD80003F5A0639B6803F00103012B40D17A68B7
:104DE8007B692C2101FB03F313445C3300221A6016
:104DF8007B695A01BB69134403F5A0639B6803F000
:104E08004003402B11D17A687B692C2101FB03F305
:104E180013443D3301221A707B695A01BB6913445C
:104E280003F5A0631A46402393607B695A01BB6966
:104E3800134403F5A0631A46012393607A687B69DB
:104E48002C2101FB03F31344613301221A707B68A0
:104E58001B687A69D2B21146184604F022F88CE22F
:104E68007B695A01BB69134403F5A0639B6803F08F
:104E78004003402B2CD17A687B692C2101FB03F37A
:104E88001344613304221A707A687B692C2101FB70
:104E980003F313443D3301221A707A687B692C218D
:104EA80001FB03F313445C3300221A607B681B6820
:104EB8007A69D2B21146184603F0F3FF7B695A01AA
:104EC800BB69134403F5A0631A464023936054E278
:104ED8007B695A01BB69134403F5A0639B6803F01F
:104EE8000803082B1AD17B695A01BB69134403F5DF
:104EF800A0631A46082393607A687B692C2101FB1A
:104F080003F31344613305221A707B681B687A69BE
:104F1800D2B21146184603F0C4FF2EE27B695A014B
:104F2800BB69134403F5A0639B6803F01003102BBF
:104F380040D17A687B692C2101FB03F313445C336D
:104F480000221A607A687B692C2101FB03F3134461
:104F5800613303221A707A687B692C2101FB03F301
:104F680013443D331B78002B12D17A687B692C21BE
:104F780001FB03F313443C331B78002B08D17A68F8
:104F88007B692C2101FB03F313443D3301221A7082
:104F98007B681B687A69D2B21146184603F081FF14
:104FA8007B695A01BB69134403F5A0631A461023B1
:104FB8009360E2E17B695A01BB69134403F5A0637E
:104FC8009B6803F08003802B64D17B681B69002BEE
:104FD80011D17A687B692C2101FB03F313446133F7
:104FE80006221A707B681B687A69D2B21146184685
:104FF80003F057FF44E07A687B692C2101FB03F337
:1050080013445C331B685A1C79687B692C2000FBAD
:1050180003F30B445C331A607A687B692C2101FB2B
:1050280003F313445C331B68022B20D97A687B692D
:105038002C2101FB03F313445C3300221A607A68C5
:105048007B692C2101FB03F31344603304221A709B
:105058007B69D9B27A687B692C2000FB03F313447F
:1050680060331B781A46786806F0BEF908E07A685B
:105078007B692C2101FB03F31344603302221A706D
:105088007B695A01BB69134403F5A0631A46802360
:10509800936072E17B695A01BB69134403F5A0630D
:1050A8009B6803F48063B3F5806F1BD17A687B69D2
:1050B8002C2101FB03F31344613308221A707B6827
:1050C8001B687A69D2B21146184603F0EAFE7B697A
:1050D8005A01BB69134403F5A0631A464FF4806371
:1050E80093604AE17B695A01BB69134403F5A063E5
:1050F8009B6803F00203022B40F03F817A687B69CA
:105108002C2101FB03F3134461331B78012B7DD160
:105118007A687B692C2101FB03F313446033012275
:105128001A707A687B692C2101FB03F313443F331F
:105138001B78022B0AD07A687B692C2101FB03F3C8
:1051480013443F331B78032B40F000817B681B69B5
:10515800002B13D17A687B692C2101FB03F31344DC
:1051680055331B7883F00103D8B27A687B692C2108
:1051780001FB03F31344553302461A707B681B691D
:10518800012B40F0E3807A687B692C2101FB03F353
:1051980013444C331B68002B00F0D8807A687B6975
:1051A8002C2101FB03F313444C331B6879687A699B
:1051B8002C2000FB02F20A44403212881344013BBF
:1051C80079687A692C2000FB02F20A44403212887E
:1051D800B3FBF2F3FB60FB6803F00103002B00F064
:1051E800B5807A687B692C2101FB03F3134455339E
:1051F8001B7883F00103D8B27A687B692C2101FB04
:1052080003F31344553302461A709FE07A687B69AA
:105218002C2101FB03F3134461331B78032B09D1C1
:105228007A687B692C2101FB03F313446033022263
:105238001A708BE07A687B692C2101FB03F3134415
:1052480061331B78042B09D17A687B692C2101FB17
:1052580003F31344603302221A7077E07A687B699B
:105268002C2101FB03F3134461331B78052B09D16F
:105278007A687B692C2101FB03F313446033052210
:105288001A7063E07A687B692C2101FB03F31344ED
:1052980061331B78062B09D07A687B692C2101FBC6
:1052A80003F3134461331B78082B4FD17A687B6969
:1052B8002C2101FB03F313445C331B685A1C7968E7
:1052C8007B692C2000FB03F30B445C331A607A687B
:1052D8007B692C2101FB03F313445C331B68022B0D
:1052E80012D97A687B692C2101FB03F313445C33E0
:1052F80000221A607A687B692C2101FB03F31344AE
:10530800603304221A7021E07A687B692C2101FB42
:1053180003F31344603302221A707B695A01BB6994
:10532800134403F5A0631B683B613B6923F080438A
:105338003B613B6943F000433B617B695A01BB69B0
:10534800134403F5A0631A463B6913607B695A014D
:10535800BB69134403F5A0631A46022393607B6973
:10536800D9B27A687B692C2000FB03F313446033BD
:105378001B781A46786806F037F800BF2037BD4614
:1053880080BD80B58AB000AF78607B681B687B629F
:105398007B6A3B627B681B681B6AFB61FB6903F0E5
:1053A8000F03BB61FB695B0C03F00F037B61FB69B7
:1053B8001B09C3F30A033B617B69022B04D07B6999
:1053C800052B00F0A980AAE03B69002B00F0A6801D
:1053D8007A68BB692C2101FB03F3134444331B682F
:1053E800002B00F09B807A68BB692C2101FB03F33A
:1053F800134450331A683B691A447968BB692C20F6
:1054080000FB03F30B444C331B689A427AD87B6841
:1054180018687A68BB692C2101FB03F313444433F1
:105428001B683A6992B2194603F092F87A68BB6928
:105438002C2101FB03F3134444331A683B691A44D3
:105448007968BB692C2000FB03F30B4444331A60D2
:105458007A68BB692C2101FB03F3134450331A68A3
:105468003B691A447968BB692C2000FB03F30B44A1
:1054780050331A60BB695A013B6A134403F5A063B1
:105488001B69DB0CC3F30903FB607A68BB692C2139
:1054980001FB03F3134440331B881A463B699342CC
:1054A8003CD1FB68002B39D0BB695A013B6A1344D5
:1054B80003F5A0631B68BB60BB6823F08043BB6037
:1054C800BB6843F00043BB60BB695A013B6A1344A5
:1054D80003F5A0631A46BB6813607A68BB692C2180
:1054E80001FB03F3134454331B7883F00103D8B250
:1054F8007A68BB692C2101FB03F313445433024639
:105508001A700BE07A68BB692C2101FB03F3134482
:10551800603304221A7001E000BF00E000BF00BF42
:105528002837BD4680BD80B586B000AF78607B68FF
:105538001B687B617B693B613B6903F588631B687A
:10554800FB603B6903F588631B68BB60BB6823F09D
:105558002E03BB60FB6803F00203022B0BD1FB6830
:1055680003F00103012B02D1786805F021FFBB6825
:1055780043F00203BB60FB6803F00803082B32D139
:10558800BB6843F00803BB60FB6803F00403042B0B
:1055980026D17B689B69022B13D1FB6803F4C023D7
:1055A800B3F5802F06D17B681B680221184603F0EB
:1055B8003DF911E07B681B680121184603F036F9B4
:1055C8000AE07B68DB68012B06D13B6903F5806341
:1055D8001A464EF660235360786805F013FF02E020
:1055E800786805F01DFFFB6803F02003202B03D12A
:1055F800BB6843F02003BB603B6903F588631A4628
:10560800BB68136000BF1837BD4680BD80B584B045
:1056180000AF78607B68002B01D101232BE17B6808
:1056280093F83D30DBB2002B06D17B68002283F86B
:105638003C207868FDF736F97B68242283F83D2002
:105648007B681B681A687B681B6822F001021A6075
:105658007B681B681A687B681B6842F400421A6002
:105668007B681B681A687B681B6822F400421A6012
:1056780001F020FAF8607B685B68814A934207D89A
:10568800FB68804A934294BF01230023DBB206E003
:10569800FB687D4A934294BF01230023DBB2002BB1
:1056A80001D00123E7E0FB68784AA2FB03239B0CA7
:1056B800BB607B681B685B6823F03F017B681B68E5
:1056C800BA680A435A607B681B681B6A23F03F016B
:1056D8007B685B686A4A934202D8BB68013309E079
:1056E800BB684FF4967202FB03F3694AA2FB0323DB
:1056F8009B0901337A6812680B4313627B681B6845
:10570800DB6923F44F4222F0FF027B685B685C4947
:105718008B4219D8FB68591E7B685B685B00B1FB3C
:10572800F3F3591C40F6FC730B40002B0AD0FB68BE
:10573800591E7B685B685B00B1FBF3F30133C3F36D
:105748000B0351E004234FE07B689B68002B11D1C9
:10575800FB68581E7B6859680B465B000B44B0FB1E
:10576800F3F30133C3F30B03002B0CBF0123002316
:10577800DBB212E0FB68581E7B6859680B469B0039
:105788000B4499000B44B0FBF3F30133C3F30B0351
:10579800002B0CBF01230023DBB2002B01D0012317
:1057A80022E07B689B68002B0ED1FB68581E7B6843
:1057B80059680B465B000B44B0FBF3F30133C3F3AA
:1057C8000B0343F400430FE0FB68581E7B685968DD
:1057D8000B469B000B4499000B44B0FBF3F30133D9
:1057E800C3F30B0343F44043796809681343CB615F
:1057F8007B681B681B6823F0C0017B68DA697B68DB
:105808001B6A1A437B681B680A431A607B681B681B
:105818009B6823F4034323F0FF037A6811697A68CD
:10582800D26811437A6812680B4393607B681B68DF
:10583800DB6823F0FF017B685A697B689B691A4320
:105848007B681B680A43DA607B681B681A687B6898
:105858001B6842F001021A607B6800221A647B68A8
:10586800202283F83D207B6800221A637B6800228F
:1058780083F83E20002318461037BD4680BD00BF80
:10588800A08601007F841E00FF083D0083DE1B43C5
:10589800D34D621080B588B000AF78607B68002B6C
:1058A80001D1012328E17B6893F84130DBB2002B5A
:1058B80009D17B68002283F840207B68904A5A63AC
:1058C8007868FDF737F87B68022283F841207B6807
:1058D8001B68DB697A68126823F47B6323F00F0383
:1058E800D3617B681B6802221A627B685B69022BA2
:1058F80060D07B68DB68002B02D110237B6101E05C
:1059080020237B617B689B68202B02D87B695B0026
:105918007B61012001F0E6F9F8607B681B69B3F54B
:10592800007F25D17B68DB68002B10D07B699B004A
:10593800FA68B2FBF3F213469B0013445B001A4665
:105948007B685B69B2FBF3F305333B611FE07B695E
:10595800DB00FA68B2FBF3F213469B0013445B00CA
:105968001A467B685B69B2FBF3F305333B610EE0D3
:10597800FA687B69B2FBF3F213469B0013445B00A1
:105988001A467B685B69B2FBF3F305333B613B69FD
:105998005C4AA2FB0323DB083B613B6903F001037C
:1059A800BB613A69BB69D31A5B08FB61BB691B021F
:1059B800BB6103E00223FB610023BB61FB69012B90
:1059C80002D9FB69FF2B07D97B685B6C43F0100297
:1059D8007B685A6401238FE07B681A69BB6942EAD5
:1059E80003017B681B68FA690A431A627B681B68B3
:1059F800DB6923F47B6323F00F037A6851687A68C4
:105A0800926811437A68D26811437A6892690A43A6
:105A18001A437B681B6842F40062DA617B681B6A80
:105A2800012B61D17B68384A5A637B681B68374A07
:105A3800934201D1364B01E04FF04023DB697A688D
:105A4800126832498A4201D1314A01E04FF04022BE
:105A580023F47B6323F00F03D3617B681B682B4A15
:105A6800934201D12A4B01E04FF0402302221A62EF
:105A78007B681B68254A934201D1254B01E04FF012
:105A88004023DB697B817B685B68B3F5007F03D0CB
:105A98007B685B68002B03D14FF480733B6101E0A6
:105AA80000233B613B699AB27B689B689BB21343B6
:105AB8009AB27B68DB689BB213439AB27B689B6996
:105AC8009BB213439AB27B8913439BB243F400639E
